{"abi":[{"type":"constructor","inputs":[],"stateMutability":"nonpayable"},{"type":"function","name":"approve","inputs":[{"name":"to","type":"address","internalType":"address"},{"name":"tokenId","type":"uint256","internalType":"uint256"}],"outputs":[],"stateMutability":"nonpayable"},{"type":"function","name":"balanceOf","inputs":[{"name":"owner","type":"address","internalType":"address"}],"outputs":[{"name":"","type":"uint256","internalType":"uint256"}],"stateMutability":"view"},{"type":"function","name":"getApproved","inputs":[{"name":"tokenId","type":"uint256","internalType":"uint256"}],"outputs":[{"name":"","type":"address","internalType":"address"}],"stateMutability":"view"},{"type":"function","name":"isApprovedForAll","inputs":[{"name":"owner","type":"address","internalType":"address"},{"name":"operator","type":"address","internalType":"address"}],"outputs":[{"name":"","type":"bool","internalType":"bool"}],"stateMutability":"view"},{"type":"function","name":"mint","inputs":[{"name":"to","type":"address","internalType":"address"},{"name":"tokenURI","type":"string","internalType":"string"}],"outputs":[{"name":"","type":"uint256","internalType":"uint256"}],"stateMutability":"nonpayable"},{"type":"function","name":"name","inputs":[],"outputs":[{"name":"","type":"string","internalType":"string"}],"stateMutability":"view"},{"type":"function","name":"nextTokenId","inputs":[],"outputs":[{"name":"","type":"uint256","internalType":"uint256"}],"stateMutability":"view"},{"type":"function","name":"owner","inputs":[],"outputs":[{"name":"","type":"address","internalType":"address"}],"stateMutability":"view"},{"type":"function","name":"ownerOf","inputs":[{"name":"tokenId","type":"uint256","internalType":"uint256"}],"outputs":[{"name":"","type":"address","internalType":"address"}],"stateMutability":"view"},{"type":"function","name":"renounceOwnership","inputs":[],"outputs":[],"stateMutability":"nonpayable"},{"type":"function","name":"safeTransferFrom","inputs":[{"name":"from","type":"address","internalType":"address"},{"name":"to","type":"address","internalType":"address"},{"name":"tokenId","type":"uint256","internalType":"uint256"}],"outputs":[],"stateMutability":"nonpayable"},{"type":"function","name":"safeTransferFrom","inputs":[{"name":"from","type":"address","internalType":"address"},{"name":"to","type":"address","internalType":"address"},{"name":"tokenId","type":"uint256","internalType":"uint256"},{"name":"data","type":"bytes","internalType":"bytes"}],"outputs":[],"stateMutability":"nonpayable"},{"type":"function","name":"setApprovalForAll","inputs":[{"name":"operator","type":"address","internalType":"address"},{"name":"approved","type":"bool","internalType":"bool"}],"outputs":[],"stateMutability":"nonpayable"},{"type":"function","name":"supportsInterface","inputs":[{"name":"interfaceId","type":"bytes4","internalType":"bytes4"}],"outputs":[{"name":"","type":"bool","internalType":"bool"}],"stateMutability":"view"},{"type":"function","name":"symbol","inputs":[],"outputs":[{"name":"","type":"string","internalType":"string"}],"stateMutability":"view"},{"type":"function","name":"tokenURI","inputs":[{"name":"tokenId","type":"uint256","internalType":"uint256"}],"outputs":[{"name":"","type":"string","internalType":"string"}],"stateMutability":"view"},{"type":"function","name":"transferFrom","inputs":[{"name":"from","type":"address","internalType":"address"},{"name":"to","type":"address","internalType":"address"},{"name":"tokenId","type":"uint256","internalType":"uint256"}],"outputs":[],"stateMutability":"nonpayable"},{"type":"function","name":"transferOwnership","inputs":[{"name":"newOwner","type":"address","internalType":"address"}],"outputs":[],"stateMutability":"nonpayable"},{"type":"event","name":"Approval","inputs":[{"name":"owner","type":"address","indexed":true,"internalType":"address"},{"name":"approved","type":"address","indexed":true,"internalType":"address"},{"name":"tokenId","type":"uint256","indexed":true,"internalType":"uint256"}],"anonymous":false},{"type":"event","name":"ApprovalForAll","inputs":[{"name":"owner","type":"address","indexed":true,"internalType":"address"},{"name":"operator","type":"address","indexed":true,"internalType":"address"},{"name":"approved","type":"bool","indexed":false,"internalType":"bool"}],"anonymous":false},{"type":"event","name":"BatchMetadataUpdate","inputs":[{"name":"_fromTokenId","type":"uint256","indexed":false,"internalType":"uint256"},{"name":"_toTokenId","type":"uint256","indexed":false,"internalType":"uint256"}],"anonymous":false},{"type":"event","name":"MetadataUpdate","inputs":[{"name":"_tokenId","type":"uint256","indexed":false,"internalType":"uint256"}],"anonymous":false},{"type":"event","name":"OwnershipTransferred","inputs":[{"name":"previousOwner","type":"address","indexed":true,"internalType":"address"},{"name":"newOwner","type":"address","indexed":true,"internalType":"address"}],"anonymous":false},{"type":"event","name":"Transfer","inputs":[{"name":"from","type":"address","indexed":true,"internalType":"address"},{"name":"to","type":"address","indexed":true,"internalType":"address"},{"name":"tokenId","type":"uint256","indexed":true,"internalType":"uint256"}],"anonymous":false},{"type":"error","name":"ERC721IncorrectOwner","inputs":[{"name":"sender","type":"address","internalType":"address"},{"name":"tokenId","type":"uint256","internalType":"uint256"},{"name":"owner","type":"address","internalType":"address"}]},{"type":"error","name":"ERC721InsufficientApproval","inputs":[{"name":"operator","type":"address","internalType":"address"},{"name":"tokenId","type":"uint256","internalType":"uint256"}]},{"type":"error","name":"ERC721InvalidApprover","inputs":[{"name":"approver","type":"address","internalType":"address"}]},{"type":"error","name":"ERC721InvalidOperator","inputs":[{"name":"operator","type":"address","internalType":"address"}]},{"type":"error","name":"ERC721InvalidOwner","inputs":[{"name":"owner","type":"address","internalType":"address"}]},{"type":"error","name":"ERC721InvalidReceiver","inputs":[{"name":"receiver","type":"address","internalType":"address"}]},{"type":"error","name":"ERC721InvalidSender","inputs":[{"name":"sender","type":"address","internalType":"address"}]},{"type":"error","name":"ERC721NonexistentToken","inputs":[{"name":"tokenId","type":"uint256","internalType":"uint256"}]},{"type":"error","name":"OwnableInvalidOwner","inputs":[{"name":"owner","type":"address","internalType":"address"}]},{"type":"error","name":"OwnableUnauthorizedAccount","inputs":[{"name":"account","type":"address","internalType":"address"}]}],"bytecode":{"object":"0x608060405234801561000f575f5ffd5b50336040518060400160405280600b81526020017f496e67726573736f4e46540000000000000000000000000000000000000000008152506040518060400160405280600681526020017f494e474e46540000000000000000000000000000000000000000000000000000815250815f908161008b9190610423565b50806001908161009b9190610423565b5050505f73ffffffffffffffffffffffffffffffffffffffff168173ffffffffffffffffffffffffffffffffffffffff160361010e575f6040517f1e4fbdf70000000000000000000000000000000000000000000000000000000081526004016101059190610531565b60405180910390fd5b61011d8161012360201b60201c565b5061054a565b5f60075f9054906101000a900473ffffffffffffffffffffffffffffffffffffffff1690508160075f6101000a81548173ffffffffffffffffffffffffffffffffffffffff021916908373ffffffffffffffffffffffffffffffffffffffff1602179055508173ffffffffffffffffffffffffffffffffffffffff168173ffffffffffffffffffffffffffffffffffffffff167f8be0079c531659141344cd1fd0a4f28419497f9722a3daafe3b4186f6b6457e060405160405180910390a35050565b5f81519050919050565b7f4e487b71000000000000000000000000000000000000000000000000000000005f52604160045260245ffd5b7f4e487b71000000000000000000000000000000000000000000000000000000005f52602260045260245ffd5b5f600282049050600182168061026157607f821691505b6020821081036102745761027361021d565b5b50919050565b5f819050815f5260205f209050919050565b5f6020601f8301049050919050565b5f82821b905092915050565b5f600883026102d67fffffffffffffffffffffffffffffffffffffffffffffffffffffffffffffffff8261029b565b6102e0868361029b565b95508019841693508086168417925050509392505050565b5f819050919050565b5f819050919050565b5f61032461031f61031a846102f8565b610301565b6102f8565b9050919050565b5f819050919050565b61033d8361030a565b6103516103498261032b565b8484546102a7565b825550505050565b5f5f905090565b610368610359565b610373818484610334565b505050565b5b818110156103965761038b5f82610360565b600181019050610379565b5050565b601f8211156103db576103ac8161027a565b6103b58461028c565b810160208510156103c4578190505b6103d86103d08561028c565b830182610378565b50505b505050565b5f82821c905092915050565b5f6103fb5f19846008026103e0565b1980831691505092915050565b5f61041383836103ec565b9150826002028217905092915050565b61042c826101e6565b67ffffffffffffffff811115610445576104446101f0565b5b61044f825461024a565b61045a82828561039a565b5f60209050601f83116001811461048b575f8415610479578287015190505b6104838582610408565b8655506104ea565b601f1984166104998661027a565b5f5b828110156104c05784890151825560018201915060208501945060208101905061049b565b868310156104dd57848901516104d9601f8916826103ec565b8355505b6001600288020188555050505b505050505050565b5f73ffffffffffffffffffffffffffffffffffffffff82169050919050565b5f61051b826104f2565b9050919050565b61052b81610511565b82525050565b5f6020820190506105445f830184610522565b92915050565b612585806105575f395ff3fe608060405234801561000f575f5ffd5b5060043610610114575f3560e01c806375794a3c116100a0578063b88d4fde1161006f578063b88d4fde146102ca578063c87b56dd146102e6578063d0def52114610316578063e985e9c514610346578063f2fde38b1461037657610114565b806375794a3c146102545780638da5cb5b1461027257806395d89b4114610290578063a22cb465146102ae57610114565b806323b872dd116100e757806323b872dd146101b257806342842e0e146101ce5780636352211e146101ea57806370a082311461021a578063715018a61461024a57610114565b806301ffc9a71461011857806306fdde0314610148578063081812fc14610166578063095ea7b314610196575b5f5ffd5b610132600480360381019061012d9190611a55565b610392565b60405161013f9190611a9a565b60405180910390f35b6101506103f2565b60405161015d9190611b23565b60405180910390f35b610180600480360381019061017b9190611b76565b610481565b60405161018d9190611be0565b60405180910390f35b6101b060048036038101906101ab9190611c23565b61049c565b005b6101cc60048036038101906101c79190611c61565b6104b2565b005b6101e860048036038101906101e39190611c61565b6105b1565b005b61020460048036038101906101ff9190611b76565b6105d0565b6040516102119190611be0565b60405180910390f35b610234600480360381019061022f9190611cb1565b6105e1565b6040516102419190611ceb565b60405180910390f35b610252610697565b005b61025c6106aa565b6040516102699190611ceb565b60405180910390f35b61027a6106b0565b6040516102879190611be0565b60405180910390f35b6102986106d8565b6040516102a59190611b23565b60405180910390f35b6102c860048036038101906102c39190611d2e565b610768565b005b6102e460048036038101906102df9190611e98565b61077e565b005b61030060048036038101906102fb9190611b76565b6107a3565b60405161030d9190611b23565b60405180910390f35b610330600480360381019061032b9190611fb6565b6108ae565b60405161033d9190611ceb565b60405180910390f35b610360600480360381019061035b9190612010565b6108f2565b60405161036d9190611a9a565b60405180910390f35b610390600480360381019061038b9190611cb1565b610980565b005b5f634906490660e01b7bffffffffffffffffffffffffffffffffffffffffffffffffffffffff1916827bffffffffffffffffffffffffffffffffffffffffffffffffffffffff191614806103eb57506103ea82610a04565b5b9050919050565b60605f80546104009061207b565b80601f016020809104026020016040519081016040528092919081815260200182805461042c9061207b565b80156104775780601f1061044e57610100808354040283529160200191610477565b820191905f5260205f20905b81548152906001019060200180831161045a57829003601f168201915b5050505050905090565b5f61048b82610ae5565b5061049582610b6b565b9050919050565b6104ae82826104a9610ba4565b610bab565b5050565b5f73ffffffffffffffffffffffffffffffffffffffff168273ffffffffffffffffffffffffffffffffffffffff1603610522575f6040517f64a0ae920000000000000000000000000000000000000000000000000000000081526004016105199190611be0565b60405180910390fd5b5f6105358383610530610ba4565b610bbd565b90508373ffffffffffffffffffffffffffffffffffffffff168173ffffffffffffffffffffffffffffffffffffffff16146105ab578382826040517f64283d7b0000000000000000000000000000000000000000000000000000000081526004016105a2939291906120ab565b60405180910390fd5b50505050565b6105cb83838360405180602001604052805f81525061077e565b505050565b5f6105da82610ae5565b9050919050565b5f5f73ffffffffffffffffffffffffffffffffffffffff168273ffffffffffffffffffffffffffffffffffffffff1603610652575f6040517f89c62b640000000000000000000000000000000000000000000000000000000081526004016106499190611be0565b60405180910390fd5b60035f8373ffffffffffffffffffffffffffffffffffffffff1673ffffffffffffffffffffffffffffffffffffffff1681526020019081526020015f20549050919050565b61069f610dc8565b6106a85f610e4f565b565b60085481565b5f60075f9054906101000a900473ffffffffffffffffffffffffffffffffffffffff16905090565b6060600180546106e79061207b565b80601f01602080910402602001604051908101604052809291908181526020018280546107139061207b565b801561075e5780601f106107355761010080835404028352916020019161075e565b820191905f5260205f20905b81548152906001019060200180831161074157829003601f168201915b5050505050905090565b61077a610773610ba4565b8383610f12565b5050565b6107898484846104b2565b61079d610794610ba4565b8585858561107b565b50505050565b60606107ae82610ae5565b505f60065f8481526020019081526020015f2080546107cc9061207b565b80601f01602080910402602001604051908101604052809291908181526020018280546107f89061207b565b80156108435780601f1061081a57610100808354040283529160200191610843565b820191905f5260205f20905b81548152906001019060200180831161082657829003601f168201915b505050505090505f610853611227565b90505f8151036108675781925050506108a9565b5f8251111561089b57808260405160200161088392919061211a565b604051602081830303815290604052925050506108a9565b6108a48461123d565b925050505b919050565b5f6108b7610dc8565b5f60085490506108c784826112a3565b6108d18184611396565b60085f8154809291906108e39061216a565b91905055508091505092915050565b5f60055f8473ffffffffffffffffffffffffffffffffffffffff1673ffffffffffffffffffffffffffffffffffffffff1681526020019081526020015f205f8373ffffffffffffffffffffffffffffffffffffffff1673ffffffffffffffffffffffffffffffffffffffff1681526020019081526020015f205f9054906101000a900460ff16905092915050565b610988610dc8565b5f73ffffffffffffffffffffffffffffffffffffffff168173ffffffffffffffffffffffffffffffffffffffff16036109f8575f6040517f1e4fbdf70000000000000000000000000000000000000000000000000000000081526004016109ef9190611be0565b60405180910390fd5b610a0181610e4f565b50565b5f7f80ac58cd000000000000000000000000000000000000000000000000000000007bffffffffffffffffffffffffffffffffffffffffffffffffffffffff1916827bffffffffffffffffffffffffffffffffffffffffffffffffffffffff19161480610ace57507f5b5e139f000000000000000000000000000000000000000000000000000000007bffffffffffffffffffffffffffffffffffffffffffffffffffffffff1916827bffffffffffffffffffffffffffffffffffffffffffffffffffffffff1916145b80610ade5750610add826113f0565b5b9050919050565b5f5f610af083611459565b90505f73ffffffffffffffffffffffffffffffffffffffff168173ffffffffffffffffffffffffffffffffffffffff1603610b6257826040517f7e273289000000000000000000000000000000000000000000000000000000008152600401610b599190611ceb565b60405180910390fd5b80915050919050565b5f60045f8381526020019081526020015f205f9054906101000a900473ffffffffffffffffffffffffffffffffffffffff169050919050565b5f33905090565b610bb88383836001611492565b505050565b5f5f610bc884611459565b90505f73ffffffffffffffffffffffffffffffffffffffff168373ffffffffffffffffffffffffffffffffffffffff1614610c0957610c08818486611651565b5b5f73ffffffffffffffffffffffffffffffffffffffff168173ffffffffffffffffffffffffffffffffffffffff1614610c9457610c485f855f5f611492565b600160035f8373ffffffffffffffffffffffffffffffffffffffff1673ffffffffffffffffffffffffffffffffffffffff1681526020019081526020015f205f82825403925050819055505b5f73ffffffffffffffffffffffffffffffffffffffff168573ffffffffffffffffffffffffffffffffffffffff1614610d1357600160035f8773ffffffffffffffffffffffffffffffffffffffff1673ffffffffffffffffffffffffffffffffffffffff1681526020019081526020015f205f82825401925050819055505b8460025f8681526020019081526020015f205f6101000a81548173ffffffffffffffffffffffffffffffffffffffff021916908373ffffffffffffffffffffffffffffffffffffffff160217905550838573ffffffffffffffffffffffffffffffffffffffff168273ffffffffffffffffffffffffffffffffffffffff167fddf252ad1be2c89b69c2b068fc378daa952ba7f163c4a11628f55a4df523b3ef60405160405180910390a4809150509392505050565b610dd0610ba4565b73ffffffffffffffffffffffffffffffffffffffff16610dee6106b0565b73ffffffffffffffffffffffffffffffffffffffff1614610e4d57610e11610ba4565b6040517f118cdaa7000000000000000000000000000000000000000000000000000000008152600401610e449190611be0565b60405180910390fd5b565b5f60075f9054906101000a900473ffffffffffffffffffffffffffffffffffffffff1690508160075f6101000a81548173ffffffffffffffffffffffffffffffffffffffff021916908373ffffffffffffffffffffffffffffffffffffffff1602179055508173ffffffffffffffffffffffffffffffffffffffff168173ffffffffffffffffffffffffffffffffffffffff167f8be0079c531659141344cd1fd0a4f28419497f9722a3daafe3b4186f6b6457e060405160405180910390a35050565b5f73ffffffffffffffffffffffffffffffffffffffff168273ffffffffffffffffffffffffffffffffffffffff1603610f8257816040517f5b08ba18000000000000000000000000000000000000000000000000000000008152600401610f799190611be0565b60405180910390fd5b8060055f8573ffffffffffffffffffffffffffffffffffffffff1673ffffffffffffffffffffffffffffffffffffffff1681526020019081526020015f205f8473ffffffffffffffffffffffffffffffffffffffff1673ffffffffffffffffffffffffffffffffffffffff1681526020019081526020015f205f6101000a81548160ff0219169083151502179055508173ffffffffffffffffffffffffffffffffffffffff168373ffffffffffffffffffffffffffffffffffffffff167f17307eab39ab6107e8899845ad3d59bd9653f200f220920489ca2b5937696c318360405161106e9190611a9a565b60405180910390a3505050565b5f8373ffffffffffffffffffffffffffffffffffffffff163b1115611220578273ffffffffffffffffffffffffffffffffffffffff1663150b7a02868685856040518563ffffffff1660e01b81526004016110d99493929190612203565b6020604051808303815f875af192505050801561111457506040513d601f19601f820116820180604052508101906111119190612261565b60015b611195573d805f8114611142576040519150601f19603f3d011682016040523d82523d5f602084013e611147565b606091505b505f81510361118d57836040517f64a0ae920000000000000000000000000000000000000000000000000000000081526004016111849190611be0565b60405180910390fd5b805181602001fd5b63150b7a0260e01b7bffffffffffffffffffffffffffffffffffffffffffffffffffffffff1916817bffffffffffffffffffffffffffffffffffffffffffffffffffffffff19161461121e57836040517f64a0ae920000000000000000000000000000000000000000000000000000000081526004016112159190611be0565b60405180910390fd5b505b5050505050565b606060405180602001604052805f815250905090565b606061124882610ae5565b505f611252611227565b90505f8151116112705760405180602001604052805f81525061129b565b8061127a84611714565b60405160200161128b92919061211a565b6040516020818303038152906040525b915050919050565b5f73ffffffffffffffffffffffffffffffffffffffff168273ffffffffffffffffffffffffffffffffffffffff1603611313575f6040517f64a0ae9200000000000000000000000000000000000000000000000000000000815260040161130a9190611be0565b60405180910390fd5b5f61131f83835f610bbd565b90505f73ffffffffffffffffffffffffffffffffffffffff168173ffffffffffffffffffffffffffffffffffffffff1614611391575f6040517f73c6ac6e0000000000000000000000000000000000000000000000000000000081526004016113889190611be0565b60405180910390fd5b505050565b8060065f8481526020019081526020015f2090816113b4919061242c565b507ff8e1a15aba9398e019f0b49df1a4fde98ee17ae345cb5f6b5e2c27f5033e8ce7826040516113e49190611ceb565b60405180910390a15050565b5f7f01ffc9a7000000000000000000000000000000000000000000000000000000007bffffffffffffffffffffffffffffffffffffffffffffffffffffffff1916827bffffffffffffffffffffffffffffffffffffffffffffffffffffffff1916149050919050565b5f60025f8381526020019081526020015f205f9054906101000a900473ffffffffffffffffffffffffffffffffffffffff169050919050565b80806114ca57505f73ffffffffffffffffffffffffffffffffffffffff168273ffffffffffffffffffffffffffffffffffffffff1614155b156115fc575f6114d984610ae5565b90505f73ffffffffffffffffffffffffffffffffffffffff168373ffffffffffffffffffffffffffffffffffffffff161415801561154357508273ffffffffffffffffffffffffffffffffffffffff168173ffffffffffffffffffffffffffffffffffffffff1614155b8015611556575061155481846108f2565b155b1561159857826040517fa9fbf51f00000000000000000000000000000000000000000000000000000000815260040161158f9190611be0565b60405180910390fd5b81156115fa57838573ffffffffffffffffffffffffffffffffffffffff168273ffffffffffffffffffffffffffffffffffffffff167f8c5be1e5ebec7d5bd14f71427d1e84f3dd0314c0f7b2291e5b200ac8c7c3b92560405160405180910390a45b505b8360045f8581526020019081526020015f205f6101000a81548173ffffffffffffffffffffffffffffffffffffffff021916908373ffffffffffffffffffffffffffffffffffffffff16021790555050505050565b61165c8383836117de565b61170f575f73ffffffffffffffffffffffffffffffffffffffff168373ffffffffffffffffffffffffffffffffffffffff16036116d057806040517f7e2732890000000000000000000000000000000000000000000000000000000081526004016116c79190611ceb565b60405180910390fd5b81816040517f177e802f0000000000000000000000000000000000000000000000000000000081526004016117069291906124fb565b60405180910390fd5b505050565b60605f60016117228461189e565b0190505f8167ffffffffffffffff8111156117405761173f611d74565b5b6040519080825280601f01601f1916602001820160405280156117725781602001600182028036833780820191505090505b5090505f82602001820190505b6001156117d3578080600190039150507f3031323334353637383961626364656600000000000000000000000000000000600a86061a8153600a85816117c8576117c7612522565b5b0494505f850361177f575b819350505050919050565b5f5f73ffffffffffffffffffffffffffffffffffffffff168373ffffffffffffffffffffffffffffffffffffffff161415801561189557508273ffffffffffffffffffffffffffffffffffffffff168473ffffffffffffffffffffffffffffffffffffffff161480611856575061185584846108f2565b5b8061189457508273ffffffffffffffffffffffffffffffffffffffff1661187c83610b6b565b73ffffffffffffffffffffffffffffffffffffffff16145b5b90509392505050565b5f5f5f90507a184f03e93ff9f4daa797ed6e38ed64bf6a1f01000000000000000083106118fa577a184f03e93ff9f4daa797ed6e38ed64bf6a1f01000000000000000083816118f0576118ef612522565b5b0492506040810190505b6d04ee2d6d415b85acef81000000008310611937576d04ee2d6d415b85acef8100000000838161192d5761192c612522565b5b0492506020810190505b662386f26fc10000831061196657662386f26fc10000838161195c5761195b612522565b5b0492506010810190505b6305f5e100831061198f576305f5e100838161198557611984612522565b5b0492506008810190505b61271083106119b45761271083816119aa576119a9612522565b5b0492506004810190505b606483106119d757606483816119cd576119cc612522565b5b0492506002810190505b600a83106119e6576001810190505b80915050919050565b5f604051905090565b5f5ffd5b5f5ffd5b5f7fffffffff0000000000000000000000000000000000000000000000000000000082169050919050565b611a3481611a00565b8114611a3e575f5ffd5b50565b5f81359050611a4f81611a2b565b92915050565b5f60208284031215611a6a57611a696119f8565b5b5f611a7784828501611a41565b91505092915050565b5f8115159050919050565b611a9481611a80565b82525050565b5f602082019050611aad5f830184611a8b565b92915050565b5f81519050919050565b5f82825260208201905092915050565b8281835e5f83830152505050565b5f601f19601f8301169050919050565b5f611af582611ab3565b611aff8185611abd565b9350611b0f818560208601611acd565b611b1881611adb565b840191505092915050565b5f6020820190508181035f830152611b3b8184611aeb565b905092915050565b5f819050919050565b611b5581611b43565b8114611b5f575f5ffd5b50565b5f81359050611b7081611b4c565b92915050565b5f60208284031215611b8b57611b8a6119f8565b5b5f611b9884828501611b62565b91505092915050565b5f73ffffffffffffffffffffffffffffffffffffffff82169050919050565b5f611bca82611ba1565b9050919050565b611bda81611bc0565b82525050565b5f602082019050611bf35f830184611bd1565b92915050565b611c0281611bc0565b8114611c0c575f5ffd5b50565b5f81359050611c1d81611bf9565b92915050565b5f5f60408385031215611c3957611c386119f8565b5b5f611c4685828601611c0f565b9250506020611c5785828601611b62565b9150509250929050565b5f5f5f60608486031215611c7857611c776119f8565b5b5f611c8586828701611c0f565b9350506020611c9686828701611c0f565b9250506040611ca786828701611b62565b9150509250925092565b5f60208284031215611cc657611cc56119f8565b5b5f611cd384828501611c0f565b91505092915050565b611ce581611b43565b82525050565b5f602082019050611cfe5f830184611cdc565b92915050565b611d0d81611a80565b8114611d17575f5ffd5b50565b5f81359050611d2881611d04565b92915050565b5f5f60408385031215611d4457611d436119f8565b5b5f611d5185828601611c0f565b9250506020611d6285828601611d1a565b9150509250929050565b5f5ffd5b5f5ffd5b7f4e487b71000000000000000000000000000000000000000000000000000000005f52604160045260245ffd5b611daa82611adb565b810181811067ffffffffffffffff82111715611dc957611dc8611d74565b5b80604052505050565b5f611ddb6119ef565b9050611de78282611da1565b919050565b5f67ffffffffffffffff821115611e0657611e05611d74565b5b611e0f82611adb565b9050602081019050919050565b828183375f83830152505050565b5f611e3c611e3784611dec565b611dd2565b905082815260208101848484011115611e5857611e57611d70565b5b611e63848285611e1c565b509392505050565b5f82601f830112611e7f57611e7e611d6c565b5b8135611e8f848260208601611e2a565b91505092915050565b5f5f5f5f60808587031215611eb057611eaf6119f8565b5b5f611ebd87828801611c0f565b9450506020611ece87828801611c0f565b9350506040611edf87828801611b62565b925050606085013567ffffffffffffffff811115611f0057611eff6119fc565b5b611f0c87828801611e6b565b91505092959194509250565b5f67ffffffffffffffff821115611f3257611f31611d74565b5b611f3b82611adb565b9050602081019050919050565b5f611f5a611f5584611f18565b611dd2565b905082815260208101848484011115611f7657611f75611d70565b5b611f81848285611e1c565b509392505050565b5f82601f830112611f9d57611f9c611d6c565b5b8135611fad848260208601611f48565b91505092915050565b5f5f60408385031215611fcc57611fcb6119f8565b5b5f611fd985828601611c0f565b925050602083013567ffffffffffffffff811115611ffa57611ff96119fc565b5b61200685828601611f89565b9150509250929050565b5f5f60408385031215612026576120256119f8565b5b5f61203385828601611c0f565b925050602061204485828601611c0f565b9150509250929050565b7f4e487b71000000000000000000000000000000000000000000000000000000005f52602260045260245ffd5b5f600282049050600182168061209257607f821691505b6020821081036120a5576120a461204e565b5b50919050565b5f6060820190506120be5f830186611bd1565b6120cb6020830185611cdc565b6120d86040830184611bd1565b949350505050565b5f81905092915050565b5f6120f482611ab3565b6120fe81856120e0565b935061210e818560208601611acd565b80840191505092915050565b5f61212582856120ea565b915061213182846120ea565b91508190509392505050565b7f4e487b71000000000000000000000000000000000000000000000000000000005f52601160045260245ffd5b5f61217482611b43565b91507fffffffffffffffffffffffffffffffffffffffffffffffffffffffffffffffff82036121a6576121a561213d565b5b600182019050919050565b5f81519050919050565b5f82825260208201905092915050565b5f6121d5826121b1565b6121df81856121bb565b93506121ef818560208601611acd565b6121f881611adb565b840191505092915050565b5f6080820190506122165f830187611bd1565b6122236020830186611bd1565b6122306040830185611cdc565b818103606083015261224281846121cb565b905095945050505050565b5f8151905061225b81611a2b565b92915050565b5f60208284031215612276576122756119f8565b5b5f6122838482850161224d565b91505092915050565b5f819050815f5260205f209050919050565b5f6020601f8301049050919050565b5f82821b905092915050565b5f600883026122e87fffffffffffffffffffffffffffffffffffffffffffffffffffffffffffffffff826122ad565b6122f286836122ad565b95508019841693508086168417925050509392505050565b5f819050919050565b5f61232d61232861232384611b43565b61230a565b611b43565b9050919050565b5f819050919050565b61234683612313565b61235a61235282612334565b8484546122b9565b825550505050565b5f5f905090565b612371612362565b61237c81848461233d565b505050565b5b8181101561239f576123945f82612369565b600181019050612382565b5050565b601f8211156123e4576123b58161228c565b6123be8461229e565b810160208510156123cd578190505b6123e16123d98561229e565b830182612381565b50505b505050565b5f82821c905092915050565b5f6124045f19846008026123e9565b1980831691505092915050565b5f61241c83836123f5565b9150826002028217905092915050565b61243582611ab3565b67ffffffffffffffff81111561244e5761244d611d74565b5b612458825461207b565b6124638282856123a3565b5f60209050601f831160018114612494575f8415612482578287015190505b61248c8582612411565b8655506124f3565b601f1984166124a28661228c565b5f5b828110156124c9578489015182556001820191506020850194506020810190506124a4565b868310156124e657848901516124e2601f8916826123f5565b8355505b6001600288020188555050505b505050505050565b5f60408201905061250e5f830185611bd1565b61251b6020830184611cdc565b9392505050565b7f4e487b71000000000000000000000000000000000000000000000000000000005f52601260045260245ffdfea26469706673582212208f5447b607c1531b53ca8af0beb00fd539edbdb2b7ee4ba0d7122f33b1ed027264736f6c634300081e0033","linkReferences":{}},"methodIdentifiers":{"approve(address,uint256)":"095ea7b3","balanceOf(address)":"70a08231","getApproved(uint256)":"081812fc","isApprovedForAll(address,address)":"e985e9c5","mint(address,string)":"d0def521","name()":"06fdde03","nextTokenId()":"75794a3c","owner()":"8da5cb5b","ownerOf(uint256)":"6352211e","renounceOwnership()":"715018a6","safeTransferFrom(address,address,uint256)":"42842e0e","safeTransferFrom(address,address,uint256,bytes)":"b88d4fde","setApprovalForAll(address,bool)":"a22cb465","supportsInterface(bytes4)":"01ffc9a7","symbol()":"95d89b41","tokenURI(uint256)":"c87b56dd","transferFrom(address,address,uint256)":"23b872dd","transferOwnership(address)":"f2fde38b"},"id":38}