{"abi":[{"type":"constructor","inputs":[],"stateMutability":"nonpayable"},{"type":"function","name":"allowance","inputs":[{"name":"owner","type":"address","internalType":"address"},{"name":"spender","type":"address","internalType":"address"}],"outputs":[{"name":"","type":"uint256","internalType":"uint256"}],"stateMutability":"view"},{"type":"function","name":"approve","inputs":[{"name":"spender","type":"address","internalType":"address"},{"name":"value","type":"uint256","internalType":"uint256"}],"outputs":[{"name":"","type":"bool","internalType":"bool"}],"stateMutability":"nonpayable"},{"type":"function","name":"balanceOf","inputs":[{"name":"account","type":"address","internalType":"address"}],"outputs":[{"name":"","type":"uint256","internalType":"uint256"}],"stateMutability":"view"},{"type":"function","name":"decimals","inputs":[],"outputs":[{"name":"","type":"uint8","internalType":"uint8"}],"stateMutability":"view"},{"type":"function","name":"name","inputs":[],"outputs":[{"name":"","type":"string","internalType":"string"}],"stateMutability":"view"},{"type":"function","name":"owner","inputs":[],"outputs":[{"name":"","type":"address","internalType":"address"}],"stateMutability":"view"},{"type":"function","name":"renounceOwnership","inputs":[],"outputs":[],"stateMutability":"nonpayable"},{"type":"function","name":"symbol","inputs":[],"outputs":[{"name":"","type":"string","internalType":"string"}],"stateMutability":"view"},{"type":"function","name":"totalSupply","inputs":[],"outputs":[{"name":"","type":"uint256","internalType":"uint256"}],"stateMutability":"view"},{"type":"function","name":"transfer","inputs":[{"name":"to","type":"address","internalType":"address"},{"name":"value","type":"uint256","internalType":"uint256"}],"outputs":[{"name":"","type":"bool","internalType":"bool"}],"stateMutability":"nonpayable"},{"type":"function","name":"transferFrom","inputs":[{"name":"from","type":"address","internalType":"address"},{"name":"to","type":"address","internalType":"address"},{"name":"value","type":"uint256","internalType":"uint256"}],"outputs":[{"name":"","type":"bool","internalType":"bool"}],"stateMutability":"nonpayable"},{"type":"function","name":"transferOwnership","inputs":[{"name":"newOwner","type":"address","internalType":"address"}],"outputs":[],"stateMutability":"nonpayable"},{"type":"event","name":"Approval","inputs":[{"name":"owner","type":"address","indexed":true,"internalType":"address"},{"name":"spender","type":"address","indexed":true,"internalType":"address"},{"name":"value","type":"uint256","indexed":false,"internalType":"uint256"}],"anonymous":false},{"type":"event","name":"OwnershipTransferred","inputs":[{"name":"previousOwner","type":"address","indexed":true,"internalType":"address"},{"name":"newOwner","type":"address","indexed":true,"internalType":"address"}],"anonymous":false},{"type":"event","name":"Transfer","inputs":[{"name":"from","type":"address","indexed":true,"internalType":"address"},{"name":"to","type":"address","indexed":true,"internalType":"address"},{"name":"value","type":"uint256","indexed":false,"internalType":"uint256"}],"anonymous":false},{"type":"error","name":"ERC20InsufficientAllowance","inputs":[{"name":"spender","type":"address","internalType":"address"},{"name":"allowance","type":"uint256","internalType":"uint256"},{"name":"needed","type":"uint256","internalType":"uint256"}]},{"type":"error","name":"ERC20InsufficientBalance","inputs":[{"name":"sender","type":"address","internalType":"address"},{"name":"balance","type":"uint256","internalType":"uint256"},{"name":"needed","type":"uint256","internalType":"uint256"}]},{"type":"error","name":"ERC20InvalidApprover","inputs":[{"name":"approver","type":"address","internalType":"address"}]},{"type":"error","name":"ERC20InvalidReceiver","inputs":[{"name":"receiver","type":"address","internalType":"address"}]},{"type":"error","name":"ERC20InvalidSender","inputs":[{"name":"sender","type":"address","internalType":"address"}]},{"type":"error","name":"ERC20InvalidSpender","inputs":[{"name":"spender","type":"address","internalType":"address"}]},{"type":"error","name":"OwnableInvalidOwner","inputs":[{"name":"owner","type":"address","internalType":"address"}]},{"type":"error","name":"OwnableUnauthorizedAccount","inputs":[{"name":"account","type":"address","internalType":"address"}]}],"bytecode":{"object":"0x608060405234801561000f575f5ffd5b50336040518060400160405280600d81526020017f496e67726573736f546f6b656e000000000000000000000000000000000000008152506040518060400160405280600381526020017f494e470000000000000000000000000000000000000000000000000000000000815250816003908161008c9190610701565b50806004908161009c9190610701565b5050505f73ffffffffffffffffffffffffffffffffffffffff168173ffffffffffffffffffffffffffffffffffffffff160361010f575f6040517f1e4fbdf7000000000000000000000000000000000000000000000000000000008152600401610106919061080f565b60405180910390fd5b61011e8161015b60201b60201c565b506101563361013161021e60201b60201c565b600a61013d9190610990565b620f424061014b91906109da565b61022660201b60201c565b610aab565b5f60055f9054906101000a900473ffffffffffffffffffffffffffffffffffffffff1690508160055f6101000a81548173ffffffffffffffffffffffffffffffffffffffff021916908373ffffffffffffffffffffffffffffffffffffffff1602179055508173ffffffffffffffffffffffffffffffffffffffff168173ffffffffffffffffffffffffffffffffffffffff167f8be0079c531659141344cd1fd0a4f28419497f9722a3daafe3b4186f6b6457e060405160405180910390a35050565b5f6012905090565b5f73ffffffffffffffffffffffffffffffffffffffff168273ffffffffffffffffffffffffffffffffffffffff1603610296575f6040517fec442f0500000000000000000000000000000000000000000000000000000000815260040161028d919061080f565b60405180910390fd5b6102a75f83836102ab60201b60201c565b5050565b5f73ffffffffffffffffffffffffffffffffffffffff168373ffffffffffffffffffffffffffffffffffffffff16036102fb578060025f8282546102ef9190610a1b565b925050819055506103c9565b5f5f5f8573ffffffffffffffffffffffffffffffffffffffff1673ffffffffffffffffffffffffffffffffffffffff1681526020019081526020015f2054905081811015610384578381836040517fe450d38c00000000000000000000000000000000000000000000000000000000815260040161037b93929190610a5d565b60405180910390fd5b8181035f5f8673ffffffffffffffffffffffffffffffffffffffff1673ffffffffffffffffffffffffffffffffffffffff1681526020019081526020015f2081905550505b5f73ffffffffffffffffffffffffffffffffffffffff168273ffffffffffffffffffffffffffffffffffffffff1603610410578060025f828254039250508190555061045a565b805f5f8473ffffffffffffffffffffffffffffffffffffffff1673ffffffffffffffffffffffffffffffffffffffff1681526020019081526020015f205f82825401925050819055505b8173ffffffffffffffffffffffffffffffffffffffff168373ffffffffffffffffffffffffffffffffffffffff167fddf252ad1be2c89b69c2b068fc378daa952ba7f163c4a11628f55a4df523b3ef836040516104b79190610a92565b60405180910390a3505050565b5f81519050919050565b7f4e487b71000000000000000000000000000000000000000000000000000000005f52604160045260245ffd5b7f4e487b71000000000000000000000000000000000000000000000000000000005f52602260045260245ffd5b5f600282049050600182168061053f57607f821691505b602082108103610552576105516104fb565b5b50919050565b5f819050815f5260205f209050919050565b5f6020601f8301049050919050565b5f82821b905092915050565b5f600883026105b47fffffffffffffffffffffffffffffffffffffffffffffffffffffffffffffffff82610579565b6105be8683610579565b95508019841693508086168417925050509392505050565b5f819050919050565b5f819050919050565b5f6106026105fd6105f8846105d6565b6105df565b6105d6565b9050919050565b5f819050919050565b61061b836105e8565b61062f61062782610609565b848454610585565b825550505050565b5f5f905090565b610646610637565b610651818484610612565b505050565b5b81811015610674576106695f8261063e565b600181019050610657565b5050565b601f8211156106b95761068a81610558565b6106938461056a565b810160208510156106a2578190505b6106b66106ae8561056a565b830182610656565b50505b505050565b5f82821c905092915050565b5f6106d95f19846008026106be565b1980831691505092915050565b5f6106f183836106ca565b9150826002028217905092915050565b61070a826104c4565b67ffffffffffffffff811115610723576107226104ce565b5b61072d8254610528565b610738828285610678565b5f60209050601f831160018114610769575f8415610757578287015190505b61076185826106e6565b8655506107c8565b601f19841661077786610558565b5f5b8281101561079e57848901518255600182019150602085019450602081019050610779565b868310156107bb57848901516107b7601f8916826106ca565b8355505b6001600288020188555050505b505050505050565b5f73ffffffffffffffffffffffffffffffffffffffff82169050919050565b5f6107f9826107d0565b9050919050565b610809816107ef565b82525050565b5f6020820190506108225f830184610800565b92915050565b7f4e487b71000000000000000000000000000000000000000000000000000000005f52601160045260245ffd5b5f8160011c9050919050565b5f5f8291508390505b60018511156108aa5780860481111561088657610885610828565b5b60018516156108955780820291505b80810290506108a385610855565b945061086a565b94509492505050565b5f826108c2576001905061097d565b816108cf575f905061097d565b81600181146108e557600281146108ef5761091e565b600191505061097d565b60ff84111561090157610900610828565b5b8360020a91508482111561091857610917610828565b5b5061097d565b5060208310610133831016604e8410600b84101617156109535782820a90508381111561094e5761094d610828565b5b61097d565b6109608484846001610861565b9250905081840481111561097757610976610828565b5b81810290505b9392505050565b5f60ff82169050919050565b5f61099a826105d6565b91506109a583610984565b92506109d27fffffffffffffffffffffffffffffffffffffffffffffffffffffffffffffffff84846108b3565b905092915050565b5f6109e4826105d6565b91506109ef836105d6565b92508282026109fd816105d6565b91508282048414831517610a1457610a13610828565b5b5092915050565b5f610a25826105d6565b9150610a30836105d6565b9250828201905080821115610a4857610a47610828565b5b92915050565b610a57816105d6565b82525050565b5f606082019050610a705f830186610800565b610a7d6020830185610a4e565b610a8a6040830184610a4e565b949350505050565b5f602082019050610aa55f830184610a4e565b92915050565b61105080610ab85f395ff3fe608060405234801561000f575f5ffd5b50600436106100b2575f3560e01c8063715018a61161006f578063715018a6146101a05780638da5cb5b146101aa57806395d89b41146101c8578063a9059cbb146101e6578063dd62ed3e14610216578063f2fde38b14610246576100b2565b806306fdde03146100b6578063095ea7b3146100d457806318160ddd1461010457806323b872dd14610122578063313ce5671461015257806370a0823114610170575b5f5ffd5b6100be610262565b6040516100cb9190610cc9565b60405180910390f35b6100ee60048036038101906100e99190610d7a565b6102f2565b6040516100fb9190610dd2565b60405180910390f35b61010c610314565b6040516101199190610dfa565b60405180910390f35b61013c60048036038101906101379190610e13565b61031d565b6040516101499190610dd2565b60405180910390f35b61015a61034b565b6040516101679190610e7e565b60405180910390f35b61018a60048036038101906101859190610e97565b610353565b6040516101979190610dfa565b60405180910390f35b6101a8610398565b005b6101b26103ab565b6040516101bf9190610ed1565b60405180910390f35b6101d06103d3565b6040516101dd9190610cc9565b60405180910390f35b61020060048036038101906101fb9190610d7a565b610463565b60405161020d9190610dd2565b60405180910390f35b610230600480360381019061022b9190610eea565b610485565b60405161023d9190610dfa565b60405180910390f35b610260600480360381019061025b9190610e97565b610507565b005b60606003805461027190610f55565b80601f016020809104026020016040519081016040528092919081815260200182805461029d90610f55565b80156102e85780601f106102bf576101008083540402835291602001916102e8565b820191905f5260205f20905b8154815290600101906020018083116102cb57829003601f168201915b5050505050905090565b5f5f6102fc61058b565b9050610309818585610592565b600191505092915050565b5f600254905090565b5f5f61032761058b565b90506103348582856105a4565b61033f858585610637565b60019150509392505050565b5f6012905090565b5f5f5f8373ffffffffffffffffffffffffffffffffffffffff1673ffffffffffffffffffffffffffffffffffffffff1681526020019081526020015f20549050919050565b6103a0610727565b6103a95f6107ae565b565b5f60055f9054906101000a900473ffffffffffffffffffffffffffffffffffffffff16905090565b6060600480546103e290610f55565b80601f016020809104026020016040519081016040528092919081815260200182805461040e90610f55565b80156104595780601f1061043057610100808354040283529160200191610459565b820191905f5260205f20905b81548152906001019060200180831161043c57829003601f168201915b5050505050905090565b5f5f61046d61058b565b905061047a818585610637565b600191505092915050565b5f60015f8473ffffffffffffffffffffffffffffffffffffffff1673ffffffffffffffffffffffffffffffffffffffff1681526020019081526020015f205f8373ffffffffffffffffffffffffffffffffffffffff1673ffffffffffffffffffffffffffffffffffffffff1681526020019081526020015f2054905092915050565b61050f610727565b5f73ffffffffffffffffffffffffffffffffffffffff168173ffffffffffffffffffffffffffffffffffffffff160361057f575f6040517f1e4fbdf70000000000000000000000000000000000000000000000000000000081526004016105769190610ed1565b60405180910390fd5b610588816107ae565b50565b5f33905090565b61059f8383836001610871565b505050565b5f6105af8484610485565b90507fffffffffffffffffffffffffffffffffffffffffffffffffffffffffffffffff8110156106315781811015610622578281836040517ffb8f41b200000000000000000000000000000000000000000000000000000000815260040161061993929190610f85565b60405180910390fd5b61063084848484035f610871565b5b50505050565b5f73ffffffffffffffffffffffffffffffffffffffff168373ffffffffffffffffffffffffffffffffffffffff16036106a7575f6040517f96c6fd1e00000000000000000000000000000000000000000000000000000000815260040161069e9190610ed1565b60405180910390fd5b5f73ffffffffffffffffffffffffffffffffffffffff168273ffffffffffffffffffffffffffffffffffffffff1603610717575f6040517fec442f0500000000000000000000000000000000000000000000000000000000815260040161070e9190610ed1565b60405180910390fd5b610722838383610a40565b505050565b61072f61058b565b73ffffffffffffffffffffffffffffffffffffffff1661074d6103ab565b73ffffffffffffffffffffffffffffffffffffffff16146107ac5761077061058b565b6040517f118cdaa70000000000000000000000000000000000000000000000000000000081526004016107a39190610ed1565b60405180910390fd5b565b5f60055f9054906101000a900473ffffffffffffffffffffffffffffffffffffffff1690508160055f6101000a81548173ffffffffffffffffffffffffffffffffffffffff021916908373ffffffffffffffffffffffffffffffffffffffff1602179055508173ffffffffffffffffffffffffffffffffffffffff168173ffffffffffffffffffffffffffffffffffffffff167f8be0079c531659141344cd1fd0a4f28419497f9722a3daafe3b4186f6b6457e060405160405180910390a35050565b5f73ffffffffffffffffffffffffffffffffffffffff168473ffffffffffffffffffffffffffffffffffffffff16036108e1575f6040517fe602df050000000000000000000000000000000000000000000000000000000081526004016108d89190610ed1565b60405180910390fd5b5f73ffffffffffffffffffffffffffffffffffffffff168373ffffffffffffffffffffffffffffffffffffffff1603610951575f6040517f94280d620000000000000000000000000000000000000000000000000000000081526004016109489190610ed1565b60405180910390fd5b8160015f8673ffffffffffffffffffffffffffffffffffffffff1673ffffffffffffffffffffffffffffffffffffffff1681526020019081526020015f205f8573ffffffffffffffffffffffffffffffffffffffff1673ffffffffffffffffffffffffffffffffffffffff1681526020019081526020015f20819055508015610a3a578273ffffffffffffffffffffffffffffffffffffffff168473ffffffffffffffffffffffffffffffffffffffff167f8c5be1e5ebec7d5bd14f71427d1e84f3dd0314c0f7b2291e5b200ac8c7c3b92584604051610a319190610dfa565b60405180910390a35b50505050565b5f73ffffffffffffffffffffffffffffffffffffffff168373ffffffffffffffffffffffffffffffffffffffff1603610a90578060025f828254610a849190610fe7565b92505081905550610b5e565b5f5f5f8573ffffffffffffffffffffffffffffffffffffffff1673ffffffffffffffffffffffffffffffffffffffff1681526020019081526020015f2054905081811015610b19578381836040517fe450d38c000000000000000000000000000000000000000000000000000000008152600401610b1093929190610f85565b60405180910390fd5b8181035f5f8673ffffffffffffffffffffffffffffffffffffffff1673ffffffffffffffffffffffffffffffffffffffff1681526020019081526020015f2081905550505b5f73ffffffffffffffffffffffffffffffffffffffff168273ffffffffffffffffffffffffffffffffffffffff1603610ba5578060025f8282540392505081905550610bef565b805f5f8473ffffffffffffffffffffffffffffffffffffffff1673ffffffffffffffffffffffffffffffffffffffff1681526020019081526020015f205f82825401925050819055505b8173ffffffffffffffffffffffffffffffffffffffff168373ffffffffffffffffffffffffffffffffffffffff167fddf252ad1be2c89b69c2b068fc378daa952ba7f163c4a11628f55a4df523b3ef83604051610c4c9190610dfa565b60405180910390a3505050565b5f81519050919050565b5f82825260208201905092915050565b8281835e5f83830152505050565b5f601f19601f8301169050919050565b5f610c9b82610c59565b610ca58185610c63565b9350610cb5818560208601610c73565b610cbe81610c81565b840191505092915050565b5f6020820190508181035f830152610ce18184610c91565b905092915050565b5f5ffd5b5f73ffffffffffffffffffffffffffffffffffffffff82169050919050565b5f610d1682610ced565b9050919050565b610d2681610d0c565b8114610d30575f5ffd5b50565b5f81359050610d4181610d1d565b92915050565b5f819050919050565b610d5981610d47565b8114610d63575f5ffd5b50565b5f81359050610d7481610d50565b92915050565b5f5f60408385031215610d9057610d8f610ce9565b5b5f610d9d85828601610d33565b9250506020610dae85828601610d66565b9150509250929050565b5f8115159050919050565b610dcc81610db8565b82525050565b5f602082019050610de55f830184610dc3565b92915050565b610df481610d47565b82525050565b5f602082019050610e0d5f830184610deb565b92915050565b5f5f5f60608486031215610e2a57610e29610ce9565b5b5f610e3786828701610d33565b9350506020610e4886828701610d33565b9250506040610e5986828701610d66565b9150509250925092565b5f60ff82169050919050565b610e7881610e63565b82525050565b5f602082019050610e915f830184610e6f565b92915050565b5f60208284031215610eac57610eab610ce9565b5b5f610eb984828501610d33565b91505092915050565b610ecb81610d0c565b82525050565b5f602082019050610ee45f830184610ec2565b92915050565b5f5f60408385031215610f0057610eff610ce9565b5b5f610f0d85828601610d33565b9250506020610f1e85828601610d33565b9150509250929050565b7f4e487b71000000000000000000000000000000000000000000000000000000005f52602260045260245ffd5b5f6002820490506001821680610f6c57607f821691505b602082108103610f7f57610f7e610f28565b5b50919050565b5f606082019050610f985f830186610ec2565b610fa56020830185610deb565b610fb26040830184610deb565b949350505050565b7f4e487b71000000000000000000000000000000000000000000000000000000005f52601160045260245ffd5b5f610ff182610d47565b9150610ffc83610d47565b925082820190508082111561101457611013610fba565b5b9291505056fea2646970667358221220b7dcaf6f847c406a44b1a0a4b96bcd81bf6cb269b572811db335e729937527e864736f6c634300081e0033","linkReferences":{}},"methodIdentifiers":{"allowance(address,address)":"dd62ed3e","approve(address,uint256)":"095ea7b3","balanceOf(address)":"70a08231","decimals()":"313ce567","name()":"06fdde03","owner()":"8da5cb5b","renounceOwnership()":"715018a6","symbol()":"95d89b41","totalSupply()":"18160ddd","transfer(address,uint256)":"a9059cbb","transferFrom(address,address,uint256)":"23b872dd","transferOwnership(address)":"f2fde38b"},"id":43}