{"abi":[{"type":"constructor","inputs":[],"stateMutability":"nonpayable"},{"type":"function","name":"approve","inputs":[{"name":"to","type":"address","internalType":"address"},{"name":"tokenId","type":"uint256","internalType":"uint256"}],"outputs":[],"stateMutability":"nonpayable"},{"type":"function","name":"balanceOf","inputs":[{"name":"owner","type":"address","internalType":"address"}],"outputs":[{"name":"","type":"uint256","internalType":"uint256"}],"stateMutability":"view"},{"type":"function","name":"burn","inputs":[{"name":"tokenId","type":"uint256","internalType":"uint256"}],"outputs":[],"stateMutability":"nonpayable"},{"type":"function","name":"getApproved","inputs":[{"name":"tokenId","type":"uint256","internalType":"uint256"}],"outputs":[{"name":"","type":"address","internalType":"address"}],"stateMutability":"view"},{"type":"function","name":"isApprovedForAll","inputs":[{"name":"owner","type":"address","internalType":"address"},{"name":"operator","type":"address","internalType":"address"}],"outputs":[{"name":"","type":"bool","internalType":"bool"}],"stateMutability":"view"},{"type":"function","name":"mint","inputs":[{"name":"to","type":"address","internalType":"address"},{"name":"tokenURI","type":"string","internalType":"string"}],"outputs":[{"name":"","type":"uint256","internalType":"uint256"}],"stateMutability":"nonpayable"},{"type":"function","name":"name","inputs":[],"outputs":[{"name":"","type":"string","internalType":"string"}],"stateMutability":"view"},{"type":"function","name":"nextTokenId","inputs":[],"outputs":[{"name":"","type":"uint256","internalType":"uint256"}],"stateMutability":"view"},{"type":"function","name":"owner","inputs":[],"outputs":[{"name":"","type":"address","internalType":"address"}],"stateMutability":"view"},{"type":"function","name":"ownerOf","inputs":[{"name":"tokenId","type":"uint256","internalType":"uint256"}],"outputs":[{"name":"","type":"address","internalType":"address"}],"stateMutability":"view"},{"type":"function","name":"renounceOwnership","inputs":[],"outputs":[],"stateMutability":"nonpayable"},{"type":"function","name":"safeTransferFrom","inputs":[{"name":"from","type":"address","internalType":"address"},{"name":"to","type":"address","internalType":"address"},{"name":"tokenId","type":"uint256","internalType":"uint256"}],"outputs":[],"stateMutability":"nonpayable"},{"type":"function","name":"safeTransferFrom","inputs":[{"name":"from","type":"address","internalType":"address"},{"name":"to","type":"address","internalType":"address"},{"name":"tokenId","type":"uint256","internalType":"uint256"},{"name":"data","type":"bytes","internalType":"bytes"}],"outputs":[],"stateMutability":"nonpayable"},{"type":"function","name":"setApprovalForAll","inputs":[{"name":"operator","type":"address","internalType":"address"},{"name":"approved","type":"bool","internalType":"bool"}],"outputs":[],"stateMutability":"nonpayable"},{"type":"function","name":"supportsInterface","inputs":[{"name":"interfaceId","type":"bytes4","internalType":"bytes4"}],"outputs":[{"name":"","type":"bool","internalType":"bool"}],"stateMutability":"view"},{"type":"function","name":"symbol","inputs":[],"outputs":[{"name":"","type":"string","internalType":"string"}],"stateMutability":"view"},{"type":"function","name":"tokenURI","inputs":[{"name":"tokenId","type":"uint256","internalType":"uint256"}],"outputs":[{"name":"","type":"string","internalType":"string"}],"stateMutability":"view"},{"type":"function","name":"transferFrom","inputs":[{"name":"from","type":"address","internalType":"address"},{"name":"to","type":"address","internalType":"address"},{"name":"tokenId","type":"uint256","internalType":"uint256"}],"outputs":[],"stateMutability":"nonpayable"},{"type":"function","name":"transferOwnership","inputs":[{"name":"newOwner","type":"address","internalType":"address"}],"outputs":[],"stateMutability":"nonpayable"},{"type":"event","name":"Approval","inputs":[{"name":"owner","type":"address","indexed":true,"internalType":"address"},{"name":"approved","type":"address","indexed":true,"internalType":"address"},{"name":"tokenId","type":"uint256","indexed":true,"internalType":"uint256"}],"anonymous":false},{"type":"event","name":"ApprovalForAll","inputs":[{"name":"owner","type":"address","indexed":true,"internalType":"address"},{"name":"operator","type":"address","indexed":true,"internalType":"address"},{"name":"approved","type":"bool","indexed":false,"internalType":"bool"}],"anonymous":false},{"type":"event","name":"BatchMetadataUpdate","inputs":[{"name":"_fromTokenId","type":"uint256","indexed":false,"internalType":"uint256"},{"name":"_toTokenId","type":"uint256","indexed":false,"internalType":"uint256"}],"anonymous":false},{"type":"event","name":"MetadataUpdate","inputs":[{"name":"_tokenId","type":"uint256","indexed":false,"internalType":"uint256"}],"anonymous":false},{"type":"event","name":"OwnershipTransferred","inputs":[{"name":"previousOwner","type":"address","indexed":true,"internalType":"address"},{"name":"newOwner","type":"address","indexed":true,"internalType":"address"}],"anonymous":false},{"type":"event","name":"Transfer","inputs":[{"name":"from","type":"address","indexed":true,"internalType":"address"},{"name":"to","type":"address","indexed":true,"internalType":"address"},{"name":"tokenId","type":"uint256","indexed":true,"internalType":"uint256"}],"anonymous":false},{"type":"error","name":"ERC721IncorrectOwner","inputs":[{"name":"sender","type":"address","internalType":"address"},{"name":"tokenId","type":"uint256","internalType":"uint256"},{"name":"owner","type":"address","internalType":"address"}]},{"type":"error","name":"ERC721InsufficientApproval","inputs":[{"name":"operator","type":"address","internalType":"address"},{"name":"tokenId","type":"uint256","internalType":"uint256"}]},{"type":"error","name":"ERC721InvalidApprover","inputs":[{"name":"approver","type":"address","internalType":"address"}]},{"type":"error","name":"ERC721InvalidOperator","inputs":[{"name":"operator","type":"address","internalType":"address"}]},{"type":"error","name":"ERC721InvalidOwner","inputs":[{"name":"owner","type":"address","internalType":"address"}]},{"type":"error","name":"ERC721InvalidReceiver","inputs":[{"name":"receiver","type":"address","internalType":"address"}]},{"type":"error","name":"ERC721InvalidSender","inputs":[{"name":"sender","type":"address","internalType":"address"}]},{"type":"error","name":"ERC721NonexistentToken","inputs":[{"name":"tokenId","type":"uint256","internalType":"uint256"}]},{"type":"error","name":"OwnableInvalidOwner","inputs":[{"name":"owner","type":"address","internalType":"address"}]},{"type":"error","name":"OwnableUnauthorizedAccount","inputs":[{"name":"account","type":"address","internalType":"address"}]}],"bytecode":{"object":"0x608060405234801561000f575f5ffd5b50336040518060400160405280600b81526020017f496e67726573736f4e46540000000000000000000000000000000000000000008152506040518060400160405280600681526020017f494e474e46540000000000000000000000000000000000000000000000000000815250815f908161008b9190610423565b50806001908161009b9190610423565b5050505f73ffffffffffffffffffffffffffffffffffffffff168173ffffffffffffffffffffffffffffffffffffffff160361010e575f6040517f1e4fbdf70000000000000000000000000000000000000000000000000000000081526004016101059190610531565b60405180910390fd5b61011d8161012360201b60201c565b5061054a565b5f60075f9054906101000a900473ffffffffffffffffffffffffffffffffffffffff1690508160075f6101000a81548173ffffffffffffffffffffffffffffffffffffffff021916908373ffffffffffffffffffffffffffffffffffffffff1602179055508173ffffffffffffffffffffffffffffffffffffffff168173ffffffffffffffffffffffffffffffffffffffff167f8be0079c531659141344cd1fd0a4f28419497f9722a3daafe3b4186f6b6457e060405160405180910390a35050565b5f81519050919050565b7f4e487b71000000000000000000000000000000000000000000000000000000005f52604160045260245ffd5b7f4e487b71000000000000000000000000000000000000000000000000000000005f52602260045260245ffd5b5f600282049050600182168061026157607f821691505b6020821081036102745761027361021d565b5b50919050565b5f819050815f5260205f209050919050565b5f6020601f8301049050919050565b5f82821b905092915050565b5f600883026102d67fffffffffffffffffffffffffffffffffffffffffffffffffffffffffffffffff8261029b565b6102e0868361029b565b95508019841693508086168417925050509392505050565b5f819050919050565b5f819050919050565b5f61032461031f61031a846102f8565b610301565b6102f8565b9050919050565b5f819050919050565b61033d8361030a565b6103516103498261032b565b8484546102a7565b825550505050565b5f5f905090565b610368610359565b610373818484610334565b505050565b5b818110156103965761038b5f82610360565b600181019050610379565b5050565b601f8211156103db576103ac8161027a565b6103b58461028c565b810160208510156103c4578190505b6103d86103d08561028c565b830182610378565b50505b505050565b5f82821c905092915050565b5f6103fb5f19846008026103e0565b1980831691505092915050565b5f61041383836103ec565b9150826002028217905092915050565b61042c826101e6565b67ffffffffffffffff811115610445576104446101f0565b5b61044f825461024a565b61045a82828561039a565b5f60209050601f83116001811461048b575f8415610479578287015190505b6104838582610408565b8655506104ea565b601f1984166104998661027a565b5f5b828110156104c05784890151825560018201915060208501945060208101905061049b565b868310156104dd57848901516104d9601f8916826103ec565b8355505b6001600288020188555050505b505050505050565b5f73ffffffffffffffffffffffffffffffffffffffff82169050919050565b5f61051b826104f2565b9050919050565b61052b81610511565b82525050565b5f6020820190506105445f830184610522565b92915050565b61277f806105575f395ff3fe608060405234801561000f575f5ffd5b506004361061011f575f3560e01c8063715018a6116100ab578063b88d4fde1161006f578063b88d4fde146102f1578063c87b56dd1461030d578063d0def5211461033d578063e985e9c51461036d578063f2fde38b1461039d5761011f565b8063715018a61461027157806375794a3c1461027b5780638da5cb5b1461029957806395d89b41146102b7578063a22cb465146102d55761011f565b806323b872dd116100f257806323b872dd146101bd57806342842e0e146101d957806342966c68146101f55780636352211e1461021157806370a08231146102415761011f565b806301ffc9a71461012357806306fdde0314610153578063081812fc14610171578063095ea7b3146101a1575b5f5ffd5b61013d60048036038101906101389190611be7565b6103b9565b60405161014a9190611c2c565b60405180910390f35b61015b610419565b6040516101689190611cb5565b60405180910390f35b61018b60048036038101906101869190611d08565b6104a8565b6040516101989190611d72565b60405180910390f35b6101bb60048036038101906101b69190611db5565b6104c3565b005b6101d760048036038101906101d29190611df3565b6104d9565b005b6101f360048036038101906101ee9190611df3565b6105d8565b005b61020f600480360381019061020a9190611d08565b6105f7565b005b61022b60048036038101906102269190611d08565b61064c565b6040516102389190611d72565b60405180910390f35b61025b60048036038101906102569190611e43565b61065d565b6040516102689190611e7d565b60405180910390f35b610279610713565b005b610283610726565b6040516102909190611e7d565b60405180910390f35b6102a161072c565b6040516102ae9190611d72565b60405180910390f35b6102bf610754565b6040516102cc9190611cb5565b60405180910390f35b6102ef60048036038101906102ea9190611ec0565b6107e4565b005b61030b6004803603810190610306919061202a565b6107fa565b005b61032760048036038101906103229190611d08565b61081f565b6040516103349190611cb5565b60405180910390f35b61035760048036038101906103529190612148565b61092a565b6040516103649190611e7d565b60405180910390f35b610387600480360381019061038291906121a2565b61096e565b6040516103949190611c2c565b60405180910390f35b6103b760048036038101906103b29190611e43565b6109fc565b005b5f634906490660e01b7bffffffffffffffffffffffffffffffffffffffffffffffffffffffff1916827bffffffffffffffffffffffffffffffffffffffffffffffffffffffff19161480610412575061041182610a80565b5b9050919050565b60605f80546104279061220d565b80601f01602080910402602001604051908101604052809291908181526020018280546104539061220d565b801561049e5780601f106104755761010080835404028352916020019161049e565b820191905f5260205f20905b81548152906001019060200180831161048157829003601f168201915b5050505050905090565b5f6104b282610b61565b506104bc82610be7565b9050919050565b6104d582826104d0610c20565b610c27565b5050565b5f73ffffffffffffffffffffffffffffffffffffffff168273ffffffffffffffffffffffffffffffffffffffff1603610549575f6040517f64a0ae920000000000000000000000000000000000000000000000000000000081526004016105409190611d72565b60405180910390fd5b5f61055c8383610557610c20565b610c39565b90508373ffffffffffffffffffffffffffffffffffffffff168173ffffffffffffffffffffffffffffffffffffffff16146105d2578382826040517f64283d7b0000000000000000000000000000000000000000000000000000000081526004016105c99392919061223d565b60405180910390fd5b50505050565b6105f283838360405180602001604052805f8152506107fa565b505050565b6106013382610e44565b610640576040517f08c379a0000000000000000000000000000000000000000000000000000000008152600401610637906122bc565b60405180910390fd5b61064981610ed8565b50565b5f61065682610b61565b9050919050565b5f5f73ffffffffffffffffffffffffffffffffffffffff168273ffffffffffffffffffffffffffffffffffffffff16036106ce575f6040517f89c62b640000000000000000000000000000000000000000000000000000000081526004016106c59190611d72565b60405180910390fd5b60035f8373ffffffffffffffffffffffffffffffffffffffff1673ffffffffffffffffffffffffffffffffffffffff1681526020019081526020015f20549050919050565b61071b610f5a565b6107245f610fe1565b565b60085481565b5f60075f9054906101000a900473ffffffffffffffffffffffffffffffffffffffff16905090565b6060600180546107639061220d565b80601f016020809104026020016040519081016040528092919081815260200182805461078f9061220d565b80156107da5780601f106107b1576101008083540402835291602001916107da565b820191905f5260205f20905b8154815290600101906020018083116107bd57829003601f168201915b5050505050905090565b6107f66107ef610c20565b83836110a4565b5050565b6108058484846104d9565b610819610810610c20565b8585858561120d565b50505050565b606061082a82610b61565b505f60065f8481526020019081526020015f2080546108489061220d565b80601f01602080910402602001604051908101604052809291908181526020018280546108749061220d565b80156108bf5780601f10610896576101008083540402835291602001916108bf565b820191905f5260205f20905b8154815290600101906020018083116108a257829003601f168201915b505050505090505f6108cf6113b9565b90505f8151036108e3578192505050610925565b5f825111156109175780826040516020016108ff929190612314565b60405160208183030381529060405292505050610925565b610920846113cf565b925050505b919050565b5f610933610f5a565b5f60085490506109438482611435565b61094d8184611528565b60085f81548092919061095f90612364565b91905055508091505092915050565b5f60055f8473ffffffffffffffffffffffffffffffffffffffff1673ffffffffffffffffffffffffffffffffffffffff1681526020019081526020015f205f8373ffffffffffffffffffffffffffffffffffffffff1673ffffffffffffffffffffffffffffffffffffffff1681526020019081526020015f205f9054906101000a900460ff16905092915050565b610a04610f5a565b5f73ffffffffffffffffffffffffffffffffffffffff168173ffffffffffffffffffffffffffffffffffffffff1603610a74575f6040517f1e4fbdf7000000000000000000000000000000000000000000000000000000008152600401610a6b9190611d72565b60405180910390fd5b610a7d81610fe1565b50565b5f7f80ac58cd000000000000000000000000000000000000000000000000000000007bffffffffffffffffffffffffffffffffffffffffffffffffffffffff1916827bffffffffffffffffffffffffffffffffffffffffffffffffffffffff19161480610b4a57507f5b5e139f000000000000000000000000000000000000000000000000000000007bffffffffffffffffffffffffffffffffffffffffffffffffffffffff1916827bffffffffffffffffffffffffffffffffffffffffffffffffffffffff1916145b80610b5a5750610b5982611582565b5b9050919050565b5f5f610b6c836115eb565b90505f73ffffffffffffffffffffffffffffffffffffffff168173ffffffffffffffffffffffffffffffffffffffff1603610bde57826040517f7e273289000000000000000000000000000000000000000000000000000000008152600401610bd59190611e7d565b60405180910390fd5b80915050919050565b5f60045f8381526020019081526020015f205f9054906101000a900473ffffffffffffffffffffffffffffffffffffffff169050919050565b5f33905090565b610c348383836001611624565b505050565b5f5f610c44846115eb565b90505f73ffffffffffffffffffffffffffffffffffffffff168373ffffffffffffffffffffffffffffffffffffffff1614610c8557610c848184866117e3565b5b5f73ffffffffffffffffffffffffffffffffffffffff168173ffffffffffffffffffffffffffffffffffffffff1614610d1057610cc45f855f5f611624565b600160035f8373ffffffffffffffffffffffffffffffffffffffff1673ffffffffffffffffffffffffffffffffffffffff1681526020019081526020015f205f82825403925050819055505b5f73ffffffffffffffffffffffffffffffffffffffff168573ffffffffffffffffffffffffffffffffffffffff1614610d8f57600160035f8773ffffffffffffffffffffffffffffffffffffffff1673ffffffffffffffffffffffffffffffffffffffff1681526020019081526020015f205f82825401925050819055505b8460025f8681526020019081526020015f205f6101000a81548173ffffffffffffffffffffffffffffffffffffffff021916908373ffffffffffffffffffffffffffffffffffffffff160217905550838573ffffffffffffffffffffffffffffffffffffffff168273ffffffffffffffffffffffffffffffffffffffff167fddf252ad1be2c89b69c2b068fc378daa952ba7f163c4a11628f55a4df523b3ef60405160405180910390a4809150509392505050565b5f5f610e4f8361064c565b90508073ffffffffffffffffffffffffffffffffffffffff168473ffffffffffffffffffffffffffffffffffffffff161480610ebe57508373ffffffffffffffffffffffffffffffffffffffff16610ea6846104a8565b73ffffffffffffffffffffffffffffffffffffffff16145b80610ecf5750610ece818561096e565b5b91505092915050565b5f610ee45f835f610c39565b90505f73ffffffffffffffffffffffffffffffffffffffff168173ffffffffffffffffffffffffffffffffffffffff1603610f5657816040517f7e273289000000000000000000000000000000000000000000000000000000008152600401610f4d9190611e7d565b60405180910390fd5b5050565b610f62610c20565b73ffffffffffffffffffffffffffffffffffffffff16610f8061072c565b73ffffffffffffffffffffffffffffffffffffffff1614610fdf57610fa3610c20565b6040517f118cdaa7000000000000000000000000000000000000000000000000000000008152600401610fd69190611d72565b60405180910390fd5b565b5f60075f9054906101000a900473ffffffffffffffffffffffffffffffffffffffff1690508160075f6101000a81548173ffffffffffffffffffffffffffffffffffffffff021916908373ffffffffffffffffffffffffffffffffffffffff1602179055508173ffffffffffffffffffffffffffffffffffffffff168173ffffffffffffffffffffffffffffffffffffffff167f8be0079c531659141344cd1fd0a4f28419497f9722a3daafe3b4186f6b6457e060405160405180910390a35050565b5f73ffffffffffffffffffffffffffffffffffffffff168273ffffffffffffffffffffffffffffffffffffffff160361111457816040517f5b08ba1800000000000000000000000000000000000000000000000000000000815260040161110b9190611d72565b60405180910390fd5b8060055f8573ffffffffffffffffffffffffffffffffffffffff1673ffffffffffffffffffffffffffffffffffffffff1681526020019081526020015f205f8473ffffffffffffffffffffffffffffffffffffffff1673ffffffffffffffffffffffffffffffffffffffff1681526020019081526020015f205f6101000a81548160ff0219169083151502179055508173ffffffffffffffffffffffffffffffffffffffff168373ffffffffffffffffffffffffffffffffffffffff167f17307eab39ab6107e8899845ad3d59bd9653f200f220920489ca2b5937696c31836040516112009190611c2c565b60405180910390a3505050565b5f8373ffffffffffffffffffffffffffffffffffffffff163b11156113b2578273ffffffffffffffffffffffffffffffffffffffff1663150b7a02868685856040518563ffffffff1660e01b815260040161126b94939291906123fd565b6020604051808303815f875af19250505080156112a657506040513d601f19601f820116820180604052508101906112a3919061245b565b60015b611327573d805f81146112d4576040519150601f19603f3d011682016040523d82523d5f602084013e6112d9565b606091505b505f81510361131f57836040517f64a0ae920000000000000000000000000000000000000000000000000000000081526004016113169190611d72565b60405180910390fd5b805181602001fd5b63150b7a0260e01b7bffffffffffffffffffffffffffffffffffffffffffffffffffffffff1916817bffffffffffffffffffffffffffffffffffffffffffffffffffffffff1916146113b057836040517f64a0ae920000000000000000000000000000000000000000000000000000000081526004016113a79190611d72565b60405180910390fd5b505b5050505050565b606060405180602001604052805f815250905090565b60606113da82610b61565b505f6113e46113b9565b90505f8151116114025760405180602001604052805f81525061142d565b8061140c846118a6565b60405160200161141d929190612314565b6040516020818303038152906040525b915050919050565b5f73ffffffffffffffffffffffffffffffffffffffff168273ffffffffffffffffffffffffffffffffffffffff16036114a5575f6040517f64a0ae9200000000000000000000000000000000000000000000000000000000815260040161149c9190611d72565b60405180910390fd5b5f6114b183835f610c39565b90505f73ffffffffffffffffffffffffffffffffffffffff168173ffffffffffffffffffffffffffffffffffffffff1614611523575f6040517f73c6ac6e00000000000000000000000000000000000000000000000000000000815260040161151a9190611d72565b60405180910390fd5b505050565b8060065f8481526020019081526020015f2090816115469190612626565b507ff8e1a15aba9398e019f0b49df1a4fde98ee17ae345cb5f6b5e2c27f5033e8ce7826040516115769190611e7d565b60405180910390a15050565b5f7f01ffc9a7000000000000000000000000000000000000000000000000000000007bffffffffffffffffffffffffffffffffffffffffffffffffffffffff1916827bffffffffffffffffffffffffffffffffffffffffffffffffffffffff1916149050919050565b5f60025f8381526020019081526020015f205f9054906101000a900473ffffffffffffffffffffffffffffffffffffffff169050919050565b808061165c57505f73ffffffffffffffffffffffffffffffffffffffff168273ffffffffffffffffffffffffffffffffffffffff1614155b1561178e575f61166b84610b61565b90505f73ffffffffffffffffffffffffffffffffffffffff168373ffffffffffffffffffffffffffffffffffffffff16141580156116d557508273ffffffffffffffffffffffffffffffffffffffff168173ffffffffffffffffffffffffffffffffffffffff1614155b80156116e857506116e6818461096e565b155b1561172a57826040517fa9fbf51f0000000000000000000000000000000000000000000000000000000081526004016117219190611d72565b60405180910390fd5b811561178c57838573ffffffffffffffffffffffffffffffffffffffff168273ffffffffffffffffffffffffffffffffffffffff167f8c5be1e5ebec7d5bd14f71427d1e84f3dd0314c0f7b2291e5b200ac8c7c3b92560405160405180910390a45b505b8360045f8581526020019081526020015f205f6101000a81548173ffffffffffffffffffffffffffffffffffffffff021916908373ffffffffffffffffffffffffffffffffffffffff16021790555050505050565b6117ee838383611970565b6118a1575f73ffffffffffffffffffffffffffffffffffffffff168373ffffffffffffffffffffffffffffffffffffffff160361186257806040517f7e2732890000000000000000000000000000000000000000000000000000000081526004016118599190611e7d565b60405180910390fd5b81816040517f177e802f0000000000000000000000000000000000000000000000000000000081526004016118989291906126f5565b60405180910390fd5b505050565b60605f60016118b484611a30565b0190505f8167ffffffffffffffff8111156118d2576118d1611f06565b5b6040519080825280601f01601f1916602001820160405280156119045781602001600182028036833780820191505090505b5090505f82602001820190505b600115611965578080600190039150507f3031323334353637383961626364656600000000000000000000000000000000600a86061a8153600a858161195a5761195961271c565b5b0494505f8503611911575b819350505050919050565b5f5f73ffffffffffffffffffffffffffffffffffffffff168373ffffffffffffffffffffffffffffffffffffffff1614158015611a2757508273ffffffffffffffffffffffffffffffffffffffff168473ffffffffffffffffffffffffffffffffffffffff1614806119e857506119e7848461096e565b5b80611a2657508273ffffffffffffffffffffffffffffffffffffffff16611a0e83610be7565b73ffffffffffffffffffffffffffffffffffffffff16145b5b90509392505050565b5f5f5f90507a184f03e93ff9f4daa797ed6e38ed64bf6a1f0100000000000000008310611a8c577a184f03e93ff9f4daa797ed6e38ed64bf6a1f0100000000000000008381611a8257611a8161271c565b5b0492506040810190505b6d04ee2d6d415b85acef81000000008310611ac9576d04ee2d6d415b85acef81000000008381611abf57611abe61271c565b5b0492506020810190505b662386f26fc100008310611af857662386f26fc100008381611aee57611aed61271c565b5b0492506010810190505b6305f5e1008310611b21576305f5e1008381611b1757611b1661271c565b5b0492506008810190505b6127108310611b46576127108381611b3c57611b3b61271c565b5b0492506004810190505b60648310611b695760648381611b5f57611b5e61271c565b5b0492506002810190505b600a8310611b78576001810190505b80915050919050565b5f604051905090565b5f5ffd5b5f5ffd5b5f7fffffffff0000000000000000000000000000000000000000000000000000000082169050919050565b611bc681611b92565b8114611bd0575f5ffd5b50565b5f81359050611be181611bbd565b92915050565b5f60208284031215611bfc57611bfb611b8a565b5b5f611c0984828501611bd3565b91505092915050565b5f8115159050919050565b611c2681611c12565b82525050565b5f602082019050611c3f5f830184611c1d565b92915050565b5f81519050919050565b5f82825260208201905092915050565b8281835e5f83830152505050565b5f601f19601f8301169050919050565b5f611c8782611c45565b611c918185611c4f565b9350611ca1818560208601611c5f565b611caa81611c6d565b840191505092915050565b5f6020820190508181035f830152611ccd8184611c7d565b905092915050565b5f819050919050565b611ce781611cd5565b8114611cf1575f5ffd5b50565b5f81359050611d0281611cde565b92915050565b5f60208284031215611d1d57611d1c611b8a565b5b5f611d2a84828501611cf4565b91505092915050565b5f73ffffffffffffffffffffffffffffffffffffffff82169050919050565b5f611d5c82611d33565b9050919050565b611d6c81611d52565b82525050565b5f602082019050611d855f830184611d63565b92915050565b611d9481611d52565b8114611d9e575f5ffd5b50565b5f81359050611daf81611d8b565b92915050565b5f5f60408385031215611dcb57611dca611b8a565b5b5f611dd885828601611da1565b9250506020611de985828601611cf4565b9150509250929050565b5f5f5f60608486031215611e0a57611e09611b8a565b5b5f611e1786828701611da1565b9350506020611e2886828701611da1565b9250506040611e3986828701611cf4565b9150509250925092565b5f60208284031215611e5857611e57611b8a565b5b5f611e6584828501611da1565b91505092915050565b611e7781611cd5565b82525050565b5f602082019050611e905f830184611e6e565b92915050565b611e9f81611c12565b8114611ea9575f5ffd5b50565b5f81359050611eba81611e96565b92915050565b5f5f60408385031215611ed657611ed5611b8a565b5b5f611ee385828601611da1565b9250506020611ef485828601611eac565b9150509250929050565b5f5ffd5b5f5ffd5b7f4e487b71000000000000000000000000000000000000000000000000000000005f52604160045260245ffd5b611f3c82611c6d565b810181811067ffffffffffffffff82111715611f5b57611f5a611f06565b5b80604052505050565b5f611f6d611b81565b9050611f798282611f33565b919050565b5f67ffffffffffffffff821115611f9857611f97611f06565b5b611fa182611c6d565b9050602081019050919050565b828183375f83830152505050565b5f611fce611fc984611f7e565b611f64565b905082815260208101848484011115611fea57611fe9611f02565b5b611ff5848285611fae565b509392505050565b5f82601f83011261201157612010611efe565b5b8135612021848260208601611fbc565b91505092915050565b5f5f5f5f6080858703121561204257612041611b8a565b5b5f61204f87828801611da1565b945050602061206087828801611da1565b935050604061207187828801611cf4565b925050606085013567ffffffffffffffff81111561209257612091611b8e565b5b61209e87828801611ffd565b91505092959194509250565b5f67ffffffffffffffff8211156120c4576120c3611f06565b5b6120cd82611c6d565b9050602081019050919050565b5f6120ec6120e7846120aa565b611f64565b90508281526020810184848401111561210857612107611f02565b5b612113848285611fae565b509392505050565b5f82601f83011261212f5761212e611efe565b5b813561213f8482602086016120da565b91505092915050565b5f5f6040838503121561215e5761215d611b8a565b5b5f61216b85828601611da1565b925050602083013567ffffffffffffffff81111561218c5761218b611b8e565b5b6121988582860161211b565b9150509250929050565b5f5f604083850312156121b8576121b7611b8a565b5b5f6121c585828601611da1565b92505060206121d685828601611da1565b9150509250929050565b7f4e487b71000000000000000000000000000000000000000000000000000000005f52602260045260245ffd5b5f600282049050600182168061222457607f821691505b602082108103612237576122366121e0565b5b50919050565b5f6060820190506122505f830186611d63565b61225d6020830185611e6e565b61226a6040830184611d63565b949350505050565b7f4e616f206175746f72697a61646f0000000000000000000000000000000000005f82015250565b5f6122a6600e83611c4f565b91506122b182612272565b602082019050919050565b5f6020820190508181035f8301526122d38161229a565b9050919050565b5f81905092915050565b5f6122ee82611c45565b6122f881856122da565b9350612308818560208601611c5f565b80840191505092915050565b5f61231f82856122e4565b915061232b82846122e4565b91508190509392505050565b7f4e487b71000000000000000000000000000000000000000000000000000000005f52601160045260245ffd5b5f61236e82611cd5565b91507fffffffffffffffffffffffffffffffffffffffffffffffffffffffffffffffff82036123a05761239f612337565b5b600182019050919050565b5f81519050919050565b5f82825260208201905092915050565b5f6123cf826123ab565b6123d981856123b5565b93506123e9818560208601611c5f565b6123f281611c6d565b840191505092915050565b5f6080820190506124105f830187611d63565b61241d6020830186611d63565b61242a6040830185611e6e565b818103606083015261243c81846123c5565b905095945050505050565b5f8151905061245581611bbd565b92915050565b5f602082840312156124705761246f611b8a565b5b5f61247d84828501612447565b91505092915050565b5f819050815f5260205f209050919050565b5f6020601f8301049050919050565b5f82821b905092915050565b5f600883026124e27fffffffffffffffffffffffffffffffffffffffffffffffffffffffffffffffff826124a7565b6124ec86836124a7565b95508019841693508086168417925050509392505050565b5f819050919050565b5f61252761252261251d84611cd5565b612504565b611cd5565b9050919050565b5f819050919050565b6125408361250d565b61255461254c8261252e565b8484546124b3565b825550505050565b5f5f905090565b61256b61255c565b612576818484612537565b505050565b5b818110156125995761258e5f82612563565b60018101905061257c565b5050565b601f8211156125de576125af81612486565b6125b884612498565b810160208510156125c7578190505b6125db6125d385612498565b83018261257b565b50505b505050565b5f82821c905092915050565b5f6125fe5f19846008026125e3565b1980831691505092915050565b5f61261683836125ef565b9150826002028217905092915050565b61262f82611c45565b67ffffffffffffffff81111561264857612647611f06565b5b612652825461220d565b61265d82828561259d565b5f60209050601f83116001811461268e575f841561267c578287015190505b612686858261260b565b8655506126ed565b601f19841661269c86612486565b5f5b828110156126c35784890151825560018201915060208501945060208101905061269e565b868310156126e057848901516126dc601f8916826125ef565b8355505b6001600288020188555050505b505050505050565b5f6040820190506127085f830185611d63565b6127156020830184611e6e565b9392505050565b7f4e487b71000000000000000000000000000000000000000000000000000000005f52601260045260245ffdfea26469706673582212209ab46a49cfdfdc680574de8f2bc13e49a533d17ef94a209915d712e7a594e33f64736f6c634300081e0033","linkReferences":{}},"methodIdentifiers":{"approve(address,uint256)":"095ea7b3","balanceOf(address)":"70a08231","burn(uint256)":"42966c68","getApproved(uint256)":"081812fc","isApprovedForAll(address,address)":"e985e9c5","mint(address,string)":"d0def521","name()":"06fdde03","nextTokenId()":"75794a3c","owner()":"8da5cb5b","ownerOf(uint256)":"6352211e","renounceOwnership()":"715018a6","safeTransferFrom(address,address,uint256)":"42842e0e","safeTransferFrom(address,address,uint256,bytes)":"b88d4fde","setApprovalForAll(address,bool)":"a22cb465","supportsInterface(bytes4)":"01ffc9a7","symbol()":"95d89b41","tokenURI(uint256)":"c87b56dd","transferFrom(address,address,uint256)":"23b872dd","transferOwnership(address)":"f2fde38b"},"id":43}