{"abi":[{"type":"constructor","inputs":[],"stateMutability":"nonpayable"},{"type":"function","name":"adicionarConvidado","inputs":[{"name":"_idEvento","type":"uint256","internalType":"uint256"},{"name":"_convidado","type":"address","internalType":"address"}],"outputs":[],"stateMutability":"nonpayable"},{"type":"function","name":"approve","inputs":[{"name":"to","type":"address","internalType":"address"},{"name":"tokenId","type":"uint256","internalType":"uint256"}],"outputs":[],"stateMutability":"nonpayable"},{"type":"function","name":"balanceOf","inputs":[{"name":"owner","type":"address","internalType":"address"}],"outputs":[{"name":"","type":"uint256","internalType":"uint256"}],"stateMutability":"view"},{"type":"function","name":"comprarIngresso","inputs":[{"name":"_idEvento","type":"uint256","internalType":"uint256"},{"name":"tokenURI","type":"string","internalType":"string"}],"outputs":[],"stateMutability":"payable"},{"type":"function","name":"criarEvento","inputs":[{"name":"_nome","type":"string","internalType":"string"},{"name":"_preco","type":"uint256","internalType":"uint256"},{"name":"_totalIngressos","type":"uint256","internalType":"uint256"},{"name":"_tipo","type":"uint8","internalType":"enum VendaIngressosNFT.TipoVenda"}],"outputs":[],"stateMutability":"nonpayable"},{"type":"function","name":"estaConvidado","inputs":[{"name":"_idEvento","type":"uint256","internalType":"uint256"},{"name":"_usuario","type":"address","internalType":"address"}],"outputs":[{"name":"","type":"bool","internalType":"bool"}],"stateMutability":"view"},{"type":"function","name":"getApproved","inputs":[{"name":"tokenId","type":"uint256","internalType":"uint256"}],"outputs":[{"name":"","type":"address","internalType":"address"}],"stateMutability":"view"},{"type":"function","name":"ingressoParaEvento","inputs":[{"name":"","type":"uint256","internalType":"uint256"}],"outputs":[{"name":"","type":"uint256","internalType":"uint256"}],"stateMutability":"view"},{"type":"function","name":"isApprovedForAll","inputs":[{"name":"owner","type":"address","internalType":"address"},{"name":"operator","type":"address","internalType":"address"}],"outputs":[{"name":"","type":"bool","internalType":"bool"}],"stateMutability":"view"},{"type":"function","name":"name","inputs":[],"outputs":[{"name":"","type":"string","internalType":"string"}],"stateMutability":"view"},{"type":"function","name":"obterDadosEvento","inputs":[{"name":"_idEvento","type":"uint256","internalType":"uint256"}],"outputs":[{"name":"nome","type":"string","internalType":"string"},{"name":"organizador","type":"address","internalType":"address"},{"name":"preco","type":"uint256","internalType":"uint256"},{"name":"totalIngressos","type":"uint256","internalType":"uint256"},{"name":"vendidos","type":"uint256","internalType":"uint256"},{"name":"tipo","type":"uint8","internalType":"enum VendaIngressosNFT.TipoVenda"}],"stateMutability":"view"},{"type":"function","name":"owner","inputs":[],"outputs":[{"name":"","type":"address","internalType":"address"}],"stateMutability":"view"},{"type":"function","name":"ownerOf","inputs":[{"name":"tokenId","type":"uint256","internalType":"uint256"}],"outputs":[{"name":"","type":"address","internalType":"address"}],"stateMutability":"view"},{"type":"function","name":"proximoIdEvento","inputs":[],"outputs":[{"name":"","type":"uint256","internalType":"uint256"}],"stateMutability":"view"},{"type":"function","name":"proximoIdIngresso","inputs":[],"outputs":[{"name":"","type":"uint256","internalType":"uint256"}],"stateMutability":"view"},{"type":"function","name":"renounceOwnership","inputs":[],"outputs":[],"stateMutability":"nonpayable"},{"type":"function","name":"repassarIngressos","inputs":[{"name":"_idEvento","type":"uint256","internalType":"uint256"},{"name":"para","type":"address","internalType":"address"},{"name":"quantidade","type":"uint256","internalType":"uint256"}],"outputs":[],"stateMutability":"nonpayable"},{"type":"function","name":"retirarRevendedor","inputs":[{"name":"_idEvento","type":"uint256","internalType":"uint256"},{"name":"revendedor","type":"address","internalType":"address"}],"outputs":[],"stateMutability":"nonpayable"},{"type":"function","name":"revenderIngresso","inputs":[{"name":"tokenId","type":"uint256","internalType":"uint256"},{"name":"para","type":"address","internalType":"address"}],"outputs":[],"stateMutability":"nonpayable"},{"type":"function","name":"sacarFundos","inputs":[{"name":"_idEvento","type":"uint256","internalType":"uint256"}],"outputs":[],"stateMutability":"nonpayable"},{"type":"function","name":"safeTransferFrom","inputs":[{"name":"from","type":"address","internalType":"address"},{"name":"to","type":"address","internalType":"address"},{"name":"tokenId","type":"uint256","internalType":"uint256"}],"outputs":[],"stateMutability":"nonpayable"},{"type":"function","name":"safeTransferFrom","inputs":[{"name":"from","type":"address","internalType":"address"},{"name":"to","type":"address","internalType":"address"},{"name":"tokenId","type":"uint256","internalType":"uint256"},{"name":"data","type":"bytes","internalType":"bytes"}],"outputs":[],"stateMutability":"nonpayable"},{"type":"function","name":"setApprovalForAll","inputs":[{"name":"operator","type":"address","internalType":"address"},{"name":"approved","type":"bool","internalType":"bool"}],"outputs":[],"stateMutability":"nonpayable"},{"type":"function","name":"supportsInterface","inputs":[{"name":"interfaceId","type":"bytes4","internalType":"bytes4"}],"outputs":[{"name":"","type":"bool","internalType":"bool"}],"stateMutability":"view"},{"type":"function","name":"symbol","inputs":[],"outputs":[{"name":"","type":"string","internalType":"string"}],"stateMutability":"view"},{"type":"function","name":"tokenURI","inputs":[{"name":"tokenId","type":"uint256","internalType":"uint256"}],"outputs":[{"name":"","type":"string","internalType":"string"}],"stateMutability":"view"},{"type":"function","name":"transferFrom","inputs":[{"name":"from","type":"address","internalType":"address"},{"name":"to","type":"address","internalType":"address"},{"name":"tokenId","type":"uint256","internalType":"uint256"}],"outputs":[],"stateMutability":"nonpayable"},{"type":"function","name":"transferOwnership","inputs":[{"name":"newOwner","type":"address","internalType":"address"}],"outputs":[],"stateMutability":"nonpayable"},{"type":"function","name":"venderComoRevendedor","inputs":[{"name":"_idEvento","type":"uint256","internalType":"uint256"},{"name":"tokenURI","type":"string","internalType":"string"}],"outputs":[],"stateMutability":"nonpayable"},{"type":"event","name":"Approval","inputs":[{"name":"owner","type":"address","indexed":true,"internalType":"address"},{"name":"approved","type":"address","indexed":true,"internalType":"address"},{"name":"tokenId","type":"uint256","indexed":true,"internalType":"uint256"}],"anonymous":false},{"type":"event","name":"ApprovalForAll","inputs":[{"name":"owner","type":"address","indexed":true,"internalType":"address"},{"name":"operator","type":"address","indexed":true,"internalType":"address"},{"name":"approved","type":"bool","indexed":false,"internalType":"bool"}],"anonymous":false},{"type":"event","name":"BatchMetadataUpdate","inputs":[{"name":"_fromTokenId","type":"uint256","indexed":false,"internalType":"uint256"},{"name":"_toTokenId","type":"uint256","indexed":false,"internalType":"uint256"}],"anonymous":false},{"type":"event","name":"EventoCriado","inputs":[{"name":"idEvento","type":"uint256","indexed":false,"internalType":"uint256"},{"name":"nome","type":"string","indexed":false,"internalType":"string"},{"name":"organizador","type":"address","indexed":false,"internalType":"address"}],"anonymous":false},{"type":"event","name":"IngressoComprado","inputs":[{"name":"idEvento","type":"uint256","indexed":false,"internalType":"uint256"},{"name":"comprador","type":"address","indexed":false,"internalType":"address"},{"name":"tokenId","type":"uint256","indexed":false,"internalType":"uint256"}],"anonymous":false},{"type":"event","name":"IngressoRevendido","inputs":[{"name":"tokenId","type":"uint256","indexed":false,"internalType":"uint256"},{"name":"de","type":"address","indexed":false,"internalType":"address"},{"name":"para","type":"address","indexed":false,"internalType":"address"}],"anonymous":false},{"type":"event","name":"IngressosRepasados","inputs":[{"name":"idEvento","type":"uint256","indexed":false,"internalType":"uint256"},{"name":"para","type":"address","indexed":false,"internalType":"address"},{"name":"quantidade","type":"uint256","indexed":false,"internalType":"uint256"}],"anonymous":false},{"type":"event","name":"MetadataUpdate","inputs":[{"name":"_tokenId","type":"uint256","indexed":false,"internalType":"uint256"}],"anonymous":false},{"type":"event","name":"OwnershipTransferred","inputs":[{"name":"previousOwner","type":"address","indexed":true,"internalType":"address"},{"name":"newOwner","type":"address","indexed":true,"internalType":"address"}],"anonymous":false},{"type":"event","name":"Transfer","inputs":[{"name":"from","type":"address","indexed":true,"internalType":"address"},{"name":"to","type":"address","indexed":true,"internalType":"address"},{"name":"tokenId","type":"uint256","indexed":true,"internalType":"uint256"}],"anonymous":false},{"type":"error","name":"ERC721IncorrectOwner","inputs":[{"name":"sender","type":"address","internalType":"address"},{"name":"tokenId","type":"uint256","internalType":"uint256"},{"name":"owner","type":"address","internalType":"address"}]},{"type":"error","name":"ERC721InsufficientApproval","inputs":[{"name":"operator","type":"address","internalType":"address"},{"name":"tokenId","type":"uint256","internalType":"uint256"}]},{"type":"error","name":"ERC721InvalidApprover","inputs":[{"name":"approver","type":"address","internalType":"address"}]},{"type":"error","name":"ERC721InvalidOperator","inputs":[{"name":"operator","type":"address","internalType":"address"}]},{"type":"error","name":"ERC721InvalidOwner","inputs":[{"name":"owner","type":"address","internalType":"address"}]},{"type":"error","name":"ERC721InvalidReceiver","inputs":[{"name":"receiver","type":"address","internalType":"address"}]},{"type":"error","name":"ERC721InvalidSender","inputs":[{"name":"sender","type":"address","internalType":"address"}]},{"type":"error","name":"ERC721NonexistentToken","inputs":[{"name":"tokenId","type":"uint256","internalType":"uint256"}]},{"type":"error","name":"OwnableInvalidOwner","inputs":[{"name":"owner","type":"address","internalType":"address"}]},{"type":"error","name":"OwnableUnauthorizedAccount","inputs":[{"name":"account","type":"address","internalType":"address"}]}],"bytecode":{"object":"0x608060405260016008556001600955348015610019575f5ffd5b50336040518060400160405280600b81526020017f496e67726573736f4e46540000000000000000000000000000000000000000008152506040518060400160405280600381526020017f494e470000000000000000000000000000000000000000000000000000000000815250815f9081610095919061042d565b5080600190816100a5919061042d565b5050505f73ffffffffffffffffffffffffffffffffffffffff168173ffffffffffffffffffffffffffffffffffffffff1603610118575f6040517f1e4fbdf700000000000000000000000000000000000000000000000000000000815260040161010f919061053b565b60405180910390fd5b6101278161012d60201b60201c565b50610554565b5f60075f9054906101000a900473ffffffffffffffffffffffffffffffffffffffff1690508160075f6101000a81548173ffffffffffffffffffffffffffffffffffffffff021916908373ffffffffffffffffffffffffffffffffffffffff1602179055508173ffffffffffffffffffffffffffffffffffffffff168173ffffffffffffffffffffffffffffffffffffffff167f8be0079c531659141344cd1fd0a4f28419497f9722a3daafe3b4186f6b6457e060405160405180910390a35050565b5f81519050919050565b7f4e487b71000000000000000000000000000000000000000000000000000000005f52604160045260245ffd5b7f4e487b71000000000000000000000000000000000000000000000000000000005f52602260045260245ffd5b5f600282049050600182168061026b57607f821691505b60208210810361027e5761027d610227565b5b50919050565b5f819050815f5260205f209050919050565b5f6020601f8301049050919050565b5f82821b905092915050565b5f600883026102e07fffffffffffffffffffffffffffffffffffffffffffffffffffffffffffffffff826102a5565b6102ea86836102a5565b95508019841693508086168417925050509392505050565b5f819050919050565b5f819050919050565b5f61032e61032961032484610302565b61030b565b610302565b9050919050565b5f819050919050565b61034783610314565b61035b61035382610335565b8484546102b1565b825550505050565b5f5f905090565b610372610363565b61037d81848461033e565b505050565b5b818110156103a0576103955f8261036a565b600181019050610383565b5050565b601f8211156103e5576103b681610284565b6103bf84610296565b810160208510156103ce578190505b6103e26103da85610296565b830182610382565b50505b505050565b5f82821c905092915050565b5f6104055f19846008026103ea565b1980831691505092915050565b5f61041d83836103f6565b9150826002028217905092915050565b610436826101f0565b67ffffffffffffffff81111561044f5761044e6101fa565b5b6104598254610254565b6104648282856103a4565b5f60209050601f831160018114610495575f8415610483578287015190505b61048d8582610412565b8655506104f4565b601f1984166104a386610284565b5f5b828110156104ca578489015182556001820191506020850194506020810190506104a5565b868310156104e757848901516104e3601f8916826103f6565b8355505b6001600288020188555050505b505050505050565b5f73ffffffffffffffffffffffffffffffffffffffff82169050919050565b5f610525826104fc565b9050919050565b6105358161051b565b82525050565b5f60208201905061054e5f83018461052c565b92915050565b613e87806105615f395ff3fe6080604052600436106101c1575f3560e01c80637018af40116100f6578063b4bbd8bb11610094578063d10e7fd711610063578063d10e7fd71461063e578063e985e9c514610666578063f2fde38b146106a2578063ffc19183146106ca576101c1565b8063b4bbd8bb14610574578063b88d4fde146105b0578063c84571f0146105d8578063c87b56dd14610602576101c1565b80638da5cb5b116100d05780638da5cb5b146104d057806395d89b41146104fa578063a22cb46514610524578063a76744ff1461054c576101c1565b80637018af401461045657806370a082311461047e578063715018a6146104ba576101c1565b80630f789cb7116101635780634378730c1161013d5780634378730c146103815780635e9bc15a1461039d5780636064fccd146103d95780636352211e1461041a576101c1565b80630f789cb71461030957806323b872dd1461033157806342842e0e14610359576101c1565b806306fdde031161019f57806306fdde0314610253578063081812fc1461027d578063095ea7b3146102b95780630caf01f8146102e1576101c1565b806301161766146101c557806301ffc9a7146101ef57806306bd36f41461022b575b5f5ffd5b3480156101d0575f5ffd5b506101d96106f2565b6040516101e69190612ac9565b60405180910390f35b3480156101fa575f5ffd5b5061021560048036038101906102109190612b48565b6106f8565b6040516102229190612b8d565b60405180910390f35b348015610236575f5ffd5b50610251600480360381019061024c9190612c2a565b610758565b005b34801561025e575f5ffd5b50610267610903565b6040516102749190612cea565b60405180910390f35b348015610288575f5ffd5b506102a3600480360381019061029e9190612d0a565b610992565b6040516102b09190612d44565b60405180910390f35b3480156102c4575f5ffd5b506102df60048036038101906102da9190612d5d565b6109ad565b005b3480156102ec575f5ffd5b5061030760048036038101906103029190612d9b565b6109c3565b005b348015610314575f5ffd5b5061032f600480360381019061032a9190612d9b565b610a83565b005b34801561033c575f5ffd5b5061035760048036038101906103529190612dd9565b610b84565b005b348015610364575f5ffd5b5061037f600480360381019061037a9190612dd9565b610c83565b005b61039b60048036038101906103969190612f55565b610ca2565b005b3480156103a8575f5ffd5b506103c360048036038101906103be9190612d0a565b610f3f565b6040516103d09190612ac9565b60405180910390f35b3480156103e4575f5ffd5b506103ff60048036038101906103fa9190612d0a565b610f54565b60405161041196959493929190613022565b60405180910390f35b348015610425575f5ffd5b50610440600480360381019061043b9190612d0a565b611056565b60405161044d9190612d44565b60405180910390f35b348015610461575f5ffd5b5061047c60048036038101906104779190612f55565b611067565b005b348015610489575f5ffd5b506104a4600480360381019061049f9190613088565b6111d8565b6040516104b19190612ac9565b60405180910390f35b3480156104c5575f5ffd5b506104ce61128e565b005b3480156104db575f5ffd5b506104e46112a1565b6040516104f19190612d44565b60405180910390f35b348015610505575f5ffd5b5061050e6112c9565b60405161051b9190612cea565b60405180910390f35b34801561052f575f5ffd5b5061054a600480360381019061054591906130dd565b611359565b005b348015610557575f5ffd5b50610572600480360381019061056d9190612d9b565b61136f565b005b34801561057f575f5ffd5b5061059a60048036038101906105959190612d9b565b61145d565b6040516105a79190612b8d565b60405180910390f35b3480156105bb575f5ffd5b506105d660048036038101906105d191906131b9565b6114c2565b005b3480156105e3575f5ffd5b506105ec6114e7565b6040516105f99190612ac9565b60405180910390f35b34801561060d575f5ffd5b5061062860048036038101906106239190612d0a565b6114ed565b6040516106359190612cea565b60405180910390f35b348015610649575f5ffd5b50610664600480360381019061065f9190612d0a565b6115f8565b005b348015610671575f5ffd5b5061068c60048036038101906106879190613239565b611708565b6040516106999190612b8d565b60405180910390f35b3480156106ad575f5ffd5b506106c860048036038101906106c39190613088565b611796565b005b3480156106d5575f5ffd5b506106f060048036038101906106eb919061329a565b61181a565b005b60095481565b5f634906490660e01b7bffffffffffffffffffffffffffffffffffffffffffffffffffffffff1916827bffffffffffffffffffffffffffffffffffffffffffffffffffffffff1916148061075157506107508261191e565b5b9050919050565b5f600a5f8581526020019081526020015f209050806001015f9054906101000a900473ffffffffffffffffffffffffffffffffffffffff1673ffffffffffffffffffffffffffffffffffffffff163373ffffffffffffffffffffffffffffffffffffffff16146107fd576040517f08c379a00000000000000000000000000000000000000000000000000000000081526004016107f49061338a565b60405180910390fd5b806003015482826004015461081291906133d5565b1115610853576040517f08c379a000000000000000000000000000000000000000000000000000000000815260040161084a90613452565b60405180910390fd5b81816007015f8573ffffffffffffffffffffffffffffffffffffffff1673ffffffffffffffffffffffffffffffffffffffff1681526020019081526020015f205f8282546108a191906133d5565b9250508190555081816004015f8282546108bb91906133d5565b925050819055507f0c0936d30a2df4fbf6667d7d32216a904183ae5dfd172f0ced1a884d51e88cdd8484846040516108f593929190613470565b60405180910390a150505050565b60605f8054610911906134d2565b80601f016020809104026020016040519081016040528092919081815260200182805461093d906134d2565b80156109885780601f1061095f57610100808354040283529160200191610988565b820191905f5260205f20905b81548152906001019060200180831161096b57829003601f168201915b5050505050905090565b5f61099c826119ff565b506109a682611a85565b9050919050565b6109bf82826109ba611abe565b611ac5565b5050565b3373ffffffffffffffffffffffffffffffffffffffff166109e383611056565b73ffffffffffffffffffffffffffffffffffffffff1614610a39576040517f08c379a0000000000000000000000000000000000000000000000000000000008152600401610a309061354c565b60405180910390fd5b610a44338284611ad7565b7f2a5e036de2af7c7014d98fd7b5f230770ee178e196f449ecd7101a62a66dae56823383604051610a779392919061356a565b60405180910390a15050565b5f600a5f8481526020019081526020015f209050806001015f9054906101000a900473ffffffffffffffffffffffffffffffffffffffff1673ffffffffffffffffffffffffffffffffffffffff163373ffffffffffffffffffffffffffffffffffffffff1614610b28576040517f08c379a0000000000000000000000000000000000000000000000000000000008152600401610b1f9061360f565b60405180910390fd5b6001816006015f8473ffffffffffffffffffffffffffffffffffffffff1673ffffffffffffffffffffffffffffffffffffffff1681526020019081526020015f205f6101000a81548160ff021916908315150217905550505050565b5f73ffffffffffffffffffffffffffffffffffffffff168273ffffffffffffffffffffffffffffffffffffffff1603610bf4575f6040517f64a0ae92000000000000000000000000000000000000000000000000000000008152600401610beb9190612d44565b60405180910390fd5b5f610c078383610c02611abe565b611c3f565b90508373ffffffffffffffffffffffffffffffffffffffff168173ffffffffffffffffffffffffffffffffffffffff1614610c7d578382826040517f64283d7b000000000000000000000000000000000000000000000000000000008152600401610c749392919061362d565b60405180910390fd5b50505050565b610c9d83838360405180602001604052805f8152506114c2565b505050565b5f600a5f8481526020019081526020015f2090505f73ffffffffffffffffffffffffffffffffffffffff16816001015f9054906101000a900473ffffffffffffffffffffffffffffffffffffffff1673ffffffffffffffffffffffffffffffffffffffff1603610d47576040517f08c379a0000000000000000000000000000000000000000000000000000000008152600401610d3e906136ac565b60405180910390fd5b8060030154816004015410610d91576040517f08c379a0000000000000000000000000000000000000000000000000000000008152600401610d8890613714565b60405180910390fd5b80600201543414610dd7576040517f08c379a0000000000000000000000000000000000000000000000000000000008152600401610dce9061377c565b60405180910390fd5b600180811115610dea57610de9612faf565b5b816005015f9054906101000a900460ff166001811115610e0d57610e0c612faf565b5b03610e9e57806006015f3373ffffffffffffffffffffffffffffffffffffffff1673ffffffffffffffffffffffffffffffffffffffff1681526020019081526020015f205f9054906101000a900460ff16610e9d576040517f08c379a0000000000000000000000000000000000000000000000000000000008152600401610e949061380a565b60405180910390fd5b5b5f6008549050610eae3382611e4a565b610eb88184611e67565b83600b5f8381526020019081526020015f2081905550816004015f815480929190610ee290613828565b919050555060085f815480929190610ef990613828565b91905055507f25ab691d370cebf479225870a95327553156860c18595df840b852742bb106de843383604051610f3193929190613470565b60405180910390a150505050565b600b602052805f5260405f205f915090505481565b60605f5f5f5f5f5f600a5f8981526020019081526020015f209050805f01816001015f9054906101000a900473ffffffffffffffffffffffffffffffffffffffff16826002015483600301548460040154856005015f9054906101000a900460ff16858054610fc2906134d2565b80601f0160208091040260200160405190810160405280929190818152602001828054610fee906134d2565b80156110395780601f1061101057610100808354040283529160200191611039565b820191905f5260205f20905b81548152906001019060200180831161101c57829003601f168201915b505050505095509650965096509650965096505091939550919395565b5f611060826119ff565b9050919050565b5f600a5f8481526020019081526020015f2090505f816007015f3373ffffffffffffffffffffffffffffffffffffffff1673ffffffffffffffffffffffffffffffffffffffff1681526020019081526020015f2054116110fc576040517f08c379a00000000000000000000000000000000000000000000000000000000081526004016110f3906138df565b60405180910390fd5b5f600854905061110c3382611e4a565b6111168184611e67565b83600b5f8381526020019081526020015f2081905550816007015f3373ffffffffffffffffffffffffffffffffffffffff1673ffffffffffffffffffffffffffffffffffffffff1681526020019081526020015f205f81548092919061117b906138fd565b919050555060085f81548092919061119290613828565b91905055507f25ab691d370cebf479225870a95327553156860c18595df840b852742bb106de8433836040516111ca93929190613470565b60405180910390a150505050565b5f5f73ffffffffffffffffffffffffffffffffffffffff168273ffffffffffffffffffffffffffffffffffffffff1603611249575f6040517f89c62b640000000000000000000000000000000000000000000000000000000081526004016112409190612d44565b60405180910390fd5b60035f8373ffffffffffffffffffffffffffffffffffffffff1673ffffffffffffffffffffffffffffffffffffffff1681526020019081526020015f20549050919050565b611296611ec1565b61129f5f611f48565b565b5f60075f9054906101000a900473ffffffffffffffffffffffffffffffffffffffff16905090565b6060600180546112d8906134d2565b80601f0160208091040260200160405190810160405280929190818152602001828054611304906134d2565b801561134f5780601f106113265761010080835404028352916020019161134f565b820191905f5260205f20905b81548152906001019060200180831161133257829003601f168201915b5050505050905090565b61136b611364611abe565b838361200b565b5050565b5f600a5f8481526020019081526020015f209050806001015f9054906101000a900473ffffffffffffffffffffffffffffffffffffffff1673ffffffffffffffffffffffffffffffffffffffff163373ffffffffffffffffffffffffffffffffffffffff1614611414576040517f08c379a000000000000000000000000000000000000000000000000000000000815260040161140b90613994565b60405180910390fd5b5f816007015f8473ffffffffffffffffffffffffffffffffffffffff1673ffffffffffffffffffffffffffffffffffffffff1681526020019081526020015f2081905550505050565b5f600a5f8481526020019081526020015f206006015f8373ffffffffffffffffffffffffffffffffffffffff1673ffffffffffffffffffffffffffffffffffffffff1681526020019081526020015f205f9054906101000a900460ff16905092915050565b6114cd848484610b84565b6114e16114d8611abe565b85858585612174565b50505050565b60085481565b60606114f8826119ff565b505f60065f8481526020019081526020015f208054611516906134d2565b80601f0160208091040260200160405190810160405280929190818152602001828054611542906134d2565b801561158d5780601f106115645761010080835404028352916020019161158d565b820191905f5260205f20905b81548152906001019060200180831161157057829003601f168201915b505050505090505f61159d612320565b90505f8151036115b15781925050506115f3565b5f825111156115e55780826040516020016115cd9291906139ec565b604051602081830303815290604052925050506115f3565b6115ee84612336565b925050505b919050565b5f600a5f8381526020019081526020015f209050806001015f9054906101000a900473ffffffffffffffffffffffffffffffffffffffff1673ffffffffffffffffffffffffffffffffffffffff163373ffffffffffffffffffffffffffffffffffffffff161461169d576040517f08c379a000000000000000000000000000000000000000000000000000000000815260040161169490613a59565b60405180910390fd5b806001015f9054906101000a900473ffffffffffffffffffffffffffffffffffffffff1673ffffffffffffffffffffffffffffffffffffffff166108fc4790811502906040515f60405180830381858888f19350505050158015611703573d5f5f3e3d5ffd5b505050565b5f60055f8473ffffffffffffffffffffffffffffffffffffffff1673ffffffffffffffffffffffffffffffffffffffff1681526020019081526020015f205f8373ffffffffffffffffffffffffffffffffffffffff1673ffffffffffffffffffffffffffffffffffffffff1681526020019081526020015f205f9054906101000a900460ff16905092915050565b61179e611ec1565b5f73ffffffffffffffffffffffffffffffffffffffff168173ffffffffffffffffffffffffffffffffffffffff160361180e575f6040517f1e4fbdf70000000000000000000000000000000000000000000000000000000081526004016118059190612d44565b60405180910390fd5b61181781611f48565b50565b5f60095490505f600a5f8381526020019081526020015f20905085815f0190816118449190613c17565b5033816001015f6101000a81548173ffffffffffffffffffffffffffffffffffffffff021916908373ffffffffffffffffffffffffffffffffffffffff16021790555084816002018190555083816003018190555082816005015f6101000a81548160ff021916908360018111156118bf576118be612faf565b5b021790555060095f8154809291906118d690613828565b91905055507fb2b69c45b4e0e56fd8a8457b29fb7694a1a9162088a62c38b7b2b5d2d4017ea982873360405161190e93929190613ce6565b60405180910390a1505050505050565b5f7f80ac58cd000000000000000000000000000000000000000000000000000000007bffffffffffffffffffffffffffffffffffffffffffffffffffffffff1916827bffffffffffffffffffffffffffffffffffffffffffffffffffffffff191614806119e857507f5b5e139f000000000000000000000000000000000000000000000000000000007bffffffffffffffffffffffffffffffffffffffffffffffffffffffff1916827bffffffffffffffffffffffffffffffffffffffffffffffffffffffff1916145b806119f857506119f78261239c565b5b9050919050565b5f5f611a0a83612405565b90505f73ffffffffffffffffffffffffffffffffffffffff168173ffffffffffffffffffffffffffffffffffffffff1603611a7c57826040517f7e273289000000000000000000000000000000000000000000000000000000008152600401611a739190612ac9565b60405180910390fd5b80915050919050565b5f60045f8381526020019081526020015f205f9054906101000a900473ffffffffffffffffffffffffffffffffffffffff169050919050565b5f33905090565b611ad2838383600161243e565b505050565b5f73ffffffffffffffffffffffffffffffffffffffff168273ffffffffffffffffffffffffffffffffffffffff1603611b47575f6040517f64a0ae92000000000000000000000000000000000000000000000000000000008152600401611b3e9190612d44565b60405180910390fd5b5f611b5383835f611c3f565b90505f73ffffffffffffffffffffffffffffffffffffffff168173ffffffffffffffffffffffffffffffffffffffff1603611bc557816040517f7e273289000000000000000000000000000000000000000000000000000000008152600401611bbc9190612ac9565b60405180910390fd5b8373ffffffffffffffffffffffffffffffffffffffff168173ffffffffffffffffffffffffffffffffffffffff1614611c39578382826040517f64283d7b000000000000000000000000000000000000000000000000000000008152600401611c309392919061362d565b60405180910390fd5b50505050565b5f5f611c4a84612405565b90505f73ffffffffffffffffffffffffffffffffffffffff168373ffffffffffffffffffffffffffffffffffffffff1614611c8b57611c8a8184866125fd565b5b5f73ffffffffffffffffffffffffffffffffffffffff168173ffffffffffffffffffffffffffffffffffffffff1614611d1657611cca5f855f5f61243e565b600160035f8373ffffffffffffffffffffffffffffffffffffffff1673ffffffffffffffffffffffffffffffffffffffff1681526020019081526020015f205f82825403925050819055505b5f73ffffffffffffffffffffffffffffffffffffffff168573ffffffffffffffffffffffffffffffffffffffff1614611d9557600160035f8773ffffffffffffffffffffffffffffffffffffffff1673ffffffffffffffffffffffffffffffffffffffff1681526020019081526020015f205f82825401925050819055505b8460025f8681526020019081526020015f205f6101000a81548173ffffffffffffffffffffffffffffffffffffffff021916908373ffffffffffffffffffffffffffffffffffffffff160217905550838573ffffffffffffffffffffffffffffffffffffffff168273ffffffffffffffffffffffffffffffffffffffff167fddf252ad1be2c89b69c2b068fc378daa952ba7f163c4a11628f55a4df523b3ef60405160405180910390a4809150509392505050565b611e63828260405180602001604052805f8152506126c0565b5050565b8060065f8481526020019081526020015f209081611e859190613c17565b507ff8e1a15aba9398e019f0b49df1a4fde98ee17ae345cb5f6b5e2c27f5033e8ce782604051611eb59190612ac9565b60405180910390a15050565b611ec9611abe565b73ffffffffffffffffffffffffffffffffffffffff16611ee76112a1565b73ffffffffffffffffffffffffffffffffffffffff1614611f4657611f0a611abe565b6040517f118cdaa7000000000000000000000000000000000000000000000000000000008152600401611f3d9190612d44565b60405180910390fd5b565b5f60075f9054906101000a900473ffffffffffffffffffffffffffffffffffffffff1690508160075f6101000a81548173ffffffffffffffffffffffffffffffffffffffff021916908373ffffffffffffffffffffffffffffffffffffffff1602179055508173ffffffffffffffffffffffffffffffffffffffff168173ffffffffffffffffffffffffffffffffffffffff167f8be0079c531659141344cd1fd0a4f28419497f9722a3daafe3b4186f6b6457e060405160405180910390a35050565b5f73ffffffffffffffffffffffffffffffffffffffff168273ffffffffffffffffffffffffffffffffffffffff160361207b57816040517f5b08ba180000000000000000000000000000000000000000000000000000000081526004016120729190612d44565b60405180910390fd5b8060055f8573ffffffffffffffffffffffffffffffffffffffff1673ffffffffffffffffffffffffffffffffffffffff1681526020019081526020015f205f8473ffffffffffffffffffffffffffffffffffffffff1673ffffffffffffffffffffffffffffffffffffffff1681526020019081526020015f205f6101000a81548160ff0219169083151502179055508173ffffffffffffffffffffffffffffffffffffffff168373ffffffffffffffffffffffffffffffffffffffff167f17307eab39ab6107e8899845ad3d59bd9653f200f220920489ca2b5937696c31836040516121679190612b8d565b60405180910390a3505050565b5f8373ffffffffffffffffffffffffffffffffffffffff163b1115612319578273ffffffffffffffffffffffffffffffffffffffff1663150b7a02868685856040518563ffffffff1660e01b81526004016121d29493929190613d74565b6020604051808303815f875af192505050801561220d57506040513d601f19601f8201168201806040525081019061220a9190613dd2565b60015b61228e573d805f811461223b576040519150601f19603f3d011682016040523d82523d5f602084013e612240565b606091505b505f81510361228657836040517f64a0ae9200000000000000000000000000000000000000000000000000000000815260040161227d9190612d44565b60405180910390fd5b805181602001fd5b63150b7a0260e01b7bffffffffffffffffffffffffffffffffffffffffffffffffffffffff1916817bffffffffffffffffffffffffffffffffffffffffffffffffffffffff19161461231757836040517f64a0ae9200000000000000000000000000000000000000000000000000000000815260040161230e9190612d44565b60405180910390fd5b505b5050505050565b606060405180602001604052805f815250905090565b6060612341826119ff565b505f61234b612320565b90505f8151116123695760405180602001604052805f815250612394565b80612373846126e3565b6040516020016123849291906139ec565b6040516020818303038152906040525b915050919050565b5f7f01ffc9a7000000000000000000000000000000000000000000000000000000007bffffffffffffffffffffffffffffffffffffffffffffffffffffffff1916827bffffffffffffffffffffffffffffffffffffffffffffffffffffffff1916149050919050565b5f60025f8381526020019081526020015f205f9054906101000a900473ffffffffffffffffffffffffffffffffffffffff169050919050565b808061247657505f73ffffffffffffffffffffffffffffffffffffffff168273ffffffffffffffffffffffffffffffffffffffff1614155b156125a8575f612485846119ff565b90505f73ffffffffffffffffffffffffffffffffffffffff168373ffffffffffffffffffffffffffffffffffffffff16141580156124ef57508273ffffffffffffffffffffffffffffffffffffffff168173ffffffffffffffffffffffffffffffffffffffff1614155b801561250257506125008184611708565b155b1561254457826040517fa9fbf51f00000000000000000000000000000000000000000000000000000000815260040161253b9190612d44565b60405180910390fd5b81156125a657838573ffffffffffffffffffffffffffffffffffffffff168273ffffffffffffffffffffffffffffffffffffffff167f8c5be1e5ebec7d5bd14f71427d1e84f3dd0314c0f7b2291e5b200ac8c7c3b92560405160405180910390a45b505b8360045f8581526020019081526020015f205f6101000a81548173ffffffffffffffffffffffffffffffffffffffff021916908373ffffffffffffffffffffffffffffffffffffffff16021790555050505050565b6126088383836127ad565b6126bb575f73ffffffffffffffffffffffffffffffffffffffff168373ffffffffffffffffffffffffffffffffffffffff160361267c57806040517f7e2732890000000000000000000000000000000000000000000000000000000081526004016126739190612ac9565b60405180910390fd5b81816040517f177e802f0000000000000000000000000000000000000000000000000000000081526004016126b2929190613dfd565b60405180910390fd5b505050565b6126ca838361286d565b6126de6126d5611abe565b5f858585612174565b505050565b60605f60016126f184612960565b0190505f8167ffffffffffffffff81111561270f5761270e612e31565b5b6040519080825280601f01601f1916602001820160405280156127415781602001600182028036833780820191505090505b5090505f82602001820190505b6001156127a2578080600190039150507f3031323334353637383961626364656600000000000000000000000000000000600a86061a8153600a858161279757612796613e24565b5b0494505f850361274e575b819350505050919050565b5f5f73ffffffffffffffffffffffffffffffffffffffff168373ffffffffffffffffffffffffffffffffffffffff161415801561286457508273ffffffffffffffffffffffffffffffffffffffff168473ffffffffffffffffffffffffffffffffffffffff16148061282557506128248484611708565b5b8061286357508273ffffffffffffffffffffffffffffffffffffffff1661284b83611a85565b73ffffffffffffffffffffffffffffffffffffffff16145b5b90509392505050565b5f73ffffffffffffffffffffffffffffffffffffffff168273ffffffffffffffffffffffffffffffffffffffff16036128dd575f6040517f64a0ae920000000000000000000000000000000000000000000000000000000081526004016128d49190612d44565b60405180910390fd5b5f6128e983835f611c3f565b90505f73ffffffffffffffffffffffffffffffffffffffff168173ffffffffffffffffffffffffffffffffffffffff161461295b575f6040517f73c6ac6e0000000000000000000000000000000000000000000000000000000081526004016129529190612d44565b60405180910390fd5b505050565b5f5f5f90507a184f03e93ff9f4daa797ed6e38ed64bf6a1f01000000000000000083106129bc577a184f03e93ff9f4daa797ed6e38ed64bf6a1f01000000000000000083816129b2576129b1613e24565b5b0492506040810190505b6d04ee2d6d415b85acef810000000083106129f9576d04ee2d6d415b85acef810000000083816129ef576129ee613e24565b5b0492506020810190505b662386f26fc100008310612a2857662386f26fc100008381612a1e57612a1d613e24565b5b0492506010810190505b6305f5e1008310612a51576305f5e1008381612a4757612a46613e24565b5b0492506008810190505b6127108310612a76576127108381612a6c57612a6b613e24565b5b0492506004810190505b60648310612a995760648381612a8f57612a8e613e24565b5b0492506002810190505b600a8310612aa8576001810190505b80915050919050565b5f819050919050565b612ac381612ab1565b82525050565b5f602082019050612adc5f830184612aba565b92915050565b5f604051905090565b5f5ffd5b5f5ffd5b5f7fffffffff0000000000000000000000000000000000000000000000000000000082169050919050565b612b2781612af3565b8114612b31575f5ffd5b50565b5f81359050612b4281612b1e565b92915050565b5f60208284031215612b5d57612b5c612aeb565b5b5f612b6a84828501612b34565b91505092915050565b5f8115159050919050565b612b8781612b73565b82525050565b5f602082019050612ba05f830184612b7e565b92915050565b612baf81612ab1565b8114612bb9575f5ffd5b50565b5f81359050612bca81612ba6565b92915050565b5f73ffffffffffffffffffffffffffffffffffffffff82169050919050565b5f612bf982612bd0565b9050919050565b612c0981612bef565b8114612c13575f5ffd5b50565b5f81359050612c2481612c00565b92915050565b5f5f5f60608486031215612c4157612c40612aeb565b5b5f612c4e86828701612bbc565b9350506020612c5f86828701612c16565b9250506040612c7086828701612bbc565b9150509250925092565b5f81519050919050565b5f82825260208201905092915050565b8281835e5f83830152505050565b5f601f19601f8301169050919050565b5f612cbc82612c7a565b612cc68185612c84565b9350612cd6818560208601612c94565b612cdf81612ca2565b840191505092915050565b5f6020820190508181035f830152612d028184612cb2565b905092915050565b5f60208284031215612d1f57612d1e612aeb565b5b5f612d2c84828501612bbc565b91505092915050565b612d3e81612bef565b82525050565b5f602082019050612d575f830184612d35565b92915050565b5f5f60408385031215612d7357612d72612aeb565b5b5f612d8085828601612c16565b9250506020612d9185828601612bbc565b9150509250929050565b5f5f60408385031215612db157612db0612aeb565b5b5f612dbe85828601612bbc565b9250506020612dcf85828601612c16565b9150509250929050565b5f5f5f60608486031215612df057612def612aeb565b5b5f612dfd86828701612c16565b9350506020612e0e86828701612c16565b9250506040612e1f86828701612bbc565b9150509250925092565b5f5ffd5b5f5ffd5b7f4e487b71000000000000000000000000000000000000000000000000000000005f52604160045260245ffd5b612e6782612ca2565b810181811067ffffffffffffffff82111715612e8657612e85612e31565b5b80604052505050565b5f612e98612ae2565b9050612ea48282612e5e565b919050565b5f67ffffffffffffffff821115612ec357612ec2612e31565b5b612ecc82612ca2565b9050602081019050919050565b828183375f83830152505050565b5f612ef9612ef484612ea9565b612e8f565b905082815260208101848484011115612f1557612f14612e2d565b5b612f20848285612ed9565b509392505050565b5f82601f830112612f3c57612f3b612e29565b5b8135612f4c848260208601612ee7565b91505092915050565b5f5f60408385031215612f6b57612f6a612aeb565b5b5f612f7885828601612bbc565b925050602083013567ffffffffffffffff811115612f9957612f98612aef565b5b612fa585828601612f28565b9150509250929050565b7f4e487b71000000000000000000000000000000000000000000000000000000005f52602160045260245ffd5b60028110612fed57612fec612faf565b5b50565b5f819050612ffd82612fdc565b919050565b5f61300c82612ff0565b9050919050565b61301c81613002565b82525050565b5f60c0820190508181035f83015261303a8189612cb2565b90506130496020830188612d35565b6130566040830187612aba565b6130636060830186612aba565b6130706080830185612aba565b61307d60a0830184613013565b979650505050505050565b5f6020828403121561309d5761309c612aeb565b5b5f6130aa84828501612c16565b91505092915050565b6130bc81612b73565b81146130c6575f5ffd5b50565b5f813590506130d7816130b3565b92915050565b5f5f604083850312156130f3576130f2612aeb565b5b5f61310085828601612c16565b9250506020613111858286016130c9565b9150509250929050565b5f67ffffffffffffffff82111561313557613134612e31565b5b61313e82612ca2565b9050602081019050919050565b5f61315d6131588461311b565b612e8f565b90508281526020810184848401111561317957613178612e2d565b5b613184848285612ed9565b509392505050565b5f82601f8301126131a05761319f612e29565b5b81356131b084826020860161314b565b91505092915050565b5f5f5f5f608085870312156131d1576131d0612aeb565b5b5f6131de87828801612c16565b94505060206131ef87828801612c16565b935050604061320087828801612bbc565b925050606085013567ffffffffffffffff81111561322157613220612aef565b5b61322d8782880161318c565b91505092959194509250565b5f5f6040838503121561324f5761324e612aeb565b5b5f61325c85828601612c16565b925050602061326d85828601612c16565b9150509250929050565b60028110613283575f5ffd5b50565b5f8135905061329481613277565b92915050565b5f5f5f5f608085870312156132b2576132b1612aeb565b5b5f85013567ffffffffffffffff8111156132cf576132ce612aef565b5b6132db87828801612f28565b94505060206132ec87828801612bbc565b93505060406132fd87828801612bbc565b925050606061330e87828801613286565b91505092959194509250565b7f4170656e6173206f206f7267616e697a61646f7220706f6465207265706173735f8201527f6172000000000000000000000000000000000000000000000000000000000000602082015250565b5f613374602283612c84565b915061337f8261331a565b604082019050919050565b5f6020820190508181035f8301526133a181613368565b9050919050565b7f4e487b71000000000000000000000000000000000000000000000000000000005f52601160045260245ffd5b5f6133df82612ab1565b91506133ea83612ab1565b9250828201905080821115613402576134016133a8565b5b92915050565b7f4e616f20686120696e67726573736f7320737566696369656e746573000000005f82015250565b5f61343c601c83612c84565b915061344782613408565b602082019050919050565b5f6020820190508181035f83015261346981613430565b9050919050565b5f6060820190506134835f830186612aba565b6134906020830185612d35565b61349d6040830184612aba565b949350505050565b7f4e487b71000000000000000000000000000000000000000000000000000000005f52602260045260245ffd5b5f60028204905060018216806134e957607f821691505b6020821081036134fc576134fb6134a5565b5b50919050565b7f566f6365206e616f20706f73737569206573746520696e67726573736f0000005f82015250565b5f613536601d83612c84565b915061354182613502565b602082019050919050565b5f6020820190508181035f8301526135638161352a565b9050919050565b5f60608201905061357d5f830186612aba565b61358a6020830185612d35565b6135976040830184612d35565b949350505050565b7f4170656e6173206f206f7267616e697a61646f7220706f646520636f6e7669645f8201527f6172000000000000000000000000000000000000000000000000000000000000602082015250565b5f6135f9602283612c84565b91506136048261359f565b604082019050919050565b5f6020820190508181035f830152613626816135ed565b9050919050565b5f6060820190506136405f830186612d35565b61364d6020830185612aba565b61365a6040830184612d35565b949350505050565b7f4576656e746f20696e6578697374656e746500000000000000000000000000005f82015250565b5f613696601283612c84565b91506136a182613662565b602082019050919050565b5f6020820190508181035f8301526136c38161368a565b9050919050565b7f496e67726573736f73206573676f7461646f73000000000000000000000000005f82015250565b5f6136fe601383612c84565b9150613709826136ca565b602082019050919050565b5f6020820190508181035f83015261372b816136f2565b9050919050565b7f56616c6f7220696e636f727265746f00000000000000000000000000000000005f82015250565b5f613766600f83612c84565b915061377182613732565b602082019050919050565b5f6020820190508181035f8301526137938161375a565b9050919050565b7f566f6365206e616f2065737461206e61206c6973746120646520636f6e7669645f8201527f61646f7300000000000000000000000000000000000000000000000000000000602082015250565b5f6137f4602483612c84565b91506137ff8261379a565b604082019050919050565b5f6020820190508181035f830152613821816137e8565b9050919050565b5f61383282612ab1565b91507fffffffffffffffffffffffffffffffffffffffffffffffffffffffffffffffff8203613864576138636133a8565b5b600182019050919050565b7f53656d20696e67726573736f7320646973706f6e6976656973207061726120725f8201527f6576656e64610000000000000000000000000000000000000000000000000000602082015250565b5f6138c9602683612c84565b91506138d48261386f565b604082019050919050565b5f6020820190508181035f8301526138f6816138bd565b9050919050565b5f61390782612ab1565b91505f8203613919576139186133a8565b5b600182039050919050565b7f4170656e6173206f206f7267616e697a61646f7220706f64652072656d6f76655f8201527f7200000000000000000000000000000000000000000000000000000000000000602082015250565b5f61397e602183612c84565b915061398982613924565b604082019050919050565b5f6020820190508181035f8301526139ab81613972565b9050919050565b5f81905092915050565b5f6139c682612c7a565b6139d081856139b2565b93506139e0818560208601612c94565b80840191505092915050565b5f6139f782856139bc565b9150613a0382846139bc565b91508190509392505050565b7f4170656e6173206f206f7267616e697a61646f7220706f6465207361636172005f82015250565b5f613a43601f83612c84565b9150613a4e82613a0f565b602082019050919050565b5f6020820190508181035f830152613a7081613a37565b9050919050565b5f819050815f5260205f209050919050565b5f6020601f8301049050919050565b5f82821b905092915050565b5f60088302613ad37fffffffffffffffffffffffffffffffffffffffffffffffffffffffffffffffff82613a98565b613add8683613a98565b95508019841693508086168417925050509392505050565b5f819050919050565b5f613b18613b13613b0e84612ab1565b613af5565b612ab1565b9050919050565b5f819050919050565b613b3183613afe565b613b45613b3d82613b1f565b848454613aa4565b825550505050565b5f5f905090565b613b5c613b4d565b613b67818484613b28565b505050565b5b81811015613b8a57613b7f5f82613b54565b600181019050613b6d565b5050565b601f821115613bcf57613ba081613a77565b613ba984613a89565b81016020851015613bb8578190505b613bcc613bc485613a89565b830182613b6c565b50505b505050565b5f82821c905092915050565b5f613bef5f1984600802613bd4565b1980831691505092915050565b5f613c078383613be0565b9150826002028217905092915050565b613c2082612c7a565b67ffffffffffffffff811115613c3957613c38612e31565b5b613c4382546134d2565b613c4e828285613b8e565b5f60209050601f831160018114613c7f575f8415613c6d578287015190505b613c778582613bfc565b865550613cde565b601f198416613c8d86613a77565b5f5b82811015613cb457848901518255600182019150602085019450602081019050613c8f565b86831015613cd15784890151613ccd601f891682613be0565b8355505b6001600288020188555050505b505050505050565b5f606082019050613cf95f830186612aba565b8181036020830152613d0b8185612cb2565b9050613d1a6040830184612d35565b949350505050565b5f81519050919050565b5f82825260208201905092915050565b5f613d4682613d22565b613d508185613d2c565b9350613d60818560208601612c94565b613d6981612ca2565b840191505092915050565b5f608082019050613d875f830187612d35565b613d946020830186612d35565b613da16040830185612aba565b8181036060830152613db38184613d3c565b905095945050505050565b5f81519050613dcc81612b1e565b92915050565b5f60208284031215613de757613de6612aeb565b5b5f613df484828501613dbe565b91505092915050565b5f604082019050613e105f830185612d35565b613e1d6020830184612aba565b9392505050565b7f4e487b71000000000000000000000000000000000000000000000000000000005f52601260045260245ffdfea264697066735822122078b9dc7b9aa0e252d7959c36277af75a36d611134659ab848e1875c998f6d72d64736f6c634300081e0033","linkReferences":{}},"methodIdentifiers":{"adicionarConvidado(uint256,address)":"0f789cb7","approve(address,uint256)":"095ea7b3","balanceOf(address)":"70a08231","comprarIngresso(uint256,string)":"4378730c","criarEvento(string,uint256,uint256,uint8)":"ffc19183","estaConvidado(uint256,address)":"b4bbd8bb","getApproved(uint256)":"081812fc","ingressoParaEvento(uint256)":"5e9bc15a","isApprovedForAll(address,address)":"e985e9c5","name()":"06fdde03","obterDadosEvento(uint256)":"6064fccd","owner()":"8da5cb5b","ownerOf(uint256)":"6352211e","proximoIdEvento()":"01161766","proximoIdIngresso()":"c84571f0","renounceOwnership()":"715018a6","repassarIngressos(uint256,address,uint256)":"06bd36f4","retirarRevendedor(uint256,address)":"a76744ff","revenderIngresso(uint256,address)":"0caf01f8","sacarFundos(uint256)":"d10e7fd7","safeTransferFrom(address,address,uint256)":"42842e0e","safeTransferFrom(address,address,uint256,bytes)":"b88d4fde","setApprovalForAll(address,bool)":"a22cb465","supportsInterface(bytes4)":"01ffc9a7","symbol()":"95d89b41","tokenURI(uint256)":"c87b56dd","transferFrom(address,address,uint256)":"23b872dd","transferOwnership(address)":"f2fde38b","venderComoRevendedor(uint256,string)":"7018af40"},"id":38}