{"abi":[{"type":"constructor","inputs":[{"name":"tokenAddress","type":"address","internalType":"address"},{"name":"ingressoNFTAddress","type":"address","internalType":"address"}],"stateMutability":"nonpayable"},{"type":"function","name":"adicionarConvidado","inputs":[{"name":"idEvento","type":"uint256","internalType":"uint256"},{"name":"convidado","type":"address","internalType":"address"}],"outputs":[],"stateMutability":"nonpayable"},{"type":"function","name":"comprarIngresso","inputs":[{"name":"idEvento","type":"uint256","internalType":"uint256"}],"outputs":[],"stateMutability":"nonpayable"},{"type":"function","name":"criarEvento","inputs":[{"name":"nome","type":"string","internalType":"string"},{"name":"precoEmReais","type":"uint256","internalType":"uint256"},{"name":"totalIngressos","type":"uint256","internalType":"uint256"},{"name":"tipo","type":"uint8","internalType":"enum VendaIngressos.TipoVenda"},{"name":"dataEvento","type":"uint256","internalType":"uint256"},{"name":"dataEncerramento","type":"uint256","internalType":"uint256"}],"outputs":[],"stateMutability":"nonpayable"},{"type":"function","name":"estaConvidado","inputs":[{"name":"idEvento","type":"uint256","internalType":"uint256"},{"name":"usuario","type":"address","internalType":"address"}],"outputs":[{"name":"","type":"bool","internalType":"bool"}],"stateMutability":"view"},{"type":"function","name":"ingressoNFT","inputs":[],"outputs":[{"name":"","type":"address","internalType":"contract IngressoNFT"}],"stateMutability":"view"},{"type":"function","name":"ingressosDoUsuario","inputs":[{"name":"usuario","type":"address","internalType":"address"}],"outputs":[{"name":"","type":"uint256[]","internalType":"uint256[]"}],"stateMutability":"view"},{"type":"function","name":"ingressosPorUsuario","inputs":[{"name":"","type":"address","internalType":"address"},{"name":"","type":"uint256","internalType":"uint256"}],"outputs":[{"name":"","type":"uint256","internalType":"uint256"}],"stateMutability":"view"},{"type":"function","name":"obterDadosEvento","inputs":[{"name":"idEvento","type":"uint256","internalType":"uint256"}],"outputs":[{"name":"nome","type":"string","internalType":"string"},{"name":"organizador","type":"address","internalType":"address"},{"name":"precoEmReais","type":"uint256","internalType":"uint256"},{"name":"totalIngressos","type":"uint256","internalType":"uint256"},{"name":"vendidos","type":"uint256","internalType":"uint256"},{"name":"tipo","type":"uint8","internalType":"enum VendaIngressos.TipoVenda"},{"name":"dataEvento","type":"uint256","internalType":"uint256"},{"name":"dataEncerramento","type":"uint256","internalType":"uint256"}],"stateMutability":"view"},{"type":"function","name":"owner","inputs":[],"outputs":[{"name":"","type":"address","internalType":"address"}],"stateMutability":"view"},{"type":"function","name":"proximoIdEvento","inputs":[],"outputs":[{"name":"","type":"uint256","internalType":"uint256"}],"stateMutability":"view"},{"type":"function","name":"renounceOwnership","inputs":[],"outputs":[],"stateMutability":"nonpayable"},{"type":"function","name":"repassarIngressos","inputs":[{"name":"idEvento","type":"uint256","internalType":"uint256"},{"name":"revendedor","type":"address","internalType":"address"},{"name":"quantidade","type":"uint256","internalType":"uint256"}],"outputs":[],"stateMutability":"nonpayable"},{"type":"function","name":"token","inputs":[],"outputs":[{"name":"","type":"address","internalType":"contract IERC20"}],"stateMutability":"view"},{"type":"function","name":"transferOwnership","inputs":[{"name":"newOwner","type":"address","internalType":"address"}],"outputs":[],"stateMutability":"nonpayable"},{"type":"event","name":"EventoCriado","inputs":[{"name":"id","type":"uint256","indexed":false,"internalType":"uint256"},{"name":"nome","type":"string","indexed":false,"internalType":"string"},{"name":"organizador","type":"address","indexed":false,"internalType":"address"}],"anonymous":false},{"type":"event","name":"IngressoComprado","inputs":[{"name":"idEvento","type":"uint256","indexed":false,"internalType":"uint256"},{"name":"comprador","type":"address","indexed":false,"internalType":"address"},{"name":"tokenId","type":"uint256","indexed":false,"internalType":"uint256"}],"anonymous":false},{"type":"event","name":"IngressosRepassados","inputs":[{"name":"idEvento","type":"uint256","indexed":false,"internalType":"uint256"},{"name":"revendedor","type":"address","indexed":false,"internalType":"address"},{"name":"qtd","type":"uint256","indexed":false,"internalType":"uint256"}],"anonymous":false},{"type":"event","name":"OwnershipTransferred","inputs":[{"name":"previousOwner","type":"address","indexed":true,"internalType":"address"},{"name":"newOwner","type":"address","indexed":true,"internalType":"address"}],"anonymous":false},{"type":"error","name":"OwnableInvalidOwner","inputs":[{"name":"owner","type":"address","internalType":"address"}]},{"type":"error","name":"OwnableUnauthorizedAccount","inputs":[{"name":"account","type":"address","internalType":"address"}]}],"bytecode":{"object":"0x608060405234801561000f575f5ffd5b506040516125e13803806125e183398181016040528101906100319190610258565b335f73ffffffffffffffffffffffffffffffffffffffff168173ffffffffffffffffffffffffffffffffffffffff16036100a2575f6040517f1e4fbdf700000000000000000000000000000000000000000000000000000000815260040161009991906102a5565b60405180910390fd5b6100b18161013960201b60201c565b508160015f6101000a81548173ffffffffffffffffffffffffffffffffffffffff021916908373ffffffffffffffffffffffffffffffffffffffff1602179055508060025f6101000a81548173ffffffffffffffffffffffffffffffffffffffff021916908373ffffffffffffffffffffffffffffffffffffffff16021790555050506102be565b5f5f5f9054906101000a900473ffffffffffffffffffffffffffffffffffffffff169050815f5f6101000a81548173ffffffffffffffffffffffffffffffffffffffff021916908373ffffffffffffffffffffffffffffffffffffffff1602179055508173ffffffffffffffffffffffffffffffffffffffff168173ffffffffffffffffffffffffffffffffffffffff167f8be0079c531659141344cd1fd0a4f28419497f9722a3daafe3b4186f6b6457e060405160405180910390a35050565b5f5ffd5b5f73ffffffffffffffffffffffffffffffffffffffff82169050919050565b5f610227826101fe565b9050919050565b6102378161021d565b8114610241575f5ffd5b50565b5f815190506102528161022e565b92915050565b5f5f6040838503121561026e5761026d6101fa565b5b5f61027b85828601610244565b925050602061028c85828601610244565b9150509250929050565b61029f8161021d565b82525050565b5f6020820190506102b85f830184610296565b92915050565b612316806102cb5f395ff3fe608060405234801561000f575f5ffd5b50600436106100e8575f3560e01c8063715018a61161008a578063b4bbd8bb11610064578063b4bbd8bb1461023b578063c8b86c6d1461026b578063f2fde38b14610287578063fc0c546a146102a3576100e8565b8063715018a6146101f75780638da5cb5b1461020157806399fd92391461021f576100e8565b80635cfcbdc7116100c65780635cfcbdc7146101425780635d26e8fa146101605780636064fccd146101905780636096dda5146101c7576100e8565b806301161766146100ec57806306bd36f41461010a5780630f789cb714610126575b5f5ffd5b6100f46102c1565b60405161010191906111e5565b60405180910390f35b610124600480360381019061011f919061128a565b6102c7565b005b610140600480360381019061013b91906112da565b6104c5565b005b61014a6105c6565b6040516101579190611373565b60405180910390f35b61017a6004803603810190610175919061138c565b6105eb565b604051610187919061146e565b60405180910390f35b6101aa60048036038101906101a5919061148e565b61067e565b6040516101be9897969594939291906115ab565b60405180910390f35b6101e160048036038101906101dc919061162e565b610792565b6040516101ee91906111e5565b60405180910390f35b6101ff6107bd565b005b6102096107d0565b604051610216919061166c565b60405180910390f35b61023960048036038101906102349190611709565b6107f7565b005b610255600480360381019061025091906112da565b610953565b60405161026291906117cd565b60405180910390f35b6102856004803603810190610280919061148e565b6109b8565b005b6102a1600480360381019061029c919061138c565b610dba565b005b6102ab610e3e565b6040516102b89190611806565b60405180910390f35b60035481565b5f60045f8581526020019081526020015f209050806007015f9054906101000a900473ffffffffffffffffffffffffffffffffffffffff1673ffffffffffffffffffffffffffffffffffffffff163373ffffffffffffffffffffffffffffffffffffffff161461036c576040517f08c379a000000000000000000000000000000000000000000000000000000000815260040161036390611869565b60405180910390fd5b806002015482826003015461038191906118b4565b11156103c2576040517f08c379a00000000000000000000000000000000000000000000000000000000081526004016103b990611931565b60405180910390fd5b600281600201546103d3919061197c565b821115610415576040517f08c379a000000000000000000000000000000000000000000000000000000000815260040161040c906119f6565b60405180910390fd5b81816009015f8573ffffffffffffffffffffffffffffffffffffffff1673ffffffffffffffffffffffffffffffffffffffff1681526020019081526020015f205f82825461046391906118b4565b9250508190555081816003015f82825461047d91906118b4565b925050819055507fcc5509fa261485689aa8a65bfdfba46eb4a3daccd3e9ba0075bae4f2a1b9631b8484846040516104b793929190611a14565b60405180910390a150505050565b5f60045f8481526020019081526020015f209050806007015f9054906101000a900473ffffffffffffffffffffffffffffffffffffffff1673ffffffffffffffffffffffffffffffffffffffff163373ffffffffffffffffffffffffffffffffffffffff161461056a576040517f08c379a000000000000000000000000000000000000000000000000000000000815260040161056190611ab9565b60405180910390fd5b6001816008015f8473ffffffffffffffffffffffffffffffffffffffff1673ffffffffffffffffffffffffffffffffffffffff1681526020019081526020015f205f6101000a81548160ff021916908315150217905550505050565b60025f9054906101000a900473ffffffffffffffffffffffffffffffffffffffff1681565b606060055f8373ffffffffffffffffffffffffffffffffffffffff1673ffffffffffffffffffffffffffffffffffffffff1681526020019081526020015f2080548060200260200160405190810160405280929190818152602001828054801561067257602002820191905f5260205f20905b81548152602001906001019080831161065e575b50505050509050919050565b60605f5f5f5f5f5f5f5f60045f8b81526020019081526020015f209050805f01816007015f9054906101000a900473ffffffffffffffffffffffffffffffffffffffff16826001015483600201548460030154856004015f9054906101000a900460ff16866005015487600601548780546106f890611b04565b80601f016020809104026020016040519081016040528092919081815260200182805461072490611b04565b801561076f5780601f106107465761010080835404028352916020019161076f565b820191905f5260205f20905b81548152906001019060200180831161075257829003601f168201915b505050505097509850985098509850985098509850985050919395975091939597565b6005602052815f5260405f2081815481106107ab575f80fd5b905f5260205f20015f91509150505481565b6107c5610e63565b6107ce5f610eea565b565b5f5f5f9054906101000a900473ffffffffffffffffffffffffffffffffffffffff16905090565b818110610839576040517f08c379a000000000000000000000000000000000000000000000000000000000815260040161083090611ba4565b60405180910390fd5b5f60045f60035481526020019081526020015f2090508787825f019182610861929190611d90565b5085816001018190555084816002018190555083816004015f6101000a81548160ff0219169083600181111561089a57610899611538565b5b021790555082816005018190555081816006018190555033816007015f6101000a81548173ffffffffffffffffffffffffffffffffffffffff021916908373ffffffffffffffffffffffffffffffffffffffff1602179055507fb2b69c45b4e0e56fd8a8457b29fb7694a1a9162088a62c38b7b2b5d2d4017ea960035489893360405161092a9493929190611e97565b60405180910390a160035f81548092919061094490611ed5565b91905055505050505050505050565b5f60045f8481526020019081526020015f206008015f8373ffffffffffffffffffffffffffffffffffffffff1673ffffffffffffffffffffffffffffffffffffffff1681526020019081526020015f205f9054906101000a900460ff16905092915050565b5f60045f8381526020019081526020015f20905080600601544210610a12576040517f08c379a0000000000000000000000000000000000000000000000000000000008152600401610a0990611f66565b60405180910390fd5b8060020154816003015410610a5c576040517f08c379a0000000000000000000000000000000000000000000000000000000008152600401610a5390611fce565b60405180910390fd5b600180811115610a6f57610a6e611538565b5b816004015f9054906101000a900460ff166001811115610a9257610a91611538565b5b03610b2357806008015f3373ffffffffffffffffffffffffffffffffffffffff1673ffffffffffffffffffffffffffffffffffffffff1681526020019081526020015f205f9054906101000a900460ff16610b22576040517f08c379a0000000000000000000000000000000000000000000000000000000008152600401610b1990612036565b60405180910390fd5b5b60015f9054906101000a900473ffffffffffffffffffffffffffffffffffffffff1673ffffffffffffffffffffffffffffffffffffffff166323b872dd33836007015f9054906101000a900473ffffffffffffffffffffffffffffffffffffffff1684600101546040518463ffffffff1660e01b8152600401610ba893929190612054565b6020604051808303815f875af1158015610bc4573d5f5f3e3d5ffd5b505050506040513d601f19601f82011682018060405250810190610be891906120b3565b610c27576040517f08c379a0000000000000000000000000000000000000000000000000000000008152600401610c1e90612128565b60405180910390fd5b806003015f815480929190610c3b90611ed5565b91905055505f610c4a83610fab565b610c578360030154610fab565b604051602001610c6892919061223a565b60405160208183030381529060405290505f60025f9054906101000a900473ffffffffffffffffffffffffffffffffffffffff1673ffffffffffffffffffffffffffffffffffffffff1663d0def52133846040518363ffffffff1660e01b8152600401610cd6929190612273565b6020604051808303815f875af1158015610cf2573d5f5f3e3d5ffd5b505050506040513d601f19601f82011682018060405250810190610d1691906122b5565b905060055f3373ffffffffffffffffffffffffffffffffffffffff1673ffffffffffffffffffffffffffffffffffffffff1681526020019081526020015f2081908060018154018082558091505060019003905f5260205f20015f90919091909150557f25ab691d370cebf479225870a95327553156860c18595df840b852742bb106de843383604051610dac93929190611a14565b60405180910390a150505050565b610dc2610e63565b5f73ffffffffffffffffffffffffffffffffffffffff168173ffffffffffffffffffffffffffffffffffffffff1603610e32575f6040517f1e4fbdf7000000000000000000000000000000000000000000000000000000008152600401610e29919061166c565b60405180910390fd5b610e3b81610eea565b50565b60015f9054906101000a900473ffffffffffffffffffffffffffffffffffffffff1681565b610e6b611075565b73ffffffffffffffffffffffffffffffffffffffff16610e896107d0565b73ffffffffffffffffffffffffffffffffffffffff1614610ee857610eac611075565b6040517f118cdaa7000000000000000000000000000000000000000000000000000000008152600401610edf919061166c565b60405180910390fd5b565b5f5f5f9054906101000a900473ffffffffffffffffffffffffffffffffffffffff169050815f5f6101000a81548173ffffffffffffffffffffffffffffffffffffffff021916908373ffffffffffffffffffffffffffffffffffffffff1602179055508173ffffffffffffffffffffffffffffffffffffffff168173ffffffffffffffffffffffffffffffffffffffff167f8be0079c531659141344cd1fd0a4f28419497f9722a3daafe3b4186f6b6457e060405160405180910390a35050565b60605f6001610fb98461107c565b0190505f8167ffffffffffffffff811115610fd757610fd6611bcc565b5b6040519080825280601f01601f1916602001820160405280156110095781602001600182028036833780820191505090505b5090505f82602001820190505b60011561106a578080600190039150507f3031323334353637383961626364656600000000000000000000000000000000600a86061a8153600a858161105f5761105e61194f565b5b0494505f8503611016575b819350505050919050565b5f33905090565b5f5f5f90507a184f03e93ff9f4daa797ed6e38ed64bf6a1f01000000000000000083106110d8577a184f03e93ff9f4daa797ed6e38ed64bf6a1f01000000000000000083816110ce576110cd61194f565b5b0492506040810190505b6d04ee2d6d415b85acef81000000008310611115576d04ee2d6d415b85acef8100000000838161110b5761110a61194f565b5b0492506020810190505b662386f26fc10000831061114457662386f26fc10000838161113a5761113961194f565b5b0492506010810190505b6305f5e100831061116d576305f5e10083816111635761116261194f565b5b0492506008810190505b61271083106111925761271083816111885761118761194f565b5b0492506004810190505b606483106111b557606483816111ab576111aa61194f565b5b0492506002810190505b600a83106111c4576001810190505b80915050919050565b5f819050919050565b6111df816111cd565b82525050565b5f6020820190506111f85f8301846111d6565b92915050565b5f5ffd5b5f5ffd5b61120f816111cd565b8114611219575f5ffd5b50565b5f8135905061122a81611206565b92915050565b5f73ffffffffffffffffffffffffffffffffffffffff82169050919050565b5f61125982611230565b9050919050565b6112698161124f565b8114611273575f5ffd5b50565b5f8135905061128481611260565b92915050565b5f5f5f606084860312156112a1576112a06111fe565b5b5f6112ae8682870161121c565b93505060206112bf86828701611276565b92505060406112d08682870161121c565b9150509250925092565b5f5f604083850312156112f0576112ef6111fe565b5b5f6112fd8582860161121c565b925050602061130e85828601611276565b9150509250929050565b5f819050919050565b5f61133b61133661133184611230565b611318565b611230565b9050919050565b5f61134c82611321565b9050919050565b5f61135d82611342565b9050919050565b61136d81611353565b82525050565b5f6020820190506113865f830184611364565b92915050565b5f602082840312156113a1576113a06111fe565b5b5f6113ae84828501611276565b91505092915050565b5f81519050919050565b5f82825260208201905092915050565b5f819050602082019050919050565b6113e9816111cd565b82525050565b5f6113fa83836113e0565b60208301905092915050565b5f602082019050919050565b5f61141c826113b7565b61142681856113c1565b9350611431836113d1565b805f5b8381101561146157815161144888826113ef565b975061145383611406565b925050600181019050611434565b5085935050505092915050565b5f6020820190508181035f8301526114868184611412565b905092915050565b5f602082840312156114a3576114a26111fe565b5b5f6114b08482850161121c565b91505092915050565b5f81519050919050565b5f82825260208201905092915050565b8281835e5f83830152505050565b5f601f19601f8301169050919050565b5f6114fb826114b9565b61150581856114c3565b93506115158185602086016114d3565b61151e816114e1565b840191505092915050565b6115328161124f565b82525050565b7f4e487b71000000000000000000000000000000000000000000000000000000005f52602160045260245ffd5b6002811061157657611575611538565b5b50565b5f81905061158682611565565b919050565b5f61159582611579565b9050919050565b6115a58161158b565b82525050565b5f610100820190508181035f8301526115c4818b6114f1565b90506115d3602083018a611529565b6115e060408301896111d6565b6115ed60608301886111d6565b6115fa60808301876111d6565b61160760a083018661159c565b61161460c08301856111d6565b61162160e08301846111d6565b9998505050505050505050565b5f5f60408385031215611644576116436111fe565b5b5f61165185828601611276565b92505060206116628582860161121c565b9150509250929050565b5f60208201905061167f5f830184611529565b92915050565b5f5ffd5b5f5ffd5b5f5ffd5b5f5f83601f8401126116a6576116a5611685565b5b8235905067ffffffffffffffff8111156116c3576116c2611689565b5b6020830191508360018202830111156116df576116de61168d565b5b9250929050565b600281106116f2575f5ffd5b50565b5f81359050611703816116e6565b92915050565b5f5f5f5f5f5f5f60c0888a031215611724576117236111fe565b5b5f88013567ffffffffffffffff81111561174157611740611202565b5b61174d8a828b01611691565b975097505060206117608a828b0161121c565b95505060406117718a828b0161121c565b94505060606117828a828b016116f5565b93505060806117938a828b0161121c565b92505060a06117a48a828b0161121c565b91505092959891949750929550565b5f8115159050919050565b6117c7816117b3565b82525050565b5f6020820190506117e05f8301846117be565b92915050565b5f6117f082611342565b9050919050565b611800816117e6565b82525050565b5f6020820190506118195f8301846117f7565b92915050565b7f4170656e6173206f7267616e697a61646f7200000000000000000000000000005f82015250565b5f6118536012836114c3565b915061185e8261181f565b602082019050919050565b5f6020820190508181035f83015261188081611847565b9050919050565b7f4e487b71000000000000000000000000000000000000000000000000000000005f52601160045260245ffd5b5f6118be826111cd565b91506118c9836111cd565b92508282019050808211156118e1576118e0611887565b5b92915050565b7f45786365646520746f74616c00000000000000000000000000000000000000005f82015250565b5f61191b600c836114c3565b9150611926826118e7565b602082019050919050565b5f6020820190508181035f8301526119488161190f565b9050919050565b7f4e487b71000000000000000000000000000000000000000000000000000000005f52601260045260245ffd5b5f611986826111cd565b9150611991836111cd565b9250826119a1576119a061194f565b5b828204905092915050565b7f4d6178696d6f20353025207061726120726576656e64610000000000000000005f82015250565b5f6119e06017836114c3565b91506119eb826119ac565b602082019050919050565b5f6020820190508181035f830152611a0d816119d4565b9050919050565b5f606082019050611a275f8301866111d6565b611a346020830185611529565b611a4160408301846111d6565b949350505050565b7f4170656e6173206f206f7267616e697a61646f7220706f646520636f6e7669645f8201527f6172000000000000000000000000000000000000000000000000000000000000602082015250565b5f611aa36022836114c3565b9150611aae82611a49565b604082019050919050565b5f6020820190508181035f830152611ad081611a97565b9050919050565b7f4e487b71000000000000000000000000000000000000000000000000000000005f52602260045260245ffd5b5f6002820490506001821680611b1b57607f821691505b602082108103611b2e57611b2d611ad7565b5b50919050565b7f456e63657272616d656e746f20646576652073657220616e74657320646f20655f8201527f76656e746f000000000000000000000000000000000000000000000000000000602082015250565b5f611b8e6025836114c3565b9150611b9982611b34565b604082019050919050565b5f6020820190508181035f830152611bbb81611b82565b9050919050565b5f82905092915050565b7f4e487b71000000000000000000000000000000000000000000000000000000005f52604160045260245ffd5b5f819050815f5260205f209050919050565b5f6020601f8301049050919050565b5f82821b905092915050565b5f60088302611c557fffffffffffffffffffffffffffffffffffffffffffffffffffffffffffffffff82611c1a565b611c5f8683611c1a565b95508019841693508086168417925050509392505050565b5f611c91611c8c611c87846111cd565b611318565b6111cd565b9050919050565b5f819050919050565b611caa83611c77565b611cbe611cb682611c98565b848454611c26565b825550505050565b5f5f905090565b611cd5611cc6565b611ce0818484611ca1565b505050565b5b81811015611d0357611cf85f82611ccd565b600181019050611ce6565b5050565b601f821115611d4857611d1981611bf9565b611d2284611c0b565b81016020851015611d31578190505b611d45611d3d85611c0b565b830182611ce5565b50505b505050565b5f82821c905092915050565b5f611d685f1984600802611d4d565b1980831691505092915050565b5f611d808383611d59565b9150826002028217905092915050565b611d9a8383611bc2565b67ffffffffffffffff811115611db357611db2611bcc565b5b611dbd8254611b04565b611dc8828285611d07565b5f601f831160018114611df5575f8415611de3578287013590505b611ded8582611d75565b865550611e54565b601f198416611e0386611bf9565b5f5b82811015611e2a57848901358255600182019150602085019450602081019050611e05565b86831015611e475784890135611e43601f891682611d59565b8355505b6001600288020188555050505b50505050505050565b828183375f83830152505050565b5f611e7683856114c3565b9350611e83838584611e5d565b611e8c836114e1565b840190509392505050565b5f606082019050611eaa5f8301876111d6565b8181036020830152611ebd818587611e6b565b9050611ecc6040830184611529565b95945050505050565b5f611edf826111cd565b91507fffffffffffffffffffffffffffffffffffffffffffffffffffffffffffffffff8203611f1157611f10611887565b5b600182019050919050565b7f56656e64617320656e63657272616461730000000000000000000000000000005f82015250565b5f611f506011836114c3565b9150611f5b82611f1c565b602082019050919050565b5f6020820190508181035f830152611f7d81611f44565b9050919050565b7f496e67726573736f73206573676f7461646f73000000000000000000000000005f82015250565b5f611fb86013836114c3565b9150611fc382611f84565b602082019050919050565b5f6020820190508181035f830152611fe581611fac565b9050919050565b7f4e616f2065737461206e61206c6973746120646520636f6e76696461646f73005f82015250565b5f612020601f836114c3565b915061202b82611fec565b602082019050919050565b5f6020820190508181035f83015261204d81612014565b9050919050565b5f6060820190506120675f830186611529565b6120746020830185611529565b61208160408301846111d6565b949350505050565b612092816117b3565b811461209c575f5ffd5b50565b5f815190506120ad81612089565b92915050565b5f602082840312156120c8576120c76111fe565b5b5f6120d58482850161209f565b91505092915050565b7f46616c6861206e6f20706167616d656e746f00000000000000000000000000005f82015250565b5f6121126012836114c3565b915061211d826120de565b602082019050919050565b5f6020820190508181035f83015261213f81612106565b9050919050565b5f81905092915050565b7f68747470733a2f2f6d657573696e67726573736f732e636f6d2f6d65746164615f8201527f74612f0000000000000000000000000000000000000000000000000000000000602082015250565b5f6121aa602383612146565b91506121b582612150565b602382019050919050565b5f6121ca826114b9565b6121d48185612146565b93506121e48185602086016114d3565b80840191505092915050565b7f2f000000000000000000000000000000000000000000000000000000000000005f82015250565b5f612224600183612146565b915061222f826121f0565b600182019050919050565b5f6122448261219e565b915061225082856121c0565b915061225b82612218565b915061226782846121c0565b91508190509392505050565b5f6040820190506122865f830185611529565b818103602083015261229881846114f1565b90509392505050565b5f815190506122af81611206565b92915050565b5f602082840312156122ca576122c96111fe565b5b5f6122d7848285016122a1565b9150509291505056fea26469706673582212200fe33dba65cb32b9c918fb3bae9fd1d01012530ed9730883ac550ba1aae7588564736f6c634300081e0033","linkReferences":{}},"methodIdentifiers":{"adicionarConvidado(uint256,address)":"0f789cb7","comprarIngresso(uint256)":"c8b86c6d","criarEvento(string,uint256,uint256,uint8,uint256,uint256)":"99fd9239","estaConvidado(uint256,address)":"b4bbd8bb","ingressoNFT()":"5cfcbdc7","ingressosDoUsuario(address)":"5d26e8fa","ingressosPorUsuario(address,uint256)":"6096dda5","obterDadosEvento(uint256)":"6064fccd","owner()":"8da5cb5b","proximoIdEvento()":"01161766","renounceOwnership()":"715018a6","repassarIngressos(uint256,address,uint256)":"06bd36f4","token()":"fc0c546a","transferOwnership(address)":"f2fde38b"},"id":38}