{"abi":[{"type":"constructor","inputs":[],"stateMutability":"nonpayable"},{"type":"function","name":"adicionarConvidado","inputs":[{"name":"_idEvento","type":"uint256","internalType":"uint256"},{"name":"_convidado","type":"address","internalType":"address"}],"outputs":[],"stateMutability":"nonpayable"},{"type":"function","name":"approve","inputs":[{"name":"to","type":"address","internalType":"address"},{"name":"tokenId","type":"uint256","internalType":"uint256"}],"outputs":[],"stateMutability":"nonpayable"},{"type":"function","name":"balanceOf","inputs":[{"name":"owner","type":"address","internalType":"address"}],"outputs":[{"name":"","type":"uint256","internalType":"uint256"}],"stateMutability":"view"},{"type":"function","name":"comprarIngresso","inputs":[{"name":"_idEvento","type":"uint256","internalType":"uint256"}],"outputs":[],"stateMutability":"payable"},{"type":"function","name":"criarEvento","inputs":[{"name":"_nome","type":"string","internalType":"string"},{"name":"_preco","type":"uint256","internalType":"uint256"},{"name":"_totalIngressos","type":"uint256","internalType":"uint256"},{"name":"_tipo","type":"uint8","internalType":"enum VendaIngressosNFT.TipoVenda"}],"outputs":[],"stateMutability":"nonpayable"},{"type":"function","name":"definirTokenURI","inputs":[{"name":"tokenId","type":"uint256","internalType":"uint256"},{"name":"novaURI","type":"string","internalType":"string"}],"outputs":[],"stateMutability":"nonpayable"},{"type":"function","name":"donoOriginalIngresso","inputs":[{"name":"","type":"uint256","internalType":"uint256"}],"outputs":[{"name":"","type":"address","internalType":"address"}],"stateMutability":"view"},{"type":"function","name":"estaConvidado","inputs":[{"name":"_idEvento","type":"uint256","internalType":"uint256"},{"name":"_usuario","type":"address","internalType":"address"}],"outputs":[{"name":"","type":"bool","internalType":"bool"}],"stateMutability":"view"},{"type":"function","name":"getApproved","inputs":[{"name":"tokenId","type":"uint256","internalType":"uint256"}],"outputs":[{"name":"","type":"address","internalType":"address"}],"stateMutability":"view"},{"type":"function","name":"ingressoParaEvento","inputs":[{"name":"","type":"uint256","internalType":"uint256"}],"outputs":[{"name":"","type":"uint256","internalType":"uint256"}],"stateMutability":"view"},{"type":"function","name":"isApprovedForAll","inputs":[{"name":"owner","type":"address","internalType":"address"},{"name":"operator","type":"address","internalType":"address"}],"outputs":[{"name":"","type":"bool","internalType":"bool"}],"stateMutability":"view"},{"type":"function","name":"name","inputs":[],"outputs":[{"name":"","type":"string","internalType":"string"}],"stateMutability":"view"},{"type":"function","name":"obterDadosEvento","inputs":[{"name":"_idEvento","type":"uint256","internalType":"uint256"}],"outputs":[{"name":"nome","type":"string","internalType":"string"},{"name":"organizador","type":"address","internalType":"address"},{"name":"preco","type":"uint256","internalType":"uint256"},{"name":"totalIngressos","type":"uint256","internalType":"uint256"},{"name":"vendidos","type":"uint256","internalType":"uint256"},{"name":"tipo","type":"uint8","internalType":"enum VendaIngressosNFT.TipoVenda"}],"stateMutability":"view"},{"type":"function","name":"owner","inputs":[],"outputs":[{"name":"","type":"address","internalType":"address"}],"stateMutability":"view"},{"type":"function","name":"ownerOf","inputs":[{"name":"tokenId","type":"uint256","internalType":"uint256"}],"outputs":[{"name":"","type":"address","internalType":"address"}],"stateMutability":"view"},{"type":"function","name":"proximoIdEvento","inputs":[],"outputs":[{"name":"","type":"uint256","internalType":"uint256"}],"stateMutability":"view"},{"type":"function","name":"proximoIdIngresso","inputs":[],"outputs":[{"name":"","type":"uint256","internalType":"uint256"}],"stateMutability":"view"},{"type":"function","name":"renounceOwnership","inputs":[],"outputs":[],"stateMutability":"nonpayable"},{"type":"function","name":"repassarIngressos","inputs":[{"name":"_idEvento","type":"uint256","internalType":"uint256"},{"name":"para","type":"address","internalType":"address"},{"name":"quantidade","type":"uint256","internalType":"uint256"}],"outputs":[],"stateMutability":"nonpayable"},{"type":"function","name":"retirarRevendedor","inputs":[{"name":"_idEvento","type":"uint256","internalType":"uint256"},{"name":"revendedor","type":"address","internalType":"address"}],"outputs":[],"stateMutability":"nonpayable"},{"type":"function","name":"revenderIngresso","inputs":[{"name":"tokenId","type":"uint256","internalType":"uint256"},{"name":"para","type":"address","internalType":"address"}],"outputs":[],"stateMutability":"nonpayable"},{"type":"function","name":"sacarFundos","inputs":[{"name":"_idEvento","type":"uint256","internalType":"uint256"}],"outputs":[],"stateMutability":"nonpayable"},{"type":"function","name":"safeTransferFrom","inputs":[{"name":"from","type":"address","internalType":"address"},{"name":"to","type":"address","internalType":"address"},{"name":"tokenId","type":"uint256","internalType":"uint256"}],"outputs":[],"stateMutability":"nonpayable"},{"type":"function","name":"safeTransferFrom","inputs":[{"name":"from","type":"address","internalType":"address"},{"name":"to","type":"address","internalType":"address"},{"name":"tokenId","type":"uint256","internalType":"uint256"},{"name":"data","type":"bytes","internalType":"bytes"}],"outputs":[],"stateMutability":"nonpayable"},{"type":"function","name":"setApprovalForAll","inputs":[{"name":"operator","type":"address","internalType":"address"},{"name":"approved","type":"bool","internalType":"bool"}],"outputs":[],"stateMutability":"nonpayable"},{"type":"function","name":"supportsInterface","inputs":[{"name":"interfaceId","type":"bytes4","internalType":"bytes4"}],"outputs":[{"name":"","type":"bool","internalType":"bool"}],"stateMutability":"view"},{"type":"function","name":"symbol","inputs":[],"outputs":[{"name":"","type":"string","internalType":"string"}],"stateMutability":"view"},{"type":"function","name":"tokenURI","inputs":[{"name":"tokenId","type":"uint256","internalType":"uint256"}],"outputs":[{"name":"","type":"string","internalType":"string"}],"stateMutability":"view"},{"type":"function","name":"transferFrom","inputs":[{"name":"from","type":"address","internalType":"address"},{"name":"to","type":"address","internalType":"address"},{"name":"tokenId","type":"uint256","internalType":"uint256"}],"outputs":[],"stateMutability":"nonpayable"},{"type":"function","name":"transferOwnership","inputs":[{"name":"newOwner","type":"address","internalType":"address"}],"outputs":[],"stateMutability":"nonpayable"},{"type":"function","name":"venderComoRevendedor","inputs":[{"name":"_idEvento","type":"uint256","internalType":"uint256"}],"outputs":[],"stateMutability":"nonpayable"},{"type":"event","name":"Approval","inputs":[{"name":"owner","type":"address","indexed":true,"internalType":"address"},{"name":"approved","type":"address","indexed":true,"internalType":"address"},{"name":"tokenId","type":"uint256","indexed":true,"internalType":"uint256"}],"anonymous":false},{"type":"event","name":"ApprovalForAll","inputs":[{"name":"owner","type":"address","indexed":true,"internalType":"address"},{"name":"operator","type":"address","indexed":true,"internalType":"address"},{"name":"approved","type":"bool","indexed":false,"internalType":"bool"}],"anonymous":false},{"type":"event","name":"BatchMetadataUpdate","inputs":[{"name":"_fromTokenId","type":"uint256","indexed":false,"internalType":"uint256"},{"name":"_toTokenId","type":"uint256","indexed":false,"internalType":"uint256"}],"anonymous":false},{"type":"event","name":"EventoCriado","inputs":[{"name":"idEvento","type":"uint256","indexed":false,"internalType":"uint256"},{"name":"nome","type":"string","indexed":false,"internalType":"string"},{"name":"organizador","type":"address","indexed":false,"internalType":"address"}],"anonymous":false},{"type":"event","name":"IngressoComprado","inputs":[{"name":"idEvento","type":"uint256","indexed":false,"internalType":"uint256"},{"name":"comprador","type":"address","indexed":false,"internalType":"address"},{"name":"tokenId","type":"uint256","indexed":false,"internalType":"uint256"}],"anonymous":false},{"type":"event","name":"IngressoRevendido","inputs":[{"name":"tokenId","type":"uint256","indexed":false,"internalType":"uint256"},{"name":"de","type":"address","indexed":false,"internalType":"address"},{"name":"para","type":"address","indexed":false,"internalType":"address"}],"anonymous":false},{"type":"event","name":"IngressosRepasados","inputs":[{"name":"idEvento","type":"uint256","indexed":false,"internalType":"uint256"},{"name":"para","type":"address","indexed":false,"internalType":"address"},{"name":"quantidade","type":"uint256","indexed":false,"internalType":"uint256"}],"anonymous":false},{"type":"event","name":"MetadataUpdate","inputs":[{"name":"_tokenId","type":"uint256","indexed":false,"internalType":"uint256"}],"anonymous":false},{"type":"event","name":"OwnershipTransferred","inputs":[{"name":"previousOwner","type":"address","indexed":true,"internalType":"address"},{"name":"newOwner","type":"address","indexed":true,"internalType":"address"}],"anonymous":false},{"type":"event","name":"TokenURIDefinido","inputs":[{"name":"tokenId","type":"uint256","indexed":false,"internalType":"uint256"},{"name":"novaURI","type":"string","indexed":false,"internalType":"string"}],"anonymous":false},{"type":"event","name":"Transfer","inputs":[{"name":"from","type":"address","indexed":true,"internalType":"address"},{"name":"to","type":"address","indexed":true,"internalType":"address"},{"name":"tokenId","type":"uint256","indexed":true,"internalType":"uint256"}],"anonymous":false},{"type":"error","name":"ERC721IncorrectOwner","inputs":[{"name":"sender","type":"address","internalType":"address"},{"name":"tokenId","type":"uint256","internalType":"uint256"},{"name":"owner","type":"address","internalType":"address"}]},{"type":"error","name":"ERC721InsufficientApproval","inputs":[{"name":"operator","type":"address","internalType":"address"},{"name":"tokenId","type":"uint256","internalType":"uint256"}]},{"type":"error","name":"ERC721InvalidApprover","inputs":[{"name":"approver","type":"address","internalType":"address"}]},{"type":"error","name":"ERC721InvalidOperator","inputs":[{"name":"operator","type":"address","internalType":"address"}]},{"type":"error","name":"ERC721InvalidOwner","inputs":[{"name":"owner","type":"address","internalType":"address"}]},{"type":"error","name":"ERC721InvalidReceiver","inputs":[{"name":"receiver","type":"address","internalType":"address"}]},{"type":"error","name":"ERC721InvalidSender","inputs":[{"name":"sender","type":"address","internalType":"address"}]},{"type":"error","name":"ERC721NonexistentToken","inputs":[{"name":"tokenId","type":"uint256","internalType":"uint256"}]},{"type":"error","name":"OwnableInvalidOwner","inputs":[{"name":"owner","type":"address","internalType":"address"}]},{"type":"error","name":"OwnableUnauthorizedAccount","inputs":[{"name":"account","type":"address","internalType":"address"}]}],"bytecode":{"object":"0x608060405260016008556001600955348015610019575f5ffd5b50336040518060400160405280600b81526020017f496e67726573736f4e46540000000000000000000000000000000000000000008152506040518060400160405280600381526020017f494e470000000000000000000000000000000000000000000000000000000000815250815f9081610095919061042d565b5080600190816100a5919061042d565b5050505f73ffffffffffffffffffffffffffffffffffffffff168173ffffffffffffffffffffffffffffffffffffffff1603610118575f6040517f1e4fbdf700000000000000000000000000000000000000000000000000000000815260040161010f919061053b565b60405180910390fd5b6101278161012d60201b60201c565b50610554565b5f60075f9054906101000a900473ffffffffffffffffffffffffffffffffffffffff1690508160075f6101000a81548173ffffffffffffffffffffffffffffffffffffffff021916908373ffffffffffffffffffffffffffffffffffffffff1602179055508173ffffffffffffffffffffffffffffffffffffffff168173ffffffffffffffffffffffffffffffffffffffff167f8be0079c531659141344cd1fd0a4f28419497f9722a3daafe3b4186f6b6457e060405160405180910390a35050565b5f81519050919050565b7f4e487b71000000000000000000000000000000000000000000000000000000005f52604160045260245ffd5b7f4e487b71000000000000000000000000000000000000000000000000000000005f52602260045260245ffd5b5f600282049050600182168061026b57607f821691505b60208210810361027e5761027d610227565b5b50919050565b5f819050815f5260205f209050919050565b5f6020601f8301049050919050565b5f82821b905092915050565b5f600883026102e07fffffffffffffffffffffffffffffffffffffffffffffffffffffffffffffffff826102a5565b6102ea86836102a5565b95508019841693508086168417925050509392505050565b5f819050919050565b5f819050919050565b5f61032e61032961032484610302565b61030b565b610302565b9050919050565b5f819050919050565b61034783610314565b61035b61035382610335565b8484546102b1565b825550505050565b5f5f905090565b610372610363565b61037d81848461033e565b505050565b5b818110156103a0576103955f8261036a565b600181019050610383565b5050565b601f8211156103e5576103b681610284565b6103bf84610296565b810160208510156103ce578190505b6103e26103da85610296565b830182610382565b50505b505050565b5f82821c905092915050565b5f6104055f19846008026103ea565b1980831691505092915050565b5f61041d83836103f6565b9150826002028217905092915050565b610436826101f0565b67ffffffffffffffff81111561044f5761044e6101fa565b5b6104598254610254565b6104648282856103a4565b5f60209050601f831160018114610495575f8415610483578287015190505b61048d8582610412565b8655506104f4565b601f1984166104a386610284565b5f5b828110156104ca578489015182556001820191506020850194506020810190506104a5565b868310156104e757848901516104e3601f8916826103f6565b8355505b6001600288020188555050505b505050505050565b5f73ffffffffffffffffffffffffffffffffffffffff82169050919050565b5f610525826104fc565b9050919050565b6105358161051b565b82525050565b5f60208201905061054e5f83018461052c565b92915050565b614149806105615f395ff3fe6080604052600436106101d7575f3560e01c8063715018a611610101578063c87b56dd11610094578063e87b911011610063578063e87b9110146106a4578063e985e9c5146106e0578063f2fde38b1461071c578063ffc1918314610744576101d7565b8063c87b56dd146105fc578063c8b86c6d14610638578063cc78d57714610654578063d10e7fd71461067c576101d7565b8063a76744ff116100d0578063a76744ff14610546578063b4bbd8bb1461056e578063b88d4fde146105aa578063c84571f0146105d2576101d7565b8063715018a6146104b45780638da5cb5b146104ca57806395d89b41146104f4578063a22cb4651461051e576101d7565b80630f789cb7116101795780635e9bc15a116101485780635e9bc15a146103bf5780636064fccd146103fb5780636352211e1461043c57806370a0823114610478576101d7565b80630f789cb71461031f57806323b872dd1461034757806342842e0e1461036f5780635da92c5d14610397576101d7565b806306fdde03116101b557806306fdde0314610269578063081812fc14610293578063095ea7b3146102cf5780630caf01f8146102f7576101d7565b806301161766146101db57806301ffc9a71461020557806306bd36f414610241575b5f5ffd5b3480156101e6575f5ffd5b506101ef61076c565b6040516101fc9190612cf5565b60405180910390f35b348015610210575f5ffd5b5061022b60048036038101906102269190612d74565b610772565b6040516102389190612db9565b60405180910390f35b34801561024c575f5ffd5b5061026760048036038101906102629190612e56565b6107d2565b005b348015610274575f5ffd5b5061027d61097d565b60405161028a9190612f16565b60405180910390f35b34801561029e575f5ffd5b506102b960048036038101906102b49190612f36565b610a0c565b6040516102c69190612f70565b60405180910390f35b3480156102da575f5ffd5b506102f560048036038101906102f09190612f89565b610a27565b005b348015610302575f5ffd5b5061031d60048036038101906103189190612fc7565b610a3d565b005b34801561032a575f5ffd5b5061034560048036038101906103409190612fc7565b610afd565b005b348015610352575f5ffd5b5061036d60048036038101906103689190613005565b610bfe565b005b34801561037a575f5ffd5b5061039560048036038101906103909190613005565b610cfd565b005b3480156103a2575f5ffd5b506103bd60048036038101906103b89190613181565b610d1c565b005b3480156103ca575f5ffd5b506103e560048036038101906103e09190612f36565b610e16565b6040516103f29190612cf5565b60405180910390f35b348015610406575f5ffd5b50610421600480360381019061041c9190612f36565b610e2b565b6040516104339695949392919061324e565b60405180910390f35b348015610447575f5ffd5b50610462600480360381019061045d9190612f36565b610f2d565b60405161046f9190612f70565b60405180910390f35b348015610483575f5ffd5b5061049e600480360381019061049991906132b4565b610f3e565b6040516104ab9190612cf5565b60405180910390f35b3480156104bf575f5ffd5b506104c8610ff4565b005b3480156104d5575f5ffd5b506104de611007565b6040516104eb9190612f70565b60405180910390f35b3480156104ff575f5ffd5b5061050861102f565b6040516105159190612f16565b60405180910390f35b348015610529575f5ffd5b50610544600480360381019061053f9190613309565b6110bf565b005b348015610551575f5ffd5b5061056c60048036038101906105679190612fc7565b6110d5565b005b348015610579575f5ffd5b50610594600480360381019061058f9190612fc7565b6111c3565b6040516105a19190612db9565b60405180910390f35b3480156105b5575f5ffd5b506105d060048036038101906105cb91906133e5565b611228565b005b3480156105dd575f5ffd5b506105e661124d565b6040516105f39190612cf5565b60405180910390f35b348015610607575f5ffd5b50610622600480360381019061061d9190612f36565b611253565b60405161062f9190612f16565b60405180910390f35b610652600480360381019061064d9190612f36565b61135e565b005b34801561065f575f5ffd5b5061067a60048036038101906106759190612f36565b61163f565b005b348015610687575f5ffd5b506106a2600480360381019061069d9190612f36565b6117f4565b005b3480156106af575f5ffd5b506106ca60048036038101906106c59190612f36565b611904565b6040516106d79190612f70565b60405180910390f35b3480156106eb575f5ffd5b5061070660048036038101906107019190613465565b611934565b6040516107139190612db9565b60405180910390f35b348015610727575f5ffd5b50610742600480360381019061073d91906132b4565b6119c2565b005b34801561074f575f5ffd5b5061076a600480360381019061076591906134c6565b611a46565b005b60095481565b5f634906490660e01b7bffffffffffffffffffffffffffffffffffffffffffffffffffffffff1916827bffffffffffffffffffffffffffffffffffffffffffffffffffffffff191614806107cb57506107ca82611b4a565b5b9050919050565b5f600a5f8581526020019081526020015f209050806001015f9054906101000a900473ffffffffffffffffffffffffffffffffffffffff1673ffffffffffffffffffffffffffffffffffffffff163373ffffffffffffffffffffffffffffffffffffffff1614610877576040517f08c379a000000000000000000000000000000000000000000000000000000000815260040161086e906135b6565b60405180910390fd5b806003015482826004015461088c9190613601565b11156108cd576040517f08c379a00000000000000000000000000000000000000000000000000000000081526004016108c49061367e565b60405180910390fd5b81816007015f8573ffffffffffffffffffffffffffffffffffffffff1673ffffffffffffffffffffffffffffffffffffffff1681526020019081526020015f205f82825461091b9190613601565b9250508190555081816004015f8282546109359190613601565b925050819055507f0c0936d30a2df4fbf6667d7d32216a904183ae5dfd172f0ced1a884d51e88cdd84848460405161096f9392919061369c565b60405180910390a150505050565b60605f805461098b906136fe565b80601f01602080910402602001604051908101604052809291908181526020018280546109b7906136fe565b8015610a025780601f106109d957610100808354040283529160200191610a02565b820191905f5260205f20905b8154815290600101906020018083116109e557829003601f168201915b5050505050905090565b5f610a1682611c2b565b50610a2082611cb1565b9050919050565b610a398282610a34611cea565b611cf1565b5050565b3373ffffffffffffffffffffffffffffffffffffffff16610a5d83610f2d565b73ffffffffffffffffffffffffffffffffffffffff1614610ab3576040517f08c379a0000000000000000000000000000000000000000000000000000000008152600401610aaa90613778565b60405180910390fd5b610abe338284611d03565b7f2a5e036de2af7c7014d98fd7b5f230770ee178e196f449ecd7101a62a66dae56823383604051610af193929190613796565b60405180910390a15050565b5f600a5f8481526020019081526020015f209050806001015f9054906101000a900473ffffffffffffffffffffffffffffffffffffffff1673ffffffffffffffffffffffffffffffffffffffff163373ffffffffffffffffffffffffffffffffffffffff1614610ba2576040517f08c379a0000000000000000000000000000000000000000000000000000000008152600401610b999061383b565b60405180910390fd5b6001816006015f8473ffffffffffffffffffffffffffffffffffffffff1673ffffffffffffffffffffffffffffffffffffffff1681526020019081526020015f205f6101000a81548160ff021916908315150217905550505050565b5f73ffffffffffffffffffffffffffffffffffffffff168273ffffffffffffffffffffffffffffffffffffffff1603610c6e575f6040517f64a0ae92000000000000000000000000000000000000000000000000000000008152600401610c659190612f70565b60405180910390fd5b5f610c818383610c7c611cea565b611e6b565b90508373ffffffffffffffffffffffffffffffffffffffff168173ffffffffffffffffffffffffffffffffffffffff1614610cf7578382826040517f64283d7b000000000000000000000000000000000000000000000000000000008152600401610cee93929190613859565b60405180910390fd5b50505050565b610d1783838360405180602001604052805f815250611228565b505050565b3373ffffffffffffffffffffffffffffffffffffffff16610d3c83610f2d565b73ffffffffffffffffffffffffffffffffffffffff161480610d905750610d61611007565b73ffffffffffffffffffffffffffffffffffffffff163373ffffffffffffffffffffffffffffffffffffffff16145b610dcf576040517f08c379a0000000000000000000000000000000000000000000000000000000008152600401610dc6906138d8565b60405180910390fd5b610dd98282612076565b7fc81abe2585bbfda3f05a6dcdc39390925659722e8f90e2bfa3a371db08afd0968282604051610e0a9291906138f6565b60405180910390a15050565b600b602052805f5260405f205f915090505481565b60605f5f5f5f5f5f600a5f8981526020019081526020015f209050805f01816001015f9054906101000a900473ffffffffffffffffffffffffffffffffffffffff16826002015483600301548460040154856005015f9054906101000a900460ff16858054610e99906136fe565b80601f0160208091040260200160405190810160405280929190818152602001828054610ec5906136fe565b8015610f105780601f10610ee757610100808354040283529160200191610f10565b820191905f5260205f20905b815481529060010190602001808311610ef357829003601f168201915b505050505095509650965096509650965096505091939550919395565b5f610f3782611c2b565b9050919050565b5f5f73ffffffffffffffffffffffffffffffffffffffff168273ffffffffffffffffffffffffffffffffffffffff1603610faf575f6040517f89c62b64000000000000000000000000000000000000000000000000000000008152600401610fa69190612f70565b60405180910390fd5b60035f8373ffffffffffffffffffffffffffffffffffffffff1673ffffffffffffffffffffffffffffffffffffffff1681526020019081526020015f20549050919050565b610ffc6120d0565b6110055f612157565b565b5f60075f9054906101000a900473ffffffffffffffffffffffffffffffffffffffff16905090565b60606001805461103e906136fe565b80601f016020809104026020016040519081016040528092919081815260200182805461106a906136fe565b80156110b55780601f1061108c576101008083540402835291602001916110b5565b820191905f5260205f20905b81548152906001019060200180831161109857829003601f168201915b5050505050905090565b6110d16110ca611cea565b838361221a565b5050565b5f600a5f8481526020019081526020015f209050806001015f9054906101000a900473ffffffffffffffffffffffffffffffffffffffff1673ffffffffffffffffffffffffffffffffffffffff163373ffffffffffffffffffffffffffffffffffffffff161461117a576040517f08c379a000000000000000000000000000000000000000000000000000000000815260040161117190613994565b60405180910390fd5b5f816007015f8473ffffffffffffffffffffffffffffffffffffffff1673ffffffffffffffffffffffffffffffffffffffff1681526020019081526020015f2081905550505050565b5f600a5f8481526020019081526020015f206006015f8373ffffffffffffffffffffffffffffffffffffffff1673ffffffffffffffffffffffffffffffffffffffff1681526020019081526020015f205f9054906101000a900460ff16905092915050565b611233848484610bfe565b61124761123e611cea565b85858585612383565b50505050565b60085481565b606061125e82611c2b565b505f60065f8481526020019081526020015f20805461127c906136fe565b80601f01602080910402602001604051908101604052809291908181526020018280546112a8906136fe565b80156112f35780601f106112ca576101008083540402835291602001916112f3565b820191905f5260205f20905b8154815290600101906020018083116112d657829003601f168201915b505050505090505f61130361252f565b90505f815103611317578192505050611359565b5f8251111561134b5780826040516020016113339291906139ec565b60405160208183030381529060405292505050611359565b61135484612545565b925050505b919050565b5f600a5f8381526020019081526020015f2090505f73ffffffffffffffffffffffffffffffffffffffff16816001015f9054906101000a900473ffffffffffffffffffffffffffffffffffffffff1673ffffffffffffffffffffffffffffffffffffffff1603611403576040517f08c379a00000000000000000000000000000000000000000000000000000000081526004016113fa90613a59565b60405180910390fd5b806003015481600401541061144d576040517f08c379a000000000000000000000000000000000000000000000000000000000815260040161144490613ac1565b60405180910390fd5b80600201543414611493576040517f08c379a000000000000000000000000000000000000000000000000000000000815260040161148a90613b29565b60405180910390fd5b6001808111156114a6576114a56131db565b5b816005015f9054906101000a900460ff1660018111156114c9576114c86131db565b5b0361155a57806006015f3373ffffffffffffffffffffffffffffffffffffffff1673ffffffffffffffffffffffffffffffffffffffff1681526020019081526020015f205f9054906101000a900460ff16611559576040517f08c379a000000000000000000000000000000000000000000000000000000000815260040161155090613bb7565b60405180910390fd5b5b5f600854905061156a33826125ab565b82600b5f8381526020019081526020015f208190555033600c5f8381526020019081526020015f205f6101000a81548173ffffffffffffffffffffffffffffffffffffffff021916908373ffffffffffffffffffffffffffffffffffffffff160217905550816004015f8154809291906115e390613bd5565b919050555060085f8154809291906115fa90613bd5565b91905055507f25ab691d370cebf479225870a95327553156860c18595df840b852742bb106de8333836040516116329392919061369c565b60405180910390a1505050565b5f600a5f8381526020019081526020015f2090505f816007015f3373ffffffffffffffffffffffffffffffffffffffff1673ffffffffffffffffffffffffffffffffffffffff1681526020019081526020015f2054116116d4576040517f08c379a00000000000000000000000000000000000000000000000000000000081526004016116cb90613c8c565b60405180910390fd5b5f60085490506116e433826125ab565b82600b5f8381526020019081526020015f208190555033600c5f8381526020019081526020015f205f6101000a81548173ffffffffffffffffffffffffffffffffffffffff021916908373ffffffffffffffffffffffffffffffffffffffff160217905550816007015f3373ffffffffffffffffffffffffffffffffffffffff1673ffffffffffffffffffffffffffffffffffffffff1681526020019081526020015f205f81548092919061179890613caa565b919050555060085f8154809291906117af90613bd5565b91905055507f25ab691d370cebf479225870a95327553156860c18595df840b852742bb106de8333836040516117e79392919061369c565b60405180910390a1505050565b5f600a5f8381526020019081526020015f209050806001015f9054906101000a900473ffffffffffffffffffffffffffffffffffffffff1673ffffffffffffffffffffffffffffffffffffffff163373ffffffffffffffffffffffffffffffffffffffff1614611899576040517f08c379a000000000000000000000000000000000000000000000000000000000815260040161189090613d1b565b60405180910390fd5b806001015f9054906101000a900473ffffffffffffffffffffffffffffffffffffffff1673ffffffffffffffffffffffffffffffffffffffff166108fc4790811502906040515f60405180830381858888f193505050501580156118ff573d5f5f3e3d5ffd5b505050565b600c602052805f5260405f205f915054906101000a900473ffffffffffffffffffffffffffffffffffffffff1681565b5f60055f8473ffffffffffffffffffffffffffffffffffffffff1673ffffffffffffffffffffffffffffffffffffffff1681526020019081526020015f205f8373ffffffffffffffffffffffffffffffffffffffff1673ffffffffffffffffffffffffffffffffffffffff1681526020019081526020015f205f9054906101000a900460ff16905092915050565b6119ca6120d0565b5f73ffffffffffffffffffffffffffffffffffffffff168173ffffffffffffffffffffffffffffffffffffffff1603611a3a575f6040517f1e4fbdf7000000000000000000000000000000000000000000000000000000008152600401611a319190612f70565b60405180910390fd5b611a4381612157565b50565b5f60095490505f600a5f8381526020019081526020015f20905085815f019081611a709190613ed9565b5033816001015f6101000a81548173ffffffffffffffffffffffffffffffffffffffff021916908373ffffffffffffffffffffffffffffffffffffffff16021790555084816002018190555083816003018190555082816005015f6101000a81548160ff02191690836001811115611aeb57611aea6131db565b5b021790555060095f815480929190611b0290613bd5565b91905055507fb2b69c45b4e0e56fd8a8457b29fb7694a1a9162088a62c38b7b2b5d2d4017ea9828733604051611b3a93929190613fa8565b60405180910390a1505050505050565b5f7f80ac58cd000000000000000000000000000000000000000000000000000000007bffffffffffffffffffffffffffffffffffffffffffffffffffffffff1916827bffffffffffffffffffffffffffffffffffffffffffffffffffffffff19161480611c1457507f5b5e139f000000000000000000000000000000000000000000000000000000007bffffffffffffffffffffffffffffffffffffffffffffffffffffffff1916827bffffffffffffffffffffffffffffffffffffffffffffffffffffffff1916145b80611c245750611c23826125c8565b5b9050919050565b5f5f611c3683612631565b90505f73ffffffffffffffffffffffffffffffffffffffff168173ffffffffffffffffffffffffffffffffffffffff1603611ca857826040517f7e273289000000000000000000000000000000000000000000000000000000008152600401611c9f9190612cf5565b60405180910390fd5b80915050919050565b5f60045f8381526020019081526020015f205f9054906101000a900473ffffffffffffffffffffffffffffffffffffffff169050919050565b5f33905090565b611cfe838383600161266a565b505050565b5f73ffffffffffffffffffffffffffffffffffffffff168273ffffffffffffffffffffffffffffffffffffffff1603611d73575f6040517f64a0ae92000000000000000000000000000000000000000000000000000000008152600401611d6a9190612f70565b60405180910390fd5b5f611d7f83835f611e6b565b90505f73ffffffffffffffffffffffffffffffffffffffff168173ffffffffffffffffffffffffffffffffffffffff1603611df157816040517f7e273289000000000000000000000000000000000000000000000000000000008152600401611de89190612cf5565b60405180910390fd5b8373ffffffffffffffffffffffffffffffffffffffff168173ffffffffffffffffffffffffffffffffffffffff1614611e65578382826040517f64283d7b000000000000000000000000000000000000000000000000000000008152600401611e5c93929190613859565b60405180910390fd5b50505050565b5f5f611e7684612631565b90505f73ffffffffffffffffffffffffffffffffffffffff168373ffffffffffffffffffffffffffffffffffffffff1614611eb757611eb6818486612829565b5b5f73ffffffffffffffffffffffffffffffffffffffff168173ffffffffffffffffffffffffffffffffffffffff1614611f4257611ef65f855f5f61266a565b600160035f8373ffffffffffffffffffffffffffffffffffffffff1673ffffffffffffffffffffffffffffffffffffffff1681526020019081526020015f205f82825403925050819055505b5f73ffffffffffffffffffffffffffffffffffffffff168573ffffffffffffffffffffffffffffffffffffffff1614611fc157600160035f8773ffffffffffffffffffffffffffffffffffffffff1673ffffffffffffffffffffffffffffffffffffffff1681526020019081526020015f205f82825401925050819055505b8460025f8681526020019081526020015f205f6101000a81548173ffffffffffffffffffffffffffffffffffffffff021916908373ffffffffffffffffffffffffffffffffffffffff160217905550838573ffffffffffffffffffffffffffffffffffffffff168273ffffffffffffffffffffffffffffffffffffffff167fddf252ad1be2c89b69c2b068fc378daa952ba7f163c4a11628f55a4df523b3ef60405160405180910390a4809150509392505050565b8060065f8481526020019081526020015f2090816120949190613ed9565b507ff8e1a15aba9398e019f0b49df1a4fde98ee17ae345cb5f6b5e2c27f5033e8ce7826040516120c49190612cf5565b60405180910390a15050565b6120d8611cea565b73ffffffffffffffffffffffffffffffffffffffff166120f6611007565b73ffffffffffffffffffffffffffffffffffffffff161461215557612119611cea565b6040517f118cdaa700000000000000000000000000000000000000000000000000000000815260040161214c9190612f70565b60405180910390fd5b565b5f60075f9054906101000a900473ffffffffffffffffffffffffffffffffffffffff1690508160075f6101000a81548173ffffffffffffffffffffffffffffffffffffffff021916908373ffffffffffffffffffffffffffffffffffffffff1602179055508173ffffffffffffffffffffffffffffffffffffffff168173ffffffffffffffffffffffffffffffffffffffff167f8be0079c531659141344cd1fd0a4f28419497f9722a3daafe3b4186f6b6457e060405160405180910390a35050565b5f73ffffffffffffffffffffffffffffffffffffffff168273ffffffffffffffffffffffffffffffffffffffff160361228a57816040517f5b08ba180000000000000000000000000000000000000000000000000000000081526004016122819190612f70565b60405180910390fd5b8060055f8573ffffffffffffffffffffffffffffffffffffffff1673ffffffffffffffffffffffffffffffffffffffff1681526020019081526020015f205f8473ffffffffffffffffffffffffffffffffffffffff1673ffffffffffffffffffffffffffffffffffffffff1681526020019081526020015f205f6101000a81548160ff0219169083151502179055508173ffffffffffffffffffffffffffffffffffffffff168373ffffffffffffffffffffffffffffffffffffffff167f17307eab39ab6107e8899845ad3d59bd9653f200f220920489ca2b5937696c31836040516123769190612db9565b60405180910390a3505050565b5f8373ffffffffffffffffffffffffffffffffffffffff163b1115612528578273ffffffffffffffffffffffffffffffffffffffff1663150b7a02868685856040518563ffffffff1660e01b81526004016123e19493929190614036565b6020604051808303815f875af192505050801561241c57506040513d601f19601f820116820180604052508101906124199190614094565b60015b61249d573d805f811461244a576040519150601f19603f3d011682016040523d82523d5f602084013e61244f565b606091505b505f81510361249557836040517f64a0ae9200000000000000000000000000000000000000000000000000000000815260040161248c9190612f70565b60405180910390fd5b805181602001fd5b63150b7a0260e01b7bffffffffffffffffffffffffffffffffffffffffffffffffffffffff1916817bffffffffffffffffffffffffffffffffffffffffffffffffffffffff19161461252657836040517f64a0ae9200000000000000000000000000000000000000000000000000000000815260040161251d9190612f70565b60405180910390fd5b505b5050505050565b606060405180602001604052805f815250905090565b606061255082611c2b565b505f61255a61252f565b90505f8151116125785760405180602001604052805f8152506125a3565b80612582846128ec565b6040516020016125939291906139ec565b6040516020818303038152906040525b915050919050565b6125c4828260405180602001604052805f8152506129b6565b5050565b5f7f01ffc9a7000000000000000000000000000000000000000000000000000000007bffffffffffffffffffffffffffffffffffffffffffffffffffffffff1916827bffffffffffffffffffffffffffffffffffffffffffffffffffffffff1916149050919050565b5f60025f8381526020019081526020015f205f9054906101000a900473ffffffffffffffffffffffffffffffffffffffff169050919050565b80806126a257505f73ffffffffffffffffffffffffffffffffffffffff168273ffffffffffffffffffffffffffffffffffffffff1614155b156127d4575f6126b184611c2b565b90505f73ffffffffffffffffffffffffffffffffffffffff168373ffffffffffffffffffffffffffffffffffffffff161415801561271b57508273ffffffffffffffffffffffffffffffffffffffff168173ffffffffffffffffffffffffffffffffffffffff1614155b801561272e575061272c8184611934565b155b1561277057826040517fa9fbf51f0000000000000000000000000000000000000000000000000000000081526004016127679190612f70565b60405180910390fd5b81156127d257838573ffffffffffffffffffffffffffffffffffffffff168273ffffffffffffffffffffffffffffffffffffffff167f8c5be1e5ebec7d5bd14f71427d1e84f3dd0314c0f7b2291e5b200ac8c7c3b92560405160405180910390a45b505b8360045f8581526020019081526020015f205f6101000a81548173ffffffffffffffffffffffffffffffffffffffff021916908373ffffffffffffffffffffffffffffffffffffffff16021790555050505050565b6128348383836129d9565b6128e7575f73ffffffffffffffffffffffffffffffffffffffff168373ffffffffffffffffffffffffffffffffffffffff16036128a857806040517f7e27328900000000000000000000000000000000000000000000000000000000815260040161289f9190612cf5565b60405180910390fd5b81816040517f177e802f0000000000000000000000000000000000000000000000000000000081526004016128de9291906140bf565b60405180910390fd5b505050565b60605f60016128fa84612a99565b0190505f8167ffffffffffffffff8111156129185761291761305d565b5b6040519080825280601f01601f19166020018201604052801561294a5781602001600182028036833780820191505090505b5090505f82602001820190505b6001156129ab578080600190039150507f3031323334353637383961626364656600000000000000000000000000000000600a86061a8153600a85816129a05761299f6140e6565b5b0494505f8503612957575b819350505050919050565b6129c08383612bea565b6129d46129cb611cea565b5f858585612383565b505050565b5f5f73ffffffffffffffffffffffffffffffffffffffff168373ffffffffffffffffffffffffffffffffffffffff1614158015612a9057508273ffffffffffffffffffffffffffffffffffffffff168473ffffffffffffffffffffffffffffffffffffffff161480612a515750612a508484611934565b5b80612a8f57508273ffffffffffffffffffffffffffffffffffffffff16612a7783611cb1565b73ffffffffffffffffffffffffffffffffffffffff16145b5b90509392505050565b5f5f5f90507a184f03e93ff9f4daa797ed6e38ed64bf6a1f0100000000000000008310612af5577a184f03e93ff9f4daa797ed6e38ed64bf6a1f0100000000000000008381612aeb57612aea6140e6565b5b0492506040810190505b6d04ee2d6d415b85acef81000000008310612b32576d04ee2d6d415b85acef81000000008381612b2857612b276140e6565b5b0492506020810190505b662386f26fc100008310612b6157662386f26fc100008381612b5757612b566140e6565b5b0492506010810190505b6305f5e1008310612b8a576305f5e1008381612b8057612b7f6140e6565b5b0492506008810190505b6127108310612baf576127108381612ba557612ba46140e6565b5b0492506004810190505b60648310612bd25760648381612bc857612bc76140e6565b5b0492506002810190505b600a8310612be1576001810190505b80915050919050565b5f73ffffffffffffffffffffffffffffffffffffffff168273ffffffffffffffffffffffffffffffffffffffff1603612c5a575f6040517f64a0ae92000000000000000000000000000000000000000000000000000000008152600401612c519190612f70565b60405180910390fd5b5f612c6683835f611e6b565b90505f73ffffffffffffffffffffffffffffffffffffffff168173ffffffffffffffffffffffffffffffffffffffff1614612cd8575f6040517f73c6ac6e000000000000000000000000000000000000000000000000000000008152600401612ccf9190612f70565b60405180910390fd5b505050565b5f819050919050565b612cef81612cdd565b82525050565b5f602082019050612d085f830184612ce6565b92915050565b5f604051905090565b5f5ffd5b5f5ffd5b5f7fffffffff0000000000000000000000000000000000000000000000000000000082169050919050565b612d5381612d1f565b8114612d5d575f5ffd5b50565b5f81359050612d6e81612d4a565b92915050565b5f60208284031215612d8957612d88612d17565b5b5f612d9684828501612d60565b91505092915050565b5f8115159050919050565b612db381612d9f565b82525050565b5f602082019050612dcc5f830184612daa565b92915050565b612ddb81612cdd565b8114612de5575f5ffd5b50565b5f81359050612df681612dd2565b92915050565b5f73ffffffffffffffffffffffffffffffffffffffff82169050919050565b5f612e2582612dfc565b9050919050565b612e3581612e1b565b8114612e3f575f5ffd5b50565b5f81359050612e5081612e2c565b92915050565b5f5f5f60608486031215612e6d57612e6c612d17565b5b5f612e7a86828701612de8565b9350506020612e8b86828701612e42565b9250506040612e9c86828701612de8565b9150509250925092565b5f81519050919050565b5f82825260208201905092915050565b8281835e5f83830152505050565b5f601f19601f8301169050919050565b5f612ee882612ea6565b612ef28185612eb0565b9350612f02818560208601612ec0565b612f0b81612ece565b840191505092915050565b5f6020820190508181035f830152612f2e8184612ede565b905092915050565b5f60208284031215612f4b57612f4a612d17565b5b5f612f5884828501612de8565b91505092915050565b612f6a81612e1b565b82525050565b5f602082019050612f835f830184612f61565b92915050565b5f5f60408385031215612f9f57612f9e612d17565b5b5f612fac85828601612e42565b9250506020612fbd85828601612de8565b9150509250929050565b5f5f60408385031215612fdd57612fdc612d17565b5b5f612fea85828601612de8565b9250506020612ffb85828601612e42565b9150509250929050565b5f5f5f6060848603121561301c5761301b612d17565b5b5f61302986828701612e42565b935050602061303a86828701612e42565b925050604061304b86828701612de8565b9150509250925092565b5f5ffd5b5f5ffd5b7f4e487b71000000000000000000000000000000000000000000000000000000005f52604160045260245ffd5b61309382612ece565b810181811067ffffffffffffffff821117156130b2576130b161305d565b5b80604052505050565b5f6130c4612d0e565b90506130d0828261308a565b919050565b5f67ffffffffffffffff8211156130ef576130ee61305d565b5b6130f882612ece565b9050602081019050919050565b828183375f83830152505050565b5f613125613120846130d5565b6130bb565b90508281526020810184848401111561314157613140613059565b5b61314c848285613105565b509392505050565b5f82601f83011261316857613167613055565b5b8135613178848260208601613113565b91505092915050565b5f5f6040838503121561319757613196612d17565b5b5f6131a485828601612de8565b925050602083013567ffffffffffffffff8111156131c5576131c4612d1b565b5b6131d185828601613154565b9150509250929050565b7f4e487b71000000000000000000000000000000000000000000000000000000005f52602160045260245ffd5b60028110613219576132186131db565b5b50565b5f81905061322982613208565b919050565b5f6132388261321c565b9050919050565b6132488161322e565b82525050565b5f60c0820190508181035f8301526132668189612ede565b90506132756020830188612f61565b6132826040830187612ce6565b61328f6060830186612ce6565b61329c6080830185612ce6565b6132a960a083018461323f565b979650505050505050565b5f602082840312156132c9576132c8612d17565b5b5f6132d684828501612e42565b91505092915050565b6132e881612d9f565b81146132f2575f5ffd5b50565b5f81359050613303816132df565b92915050565b5f5f6040838503121561331f5761331e612d17565b5b5f61332c85828601612e42565b925050602061333d858286016132f5565b9150509250929050565b5f67ffffffffffffffff8211156133615761336061305d565b5b61336a82612ece565b9050602081019050919050565b5f61338961338484613347565b6130bb565b9050828152602081018484840111156133a5576133a4613059565b5b6133b0848285613105565b509392505050565b5f82601f8301126133cc576133cb613055565b5b81356133dc848260208601613377565b91505092915050565b5f5f5f5f608085870312156133fd576133fc612d17565b5b5f61340a87828801612e42565b945050602061341b87828801612e42565b935050604061342c87828801612de8565b925050606085013567ffffffffffffffff81111561344d5761344c612d1b565b5b613459878288016133b8565b91505092959194509250565b5f5f6040838503121561347b5761347a612d17565b5b5f61348885828601612e42565b925050602061349985828601612e42565b9150509250929050565b600281106134af575f5ffd5b50565b5f813590506134c0816134a3565b92915050565b5f5f5f5f608085870312156134de576134dd612d17565b5b5f85013567ffffffffffffffff8111156134fb576134fa612d1b565b5b61350787828801613154565b945050602061351887828801612de8565b935050604061352987828801612de8565b925050606061353a878288016134b2565b91505092959194509250565b7f4170656e6173206f206f7267616e697a61646f7220706f6465207265706173735f8201527f6172000000000000000000000000000000000000000000000000000000000000602082015250565b5f6135a0602283612eb0565b91506135ab82613546565b604082019050919050565b5f6020820190508181035f8301526135cd81613594565b9050919050565b7f4e487b71000000000000000000000000000000000000000000000000000000005f52601160045260245ffd5b5f61360b82612cdd565b915061361683612cdd565b925082820190508082111561362e5761362d6135d4565b5b92915050565b7f4e616f20686120696e67726573736f7320737566696369656e746573000000005f82015250565b5f613668601c83612eb0565b915061367382613634565b602082019050919050565b5f6020820190508181035f8301526136958161365c565b9050919050565b5f6060820190506136af5f830186612ce6565b6136bc6020830185612f61565b6136c96040830184612ce6565b949350505050565b7f4e487b71000000000000000000000000000000000000000000000000000000005f52602260045260245ffd5b5f600282049050600182168061371557607f821691505b602082108103613728576137276136d1565b5b50919050565b7f566f6365206e616f20706f73737569206573746520696e67726573736f0000005f82015250565b5f613762601d83612eb0565b915061376d8261372e565b602082019050919050565b5f6020820190508181035f83015261378f81613756565b9050919050565b5f6060820190506137a95f830186612ce6565b6137b66020830185612f61565b6137c36040830184612f61565b949350505050565b7f4170656e6173206f206f7267616e697a61646f7220706f646520636f6e7669645f8201527f6172000000000000000000000000000000000000000000000000000000000000602082015250565b5f613825602283612eb0565b9150613830826137cb565b604082019050919050565b5f6020820190508181035f83015261385281613819565b9050919050565b5f60608201905061386c5f830186612f61565b6138796020830185612ce6565b6138866040830184612f61565b949350505050565b7f4e616f206175746f72697a61646f0000000000000000000000000000000000005f82015250565b5f6138c2600e83612eb0565b91506138cd8261388e565b602082019050919050565b5f6020820190508181035f8301526138ef816138b6565b9050919050565b5f6040820190506139095f830185612ce6565b818103602083015261391b8184612ede565b90509392505050565b7f4170656e6173206f206f7267616e697a61646f7220706f64652072656d6f76655f8201527f7200000000000000000000000000000000000000000000000000000000000000602082015250565b5f61397e602183612eb0565b915061398982613924565b604082019050919050565b5f6020820190508181035f8301526139ab81613972565b9050919050565b5f81905092915050565b5f6139c682612ea6565b6139d081856139b2565b93506139e0818560208601612ec0565b80840191505092915050565b5f6139f782856139bc565b9150613a0382846139bc565b91508190509392505050565b7f4576656e746f20696e6578697374656e746500000000000000000000000000005f82015250565b5f613a43601283612eb0565b9150613a4e82613a0f565b602082019050919050565b5f6020820190508181035f830152613a7081613a37565b9050919050565b7f496e67726573736f73206573676f7461646f73000000000000000000000000005f82015250565b5f613aab601383612eb0565b9150613ab682613a77565b602082019050919050565b5f6020820190508181035f830152613ad881613a9f565b9050919050565b7f56616c6f7220696e636f727265746f00000000000000000000000000000000005f82015250565b5f613b13600f83612eb0565b9150613b1e82613adf565b602082019050919050565b5f6020820190508181035f830152613b4081613b07565b9050919050565b7f566f6365206e616f2065737461206e61206c6973746120646520636f6e7669645f8201527f61646f7300000000000000000000000000000000000000000000000000000000602082015250565b5f613ba1602483612eb0565b9150613bac82613b47565b604082019050919050565b5f6020820190508181035f830152613bce81613b95565b9050919050565b5f613bdf82612cdd565b91507fffffffffffffffffffffffffffffffffffffffffffffffffffffffffffffffff8203613c1157613c106135d4565b5b600182019050919050565b7f53656d20696e67726573736f7320646973706f6e6976656973207061726120725f8201527f6576656e64610000000000000000000000000000000000000000000000000000602082015250565b5f613c76602683612eb0565b9150613c8182613c1c565b604082019050919050565b5f6020820190508181035f830152613ca381613c6a565b9050919050565b5f613cb482612cdd565b91505f8203613cc657613cc56135d4565b5b600182039050919050565b7f4170656e6173206f206f7267616e697a61646f7220706f6465207361636172005f82015250565b5f613d05601f83612eb0565b9150613d1082613cd1565b602082019050919050565b5f6020820190508181035f830152613d3281613cf9565b9050919050565b5f819050815f5260205f209050919050565b5f6020601f8301049050919050565b5f82821b905092915050565b5f60088302613d957fffffffffffffffffffffffffffffffffffffffffffffffffffffffffffffffff82613d5a565b613d9f8683613d5a565b95508019841693508086168417925050509392505050565b5f819050919050565b5f613dda613dd5613dd084612cdd565b613db7565b612cdd565b9050919050565b5f819050919050565b613df383613dc0565b613e07613dff82613de1565b848454613d66565b825550505050565b5f5f905090565b613e1e613e0f565b613e29818484613dea565b505050565b5b81811015613e4c57613e415f82613e16565b600181019050613e2f565b5050565b601f821115613e9157613e6281613d39565b613e6b84613d4b565b81016020851015613e7a578190505b613e8e613e8685613d4b565b830182613e2e565b50505b505050565b5f82821c905092915050565b5f613eb15f1984600802613e96565b1980831691505092915050565b5f613ec98383613ea2565b9150826002028217905092915050565b613ee282612ea6565b67ffffffffffffffff811115613efb57613efa61305d565b5b613f0582546136fe565b613f10828285613e50565b5f60209050601f831160018114613f41575f8415613f2f578287015190505b613f398582613ebe565b865550613fa0565b601f198416613f4f86613d39565b5f5b82811015613f7657848901518255600182019150602085019450602081019050613f51565b86831015613f935784890151613f8f601f891682613ea2565b8355505b6001600288020188555050505b505050505050565b5f606082019050613fbb5f830186612ce6565b8181036020830152613fcd8185612ede565b9050613fdc6040830184612f61565b949350505050565b5f81519050919050565b5f82825260208201905092915050565b5f61400882613fe4565b6140128185613fee565b9350614022818560208601612ec0565b61402b81612ece565b840191505092915050565b5f6080820190506140495f830187612f61565b6140566020830186612f61565b6140636040830185612ce6565b81810360608301526140758184613ffe565b905095945050505050565b5f8151905061408e81612d4a565b92915050565b5f602082840312156140a9576140a8612d17565b5b5f6140b684828501614080565b91505092915050565b5f6040820190506140d25f830185612f61565b6140df6020830184612ce6565b9392505050565b7f4e487b71000000000000000000000000000000000000000000000000000000005f52601260045260245ffdfea26469706673582212200fd233f173fd65d90c3e5e7abbb9eb0a37230fd7bebe7a853b372de317ee016364736f6c634300081e0033","linkReferences":{}},"methodIdentifiers":{"adicionarConvidado(uint256,address)":"0f789cb7","approve(address,uint256)":"095ea7b3","balanceOf(address)":"70a08231","comprarIngresso(uint256)":"c8b86c6d","criarEvento(string,uint256,uint256,uint8)":"ffc19183","definirTokenURI(uint256,string)":"5da92c5d","donoOriginalIngresso(uint256)":"e87b9110","estaConvidado(uint256,address)":"b4bbd8bb","getApproved(uint256)":"081812fc","ingressoParaEvento(uint256)":"5e9bc15a","isApprovedForAll(address,address)":"e985e9c5","name()":"06fdde03","obterDadosEvento(uint256)":"6064fccd","owner()":"8da5cb5b","ownerOf(uint256)":"6352211e","proximoIdEvento()":"01161766","proximoIdIngresso()":"c84571f0","renounceOwnership()":"715018a6","repassarIngressos(uint256,address,uint256)":"06bd36f4","retirarRevendedor(uint256,address)":"a76744ff","revenderIngresso(uint256,address)":"0caf01f8","sacarFundos(uint256)":"d10e7fd7","safeTransferFrom(address,address,uint256)":"42842e0e","safeTransferFrom(address,address,uint256,bytes)":"b88d4fde","setApprovalForAll(address,bool)":"a22cb465","supportsInterface(bytes4)":"01ffc9a7","symbol()":"95d89b41","tokenURI(uint256)":"c87b56dd","transferFrom(address,address,uint256)":"23b872dd","transferOwnership(address)":"f2fde38b","venderComoRevendedor(uint256)":"cc78d577"},"id":40}