{"abi":[{"type":"constructor","inputs":[{"name":"tokenAddress","type":"address","internalType":"address"},{"name":"ingressoNFTAddress","type":"address","internalType":"address"}],"stateMutability":"nonpayable"},{"type":"function","name":"adicionarConvidado","inputs":[{"name":"idEvento","type":"uint256","internalType":"uint256"},{"name":"convidado","type":"address","internalType":"address"}],"outputs":[],"stateMutability":"nonpayable"},{"type":"function","name":"comprarIngresso","inputs":[{"name":"idEvento","type":"uint256","internalType":"uint256"}],"outputs":[],"stateMutability":"nonpayable"},{"type":"function","name":"criarEvento","inputs":[{"name":"nome","type":"string","internalType":"string"},{"name":"precoEmReais","type":"uint256","internalType":"uint256"},{"name":"totalIngressos","type":"uint256","internalType":"uint256"},{"name":"tipo","type":"uint8","internalType":"enum VendaIngressos.TipoVenda"},{"name":"dataEvento","type":"uint256","internalType":"uint256"},{"name":"dataEncerramento","type":"uint256","internalType":"uint256"}],"outputs":[],"stateMutability":"nonpayable"},{"type":"function","name":"estaConvidado","inputs":[{"name":"idEvento","type":"uint256","internalType":"uint256"},{"name":"usuario","type":"address","internalType":"address"}],"outputs":[{"name":"","type":"bool","internalType":"bool"}],"stateMutability":"view"},{"type":"function","name":"eventoPorTokenId","inputs":[{"name":"","type":"uint256","internalType":"uint256"}],"outputs":[{"name":"","type":"uint256","internalType":"uint256"}],"stateMutability":"view"},{"type":"function","name":"ingressoNFT","inputs":[],"outputs":[{"name":"","type":"address","internalType":"contract IngressoNFT"}],"stateMutability":"view"},{"type":"function","name":"ingressosDoUsuario","inputs":[{"name":"usuario","type":"address","internalType":"address"}],"outputs":[{"name":"","type":"uint256[]","internalType":"uint256[]"}],"stateMutability":"view"},{"type":"function","name":"ingressosPorUsuario","inputs":[{"name":"","type":"address","internalType":"address"},{"name":"","type":"uint256","internalType":"uint256"}],"outputs":[{"name":"","type":"uint256","internalType":"uint256"}],"stateMutability":"view"},{"type":"function","name":"obterDadosEvento","inputs":[{"name":"idEvento","type":"uint256","internalType":"uint256"}],"outputs":[{"name":"nome","type":"string","internalType":"string"},{"name":"organizador","type":"address","internalType":"address"},{"name":"precoEmReais","type":"uint256","internalType":"uint256"},{"name":"totalIngressos","type":"uint256","internalType":"uint256"},{"name":"vendidos","type":"uint256","internalType":"uint256"},{"name":"tipo","type":"uint8","internalType":"enum VendaIngressos.TipoVenda"},{"name":"dataEvento","type":"uint256","internalType":"uint256"},{"name":"dataEncerramento","type":"uint256","internalType":"uint256"}],"stateMutability":"view"},{"type":"function","name":"owner","inputs":[],"outputs":[{"name":"","type":"address","internalType":"address"}],"stateMutability":"view"},{"type":"function","name":"proximoIdEvento","inputs":[],"outputs":[{"name":"","type":"uint256","internalType":"uint256"}],"stateMutability":"view"},{"type":"function","name":"renounceOwnership","inputs":[],"outputs":[],"stateMutability":"nonpayable"},{"type":"function","name":"repassarIngressos","inputs":[{"name":"idEvento","type":"uint256","internalType":"uint256"},{"name":"revendedor","type":"address","internalType":"address"},{"name":"quantidade","type":"uint256","internalType":"uint256"}],"outputs":[],"stateMutability":"nonpayable"},{"type":"function","name":"revenderIngresso","inputs":[{"name":"tokenId","type":"uint256","internalType":"uint256"},{"name":"novoDono","type":"address","internalType":"address"}],"outputs":[],"stateMutability":"nonpayable"},{"type":"function","name":"sacarFundos","inputs":[{"name":"idEvento","type":"uint256","internalType":"uint256"}],"outputs":[],"stateMutability":"nonpayable"},{"type":"function","name":"token","inputs":[],"outputs":[{"name":"","type":"address","internalType":"contract IERC20"}],"stateMutability":"view"},{"type":"function","name":"transferOwnership","inputs":[{"name":"newOwner","type":"address","internalType":"address"}],"outputs":[],"stateMutability":"nonpayable"},{"type":"event","name":"EventoCriado","inputs":[{"name":"id","type":"uint256","indexed":false,"internalType":"uint256"},{"name":"nome","type":"string","indexed":false,"internalType":"string"},{"name":"organizador","type":"address","indexed":false,"internalType":"address"}],"anonymous":false},{"type":"event","name":"IngressoComprado","inputs":[{"name":"idEvento","type":"uint256","indexed":false,"internalType":"uint256"},{"name":"comprador","type":"address","indexed":false,"internalType":"address"},{"name":"tokenId","type":"uint256","indexed":false,"internalType":"uint256"}],"anonymous":false},{"type":"event","name":"IngressoRevendido","inputs":[{"name":"de","type":"address","indexed":false,"internalType":"address"},{"name":"para","type":"address","indexed":false,"internalType":"address"},{"name":"tokenIdAntigo","type":"uint256","indexed":false,"internalType":"uint256"},{"name":"tokenIdNovo","type":"uint256","indexed":false,"internalType":"uint256"}],"anonymous":false},{"type":"event","name":"IngressosRepassados","inputs":[{"name":"idEvento","type":"uint256","indexed":false,"internalType":"uint256"},{"name":"revendedor","type":"address","indexed":false,"internalType":"address"},{"name":"qtd","type":"uint256","indexed":false,"internalType":"uint256"}],"anonymous":false},{"type":"event","name":"OwnershipTransferred","inputs":[{"name":"previousOwner","type":"address","indexed":true,"internalType":"address"},{"name":"newOwner","type":"address","indexed":true,"internalType":"address"}],"anonymous":false},{"type":"error","name":"OwnableInvalidOwner","inputs":[{"name":"owner","type":"address","internalType":"address"}]},{"type":"error","name":"OwnableUnauthorizedAccount","inputs":[{"name":"account","type":"address","internalType":"address"}]}],"bytecode":{"object":"0x608060405234801561000f575f5ffd5b5060405161314938038061314983398181016040528101906100319190610258565b335f73ffffffffffffffffffffffffffffffffffffffff168173ffffffffffffffffffffffffffffffffffffffff16036100a2575f6040517f1e4fbdf700000000000000000000000000000000000000000000000000000000815260040161009991906102a5565b60405180910390fd5b6100b18161013960201b60201c565b508160015f6101000a81548173ffffffffffffffffffffffffffffffffffffffff021916908373ffffffffffffffffffffffffffffffffffffffff1602179055508060025f6101000a81548173ffffffffffffffffffffffffffffffffffffffff021916908373ffffffffffffffffffffffffffffffffffffffff16021790555050506102be565b5f5f5f9054906101000a900473ffffffffffffffffffffffffffffffffffffffff169050815f5f6101000a81548173ffffffffffffffffffffffffffffffffffffffff021916908373ffffffffffffffffffffffffffffffffffffffff1602179055508173ffffffffffffffffffffffffffffffffffffffff168173ffffffffffffffffffffffffffffffffffffffff167f8be0079c531659141344cd1fd0a4f28419497f9722a3daafe3b4186f6b6457e060405160405180910390a35050565b5f5ffd5b5f73ffffffffffffffffffffffffffffffffffffffff82169050919050565b5f610227826101fe565b9050919050565b6102378161021d565b8114610241575f5ffd5b50565b5f815190506102528161022e565b92915050565b5f5f6040838503121561026e5761026d6101fa565b5b5f61027b85828601610244565b925050602061028c85828601610244565b9150509250929050565b61029f8161021d565b82525050565b5f6020820190506102b85f830184610296565b92915050565b612e7e806102cb5f395ff3fe608060405234801561000f575f5ffd5b5060043610610109575f3560e01c80636096dda5116100a0578063b4bbd8bb1161006f578063b4bbd8bb146102a8578063c8b86c6d146102d8578063d10e7fd7146102f4578063f2fde38b14610310578063fc0c546a1461032c57610109565b80636096dda514610234578063715018a6146102645780638da5cb5b1461026e57806399fd92391461028c57610109565b80631e2f7813116100dc5780631e2f78131461017f5780635cfcbdc7146101af5780635d26e8fa146101cd5780636064fccd146101fd57610109565b8063011617661461010d57806306bd36f41461012b5780630caf01f8146101475780630f789cb714610163575b5f5ffd5b61011561034a565b60405161012291906119a7565b60405180910390f35b61014560048036038101906101409190611a4c565b610350565b005b610161600480360381019061015c9190611a9c565b61054e565b005b61017d60048036038101906101789190611a9c565b610889565b005b61019960048036038101906101949190611ada565b61098a565b6040516101a691906119a7565b60405180910390f35b6101b761099f565b6040516101c49190611b60565b60405180910390f35b6101e760048036038101906101e29190611b79565b6109c4565b6040516101f49190611c5b565b60405180910390f35b61021760048036038101906102129190611ada565b610a57565b60405161022b989796959493929190611d6d565b60405180910390f35b61024e60048036038101906102499190611df0565b610b6b565b60405161025b91906119a7565b60405180910390f35b61026c610b96565b005b610276610ba9565b6040516102839190611e2e565b60405180910390f35b6102a660048036038101906102a19190611ecb565b610bd0565b005b6102c260048036038101906102bd9190611a9c565b610d2c565b6040516102cf9190611f8f565b60405180910390f35b6102f260048036038101906102ed9190611ada565b610d91565b005b61030e60048036038101906103099190611ada565b6111b3565b005b61032a60048036038101906103259190611b79565b611482565b005b610334611506565b6040516103419190611fc8565b60405180910390f35b60035481565b5f60045f8581526020019081526020015f209050806007015f9054906101000a900473ffffffffffffffffffffffffffffffffffffffff1673ffffffffffffffffffffffffffffffffffffffff163373ffffffffffffffffffffffffffffffffffffffff16146103f5576040517f08c379a00000000000000000000000000000000000000000000000000000000081526004016103ec9061202b565b60405180910390fd5b806002015482826003015461040a9190612076565b111561044b576040517f08c379a0000000000000000000000000000000000000000000000000000000008152600401610442906120f3565b60405180910390fd5b6002816002015461045c919061213e565b82111561049e576040517f08c379a0000000000000000000000000000000000000000000000000000000008152600401610495906121b8565b60405180910390fd5b8181600a015f8573ffffffffffffffffffffffffffffffffffffffff1673ffffffffffffffffffffffffffffffffffffffff1681526020019081526020015f205f8282546104ec9190612076565b9250508190555081816003015f8282546105069190612076565b925050819055507fcc5509fa261485689aa8a65bfdfba46eb4a3daccd3e9ba0075bae4f2a1b9631b848484604051610540939291906121d6565b60405180910390a150505050565b3373ffffffffffffffffffffffffffffffffffffffff1660025f9054906101000a900473ffffffffffffffffffffffffffffffffffffffff1673ffffffffffffffffffffffffffffffffffffffff16636352211e846040518263ffffffff1660e01b81526004016105bf91906119a7565b602060405180830381865afa1580156105da573d5f5f3e3d5ffd5b505050506040513d601f19601f820116820180604052508101906105fe919061221f565b73ffffffffffffffffffffffffffffffffffffffff1614610654576040517f08c379a000000000000000000000000000000000000000000000000000000000815260040161064b90612294565b60405180910390fd5b5f60065f8481526020019081526020015f2054905060025f9054906101000a900473ffffffffffffffffffffffffffffffffffffffff1673ffffffffffffffffffffffffffffffffffffffff166342966c68846040518263ffffffff1660e01b81526004016106c391906119a7565b5f604051808303815f87803b1580156106da575f5ffd5b505af11580156106ec573d5f5f3e3d5ffd5b505050505f6106fa8261152b565b6107034261152b565b6040516020016107149291906123a6565b60405160208183030381529060405290505f60025f9054906101000a900473ffffffffffffffffffffffffffffffffffffffff1673ffffffffffffffffffffffffffffffffffffffff1663d0def52185846040518363ffffffff1660e01b81526004016107829291906123df565b6020604051808303815f875af115801561079e573d5f5f3e3d5ffd5b505050506040513d601f19601f820116820180604052508101906107c29190612421565b90508260065f8381526020019081526020015f20819055506107e433866115f5565b60055f8573ffffffffffffffffffffffffffffffffffffffff1673ffffffffffffffffffffffffffffffffffffffff1681526020019081526020015f2081908060018154018082558091505060019003905f5260205f20015f90919091909150557feab643b8b0141c61e18cc8884e64cf2556c88f0bb1395b882726c219a810fddc3385878460405161087a949392919061244c565b60405180910390a15050505050565b5f60045f8481526020019081526020015f209050806007015f9054906101000a900473ffffffffffffffffffffffffffffffffffffffff1673ffffffffffffffffffffffffffffffffffffffff163373ffffffffffffffffffffffffffffffffffffffff161461092e576040517f08c379a0000000000000000000000000000000000000000000000000000000008152600401610925906124ff565b60405180910390fd5b6001816009015f8473ffffffffffffffffffffffffffffffffffffffff1673ffffffffffffffffffffffffffffffffffffffff1681526020019081526020015f205f6101000a81548160ff021916908315150217905550505050565b6006602052805f5260405f205f915090505481565b60025f9054906101000a900473ffffffffffffffffffffffffffffffffffffffff1681565b606060055f8373ffffffffffffffffffffffffffffffffffffffff1673ffffffffffffffffffffffffffffffffffffffff1681526020019081526020015f20805480602002602001604051908101604052809291908181526020018280548015610a4b57602002820191905f5260205f20905b815481526020019060010190808311610a37575b50505050509050919050565b60605f5f5f5f5f5f5f5f60045f8b81526020019081526020015f209050805f01816007015f9054906101000a900473ffffffffffffffffffffffffffffffffffffffff16826001015483600201548460030154856004015f9054906101000a900460ff1686600501548760060154878054610ad19061254a565b80601f0160208091040260200160405190810160405280929190818152602001828054610afd9061254a565b8015610b485780601f10610b1f57610100808354040283529160200191610b48565b820191905f5260205f20905b815481529060010190602001808311610b2b57829003601f168201915b505050505097509850985098509850985098509850985050919395975091939597565b6005602052815f5260405f208181548110610b84575f80fd5b905f5260205f20015f91509150505481565b610b9e6116ef565b610ba75f611776565b565b5f5f5f9054906101000a900473ffffffffffffffffffffffffffffffffffffffff16905090565b818110610c12576040517f08c379a0000000000000000000000000000000000000000000000000000000008152600401610c09906125ea565b60405180910390fd5b5f60045f60035481526020019081526020015f2090508787825f019182610c3a9291906127d6565b5085816001018190555084816002018190555083816004015f6101000a81548160ff02191690836001811115610c7357610c72611cfa565b5b021790555082816005018190555081816006018190555033816007015f6101000a81548173ffffffffffffffffffffffffffffffffffffffff021916908373ffffffffffffffffffffffffffffffffffffffff1602179055507fb2b69c45b4e0e56fd8a8457b29fb7694a1a9162088a62c38b7b2b5d2d4017ea9600354898933604051610d0394939291906128dd565b60405180910390a160035f815480929190610d1d9061291b565b91905055505050505050505050565b5f60045f8481526020019081526020015f206009015f8373ffffffffffffffffffffffffffffffffffffffff1673ffffffffffffffffffffffffffffffffffffffff1681526020019081526020015f205f9054906101000a900460ff16905092915050565b5f60045f8381526020019081526020015f20905080600601544210610deb576040517f08c379a0000000000000000000000000000000000000000000000000000000008152600401610de2906129ac565b60405180910390fd5b8060020154816003015410610e35576040517f08c379a0000000000000000000000000000000000000000000000000000000008152600401610e2c90612a14565b60405180910390fd5b600180811115610e4857610e47611cfa565b5b816004015f9054906101000a900460ff166001811115610e6b57610e6a611cfa565b5b03610efc57806009015f3373ffffffffffffffffffffffffffffffffffffffff1673ffffffffffffffffffffffffffffffffffffffff1681526020019081526020015f205f9054906101000a900460ff16610efb576040517f08c379a0000000000000000000000000000000000000000000000000000000008152600401610ef290612a7c565b60405180910390fd5b5b60015f9054906101000a900473ffffffffffffffffffffffffffffffffffffffff1673ffffffffffffffffffffffffffffffffffffffff166323b872dd333084600101546040518463ffffffff1660e01b8152600401610f5e93929190612a9a565b6020604051808303815f875af1158015610f7a573d5f5f3e3d5ffd5b505050506040513d601f19601f82011682018060405250810190610f9e9190612af9565b610fdd576040517f08c379a0000000000000000000000000000000000000000000000000000000008152600401610fd490612b6e565b60405180910390fd5b8060010154816008015f8481526020019081526020015f205f8282546110039190612076565b92505081905550806003015f81548092919061101e9061291b565b91905055505f61102d8361152b565b61103a836003015461152b565b60405160200161104b9291906123a6565b60405160208183030381529060405290505f60025f9054906101000a900473ffffffffffffffffffffffffffffffffffffffff1673ffffffffffffffffffffffffffffffffffffffff1663d0def52133846040518363ffffffff1660e01b81526004016110b99291906123df565b6020604051808303815f875af11580156110d5573d5f5f3e3d5ffd5b505050506040513d601f19601f820116820180604052508101906110f99190612421565b905060055f3373ffffffffffffffffffffffffffffffffffffffff1673ffffffffffffffffffffffffffffffffffffffff1681526020019081526020015f2081908060018154018082558091505060019003905f5260205f20015f90919091909150558360065f8381526020019081526020015f20819055507f25ab691d370cebf479225870a95327553156860c18595df840b852742bb106de8433836040516111a5939291906121d6565b60405180910390a150505050565b5f60045f8381526020019081526020015f209050806007015f9054906101000a900473ffffffffffffffffffffffffffffffffffffffff1673ffffffffffffffffffffffffffffffffffffffff163373ffffffffffffffffffffffffffffffffffffffff1614611258576040517f08c379a000000000000000000000000000000000000000000000000000000000815260040161124f90612bd6565b60405180910390fd5b806005015442101561129f576040517f08c379a000000000000000000000000000000000000000000000000000000000815260040161129690612c3e565b60405180910390fd5b8060070160149054906101000a900460ff16156112f1576040517f08c379a00000000000000000000000000000000000000000000000000000000081526004016112e890612ca6565b60405180910390fd5b5f816008015f8481526020019081526020015f205490505f811161134a576040517f08c379a000000000000000000000000000000000000000000000000000000000815260040161134190612d0e565b60405180910390fd5b5f826008015f8581526020019081526020015f208190555060018260070160146101000a81548160ff02191690831515021790555060015f9054906101000a900473ffffffffffffffffffffffffffffffffffffffff1673ffffffffffffffffffffffffffffffffffffffff1663a9059cbb836007015f9054906101000a900473ffffffffffffffffffffffffffffffffffffffff16836040518363ffffffff1660e01b81526004016113fe929190612d2c565b6020604051808303815f875af115801561141a573d5f5f3e3d5ffd5b505050506040513d601f19601f8201168201806040525081019061143e9190612af9565b61147d576040517f08c379a000000000000000000000000000000000000000000000000000000000815260040161147490612d9d565b60405180910390fd5b505050565b61148a6116ef565b5f73ffffffffffffffffffffffffffffffffffffffff168173ffffffffffffffffffffffffffffffffffffffff16036114fa575f6040517f1e4fbdf70000000000000000000000000000000000000000000000000000000081526004016114f19190611e2e565b60405180910390fd5b61150381611776565b50565b60015f9054906101000a900473ffffffffffffffffffffffffffffffffffffffff1681565b60605f600161153984611837565b0190505f8167ffffffffffffffff81111561155757611556612612565b5b6040519080825280601f01601f1916602001820160405280156115895781602001600182028036833780820191505090505b5090505f82602001820190505b6001156115ea578080600190039150507f3031323334353637383961626364656600000000000000000000000000000000600a86061a8153600a85816115df576115de612111565b5b0494505f8503611596575b819350505050919050565b5f60055f8473ffffffffffffffffffffffffffffffffffffffff1673ffffffffffffffffffffffffffffffffffffffff1681526020019081526020015f2090505f5f90505b81805490508110156116e9578282828154811061165a57611659612dbb565b5b905f5260205f200154036116dc57816001838054905061167a9190612de8565b8154811061168b5761168a612dbb565b5b905f5260205f2001548282815481106116a7576116a6612dbb565b5b905f5260205f200181905550818054806116c4576116c3612e1b565b5b600190038181905f5260205f20015f905590556116e9565b808060010191505061163a565b50505050565b6116f7611988565b73ffffffffffffffffffffffffffffffffffffffff16611715610ba9565b73ffffffffffffffffffffffffffffffffffffffff161461177457611738611988565b6040517f118cdaa700000000000000000000000000000000000000000000000000000000815260040161176b9190611e2e565b60405180910390fd5b565b5f5f5f9054906101000a900473ffffffffffffffffffffffffffffffffffffffff169050815f5f6101000a81548173ffffffffffffffffffffffffffffffffffffffff021916908373ffffffffffffffffffffffffffffffffffffffff1602179055508173ffffffffffffffffffffffffffffffffffffffff168173ffffffffffffffffffffffffffffffffffffffff167f8be0079c531659141344cd1fd0a4f28419497f9722a3daafe3b4186f6b6457e060405160405180910390a35050565b5f5f5f90507a184f03e93ff9f4daa797ed6e38ed64bf6a1f0100000000000000008310611893577a184f03e93ff9f4daa797ed6e38ed64bf6a1f010000000000000000838161188957611888612111565b5b0492506040810190505b6d04ee2d6d415b85acef810000000083106118d0576d04ee2d6d415b85acef810000000083816118c6576118c5612111565b5b0492506020810190505b662386f26fc1000083106118ff57662386f26fc1000083816118f5576118f4612111565b5b0492506010810190505b6305f5e1008310611928576305f5e100838161191e5761191d612111565b5b0492506008810190505b612710831061194d57612710838161194357611942612111565b5b0492506004810190505b60648310611970576064838161196657611965612111565b5b0492506002810190505b600a831061197f576001810190505b80915050919050565b5f33905090565b5f819050919050565b6119a18161198f565b82525050565b5f6020820190506119ba5f830184611998565b92915050565b5f5ffd5b5f5ffd5b6119d18161198f565b81146119db575f5ffd5b50565b5f813590506119ec816119c8565b92915050565b5f73ffffffffffffffffffffffffffffffffffffffff82169050919050565b5f611a1b826119f2565b9050919050565b611a2b81611a11565b8114611a35575f5ffd5b50565b5f81359050611a4681611a22565b92915050565b5f5f5f60608486031215611a6357611a626119c0565b5b5f611a70868287016119de565b9350506020611a8186828701611a38565b9250506040611a92868287016119de565b9150509250925092565b5f5f60408385031215611ab257611ab16119c0565b5b5f611abf858286016119de565b9250506020611ad085828601611a38565b9150509250929050565b5f60208284031215611aef57611aee6119c0565b5b5f611afc848285016119de565b91505092915050565b5f819050919050565b5f611b28611b23611b1e846119f2565b611b05565b6119f2565b9050919050565b5f611b3982611b0e565b9050919050565b5f611b4a82611b2f565b9050919050565b611b5a81611b40565b82525050565b5f602082019050611b735f830184611b51565b92915050565b5f60208284031215611b8e57611b8d6119c0565b5b5f611b9b84828501611a38565b91505092915050565b5f81519050919050565b5f82825260208201905092915050565b5f819050602082019050919050565b611bd68161198f565b82525050565b5f611be78383611bcd565b60208301905092915050565b5f602082019050919050565b5f611c0982611ba4565b611c138185611bae565b9350611c1e83611bbe565b805f5b83811015611c4e578151611c358882611bdc565b9750611c4083611bf3565b925050600181019050611c21565b5085935050505092915050565b5f6020820190508181035f830152611c738184611bff565b905092915050565b5f81519050919050565b5f82825260208201905092915050565b8281835e5f83830152505050565b5f601f19601f8301169050919050565b5f611cbd82611c7b565b611cc78185611c85565b9350611cd7818560208601611c95565b611ce081611ca3565b840191505092915050565b611cf481611a11565b82525050565b7f4e487b71000000000000000000000000000000000000000000000000000000005f52602160045260245ffd5b60028110611d3857611d37611cfa565b5b50565b5f819050611d4882611d27565b919050565b5f611d5782611d3b565b9050919050565b611d6781611d4d565b82525050565b5f610100820190508181035f830152611d86818b611cb3565b9050611d95602083018a611ceb565b611da26040830189611998565b611daf6060830188611998565b611dbc6080830187611998565b611dc960a0830186611d5e565b611dd660c0830185611998565b611de360e0830184611998565b9998505050505050505050565b5f5f60408385031215611e0657611e056119c0565b5b5f611e1385828601611a38565b9250506020611e24858286016119de565b9150509250929050565b5f602082019050611e415f830184611ceb565b92915050565b5f5ffd5b5f5ffd5b5f5ffd5b5f5f83601f840112611e6857611e67611e47565b5b8235905067ffffffffffffffff811115611e8557611e84611e4b565b5b602083019150836001820283011115611ea157611ea0611e4f565b5b9250929050565b60028110611eb4575f5ffd5b50565b5f81359050611ec581611ea8565b92915050565b5f5f5f5f5f5f5f60c0888a031215611ee657611ee56119c0565b5b5f88013567ffffffffffffffff811115611f0357611f026119c4565b5b611f0f8a828b01611e53565b97509750506020611f228a828b016119de565b9550506040611f338a828b016119de565b9450506060611f448a828b01611eb7565b9350506080611f558a828b016119de565b92505060a0611f668a828b016119de565b91505092959891949750929550565b5f8115159050919050565b611f8981611f75565b82525050565b5f602082019050611fa25f830184611f80565b92915050565b5f611fb282611b2f565b9050919050565b611fc281611fa8565b82525050565b5f602082019050611fdb5f830184611fb9565b92915050565b7f4170656e6173206f7267616e697a61646f7200000000000000000000000000005f82015250565b5f612015601283611c85565b915061202082611fe1565b602082019050919050565b5f6020820190508181035f83015261204281612009565b9050919050565b7f4e487b71000000000000000000000000000000000000000000000000000000005f52601160045260245ffd5b5f6120808261198f565b915061208b8361198f565b92508282019050808211156120a3576120a2612049565b5b92915050565b7f45786365646520746f74616c00000000000000000000000000000000000000005f82015250565b5f6120dd600c83611c85565b91506120e8826120a9565b602082019050919050565b5f6020820190508181035f83015261210a816120d1565b9050919050565b7f4e487b71000000000000000000000000000000000000000000000000000000005f52601260045260245ffd5b5f6121488261198f565b91506121538361198f565b92508261216357612162612111565b5b828204905092915050565b7f4d6178696d6f20353025207061726120726576656e64610000000000000000005f82015250565b5f6121a2601783611c85565b91506121ad8261216e565b602082019050919050565b5f6020820190508181035f8301526121cf81612196565b9050919050565b5f6060820190506121e95f830186611998565b6121f66020830185611ceb565b6122036040830184611998565b949350505050565b5f8151905061221981611a22565b92915050565b5f60208284031215612234576122336119c0565b5b5f6122418482850161220b565b91505092915050565b7f4e616f20656820646f6e6f20646f20696e67726573736f0000000000000000005f82015250565b5f61227e601783611c85565b91506122898261224a565b602082019050919050565b5f6020820190508181035f8301526122ab81612272565b9050919050565b5f81905092915050565b7f68747470733a2f2f6d657573696e67726573736f732e636f6d2f6d65746164615f8201527f74612f0000000000000000000000000000000000000000000000000000000000602082015250565b5f6123166023836122b2565b9150612321826122bc565b602382019050919050565b5f61233682611c7b565b61234081856122b2565b9350612350818560208601611c95565b80840191505092915050565b7f2f000000000000000000000000000000000000000000000000000000000000005f82015250565b5f6123906001836122b2565b915061239b8261235c565b600182019050919050565b5f6123b08261230a565b91506123bc828561232c565b91506123c782612384565b91506123d3828461232c565b91508190509392505050565b5f6040820190506123f25f830185611ceb565b81810360208301526124048184611cb3565b90509392505050565b5f8151905061241b816119c8565b92915050565b5f60208284031215612436576124356119c0565b5b5f6124438482850161240d565b91505092915050565b5f60808201905061245f5f830187611ceb565b61246c6020830186611ceb565b6124796040830185611998565b6124866060830184611998565b95945050505050565b7f4170656e6173206f206f7267616e697a61646f7220706f646520636f6e7669645f8201527f6172000000000000000000000000000000000000000000000000000000000000602082015250565b5f6124e9602283611c85565b91506124f48261248f565b604082019050919050565b5f6020820190508181035f830152612516816124dd565b9050919050565b7f4e487b71000000000000000000000000000000000000000000000000000000005f52602260045260245ffd5b5f600282049050600182168061256157607f821691505b6020821081036125745761257361251d565b5b50919050565b7f456e63657272616d656e746f20646576652073657220616e74657320646f20655f8201527f76656e746f000000000000000000000000000000000000000000000000000000602082015250565b5f6125d4602583611c85565b91506125df8261257a565b604082019050919050565b5f6020820190508181035f830152612601816125c8565b9050919050565b5f82905092915050565b7f4e487b71000000000000000000000000000000000000000000000000000000005f52604160045260245ffd5b5f819050815f5260205f209050919050565b5f6020601f8301049050919050565b5f82821b905092915050565b5f6008830261269b7fffffffffffffffffffffffffffffffffffffffffffffffffffffffffffffffff82612660565b6126a58683612660565b95508019841693508086168417925050509392505050565b5f6126d76126d26126cd8461198f565b611b05565b61198f565b9050919050565b5f819050919050565b6126f0836126bd565b6127046126fc826126de565b84845461266c565b825550505050565b5f5f905090565b61271b61270c565b6127268184846126e7565b505050565b5b818110156127495761273e5f82612713565b60018101905061272c565b5050565b601f82111561278e5761275f8161263f565b61276884612651565b81016020851015612777578190505b61278b61278385612651565b83018261272b565b50505b505050565b5f82821c905092915050565b5f6127ae5f1984600802612793565b1980831691505092915050565b5f6127c6838361279f565b9150826002028217905092915050565b6127e08383612608565b67ffffffffffffffff8111156127f9576127f8612612565b5b612803825461254a565b61280e82828561274d565b5f601f83116001811461283b575f8415612829578287013590505b61283385826127bb565b86555061289a565b601f1984166128498661263f565b5f5b828110156128705784890135825560018201915060208501945060208101905061284b565b8683101561288d5784890135612889601f89168261279f565b8355505b6001600288020188555050505b50505050505050565b828183375f83830152505050565b5f6128bc8385611c85565b93506128c98385846128a3565b6128d283611ca3565b840190509392505050565b5f6060820190506128f05f830187611998565b81810360208301526129038185876128b1565b90506129126040830184611ceb565b95945050505050565b5f6129258261198f565b91507fffffffffffffffffffffffffffffffffffffffffffffffffffffffffffffffff820361295757612956612049565b5b600182019050919050565b7f56656e64617320656e63657272616461730000000000000000000000000000005f82015250565b5f612996601183611c85565b91506129a182612962565b602082019050919050565b5f6020820190508181035f8301526129c38161298a565b9050919050565b7f496e67726573736f73206573676f7461646f73000000000000000000000000005f82015250565b5f6129fe601383611c85565b9150612a09826129ca565b602082019050919050565b5f6020820190508181035f830152612a2b816129f2565b9050919050565b7f4e616f2065737461206e61206c6973746120646520636f6e76696461646f73005f82015250565b5f612a66601f83611c85565b9150612a7182612a32565b602082019050919050565b5f6020820190508181035f830152612a9381612a5a565b9050919050565b5f606082019050612aad5f830186611ceb565b612aba6020830185611ceb565b612ac76040830184611998565b949350505050565b612ad881611f75565b8114612ae2575f5ffd5b50565b5f81519050612af381612acf565b92915050565b5f60208284031215612b0e57612b0d6119c0565b5b5f612b1b84828501612ae5565b91505092915050565b7f46616c6861206e6f20706167616d656e746f00000000000000000000000000005f82015250565b5f612b58601283611c85565b9150612b6382612b24565b602082019050919050565b5f6020820190508181035f830152612b8581612b4c565b9050919050565b7f4170656e6173206f206f7267616e697a61646f7220706f6465207361636172005f82015250565b5f612bc0601f83611c85565b9150612bcb82612b8c565b602082019050919050565b5f6020820190508181035f830152612bed81612bb4565b9050919050565b7f4576656e746f2061696e6461206e616f2061636f6e74656365750000000000005f82015250565b5f612c28601a83611c85565b9150612c3382612bf4565b602082019050919050565b5f6020820190508181035f830152612c5581612c1c565b9050919050565b7f46756e646f73206a612073616361646f730000000000000000000000000000005f82015250565b5f612c90601183611c85565b9150612c9b82612c5c565b602082019050919050565b5f6020820190508181035f830152612cbd81612c84565b9050919050565b7f53656d2073616c646f20706172612073616361720000000000000000000000005f82015250565b5f612cf8601483611c85565b9150612d0382612cc4565b602082019050919050565b5f6020820190508181035f830152612d2581612cec565b9050919050565b5f604082019050612d3f5f830185611ceb565b612d4c6020830184611998565b9392505050565b7f46616c6861206e61207472616e73666572656e636961000000000000000000005f82015250565b5f612d87601683611c85565b9150612d9282612d53565b602082019050919050565b5f6020820190508181035f830152612db481612d7b565b9050919050565b7f4e487b71000000000000000000000000000000000000000000000000000000005f52603260045260245ffd5b5f612df28261198f565b9150612dfd8361198f565b9250828203905081811115612e1557612e14612049565b5b92915050565b7f4e487b71000000000000000000000000000000000000000000000000000000005f52603160045260245ffdfea26469706673582212203c1e39d83ded309be643cca1dc56469dc93e3274e0e1c4d6cfa15264b8ff2de864736f6c634300081e0033","linkReferences":{}},"methodIdentifiers":{"adicionarConvidado(uint256,address)":"0f789cb7","comprarIngresso(uint256)":"c8b86c6d","criarEvento(string,uint256,uint256,uint8,uint256,uint256)":"99fd9239","estaConvidado(uint256,address)":"b4bbd8bb","eventoPorTokenId(uint256)":"1e2f7813","ingressoNFT()":"5cfcbdc7","ingressosDoUsuario(address)":"5d26e8fa","ingressosPorUsuario(address,uint256)":"6096dda5","obterDadosEvento(uint256)":"6064fccd","owner()":"8da5cb5b","proximoIdEvento()":"01161766","renounceOwnership()":"715018a6","repassarIngressos(uint256,address,uint256)":"06bd36f4","revenderIngresso(uint256,address)":"0caf01f8","sacarFundos(uint256)":"d10e7fd7","token()":"fc0c546a","transferOwnership(address)":"f2fde38b"},"id":43}